{
  "_format": "hh-sol-artifact-1",
  "contractName": "ResearchPaperFunding",
  "sourceName": "contracts/ResearchPaperFunding.sol",
  "abi": [
    {
      "inputs": [],
      "stateMutability": "nonpayable",
      "type": "constructor"
    },
    {
      "inputs": [
        {
          "internalType": "address",
          "name": "sender",
          "type": "address"
        },
        {
          "internalType": "uint256",
          "name": "tokenId",
          "type": "uint256"
        },
        {
          "internalType": "address",
          "name": "owner",
          "type": "address"
        }
      ],
      "name": "ERC721IncorrectOwner",
      "type": "error"
    },
    {
      "inputs": [
        {
          "internalType": "address",
          "name": "operator",
          "type": "address"
        },
        {
          "internalType": "uint256",
          "name": "tokenId",
          "type": "uint256"
        }
      ],
      "name": "ERC721InsufficientApproval",
      "type": "error"
    },
    {
      "inputs": [
        {
          "internalType": "address",
          "name": "approver",
          "type": "address"
        }
      ],
      "name": "ERC721InvalidApprover",
      "type": "error"
    },
    {
      "inputs": [
        {
          "internalType": "address",
          "name": "operator",
          "type": "address"
        }
      ],
      "name": "ERC721InvalidOperator",
      "type": "error"
    },
    {
      "inputs": [
        {
          "internalType": "address",
          "name": "owner",
          "type": "address"
        }
      ],
      "name": "ERC721InvalidOwner",
      "type": "error"
    },
    {
      "inputs": [
        {
          "internalType": "address",
          "name": "receiver",
          "type": "address"
        }
      ],
      "name": "ERC721InvalidReceiver",
      "type": "error"
    },
    {
      "inputs": [
        {
          "internalType": "address",
          "name": "sender",
          "type": "address"
        }
      ],
      "name": "ERC721InvalidSender",
      "type": "error"
    },
    {
      "inputs": [
        {
          "internalType": "uint256",
          "name": "tokenId",
          "type": "uint256"
        }
      ],
      "name": "ERC721NonexistentToken",
      "type": "error"
    },
    {
      "inputs": [
        {
          "internalType": "address",
          "name": "owner",
          "type": "address"
        }
      ],
      "name": "OwnableInvalidOwner",
      "type": "error"
    },
    {
      "inputs": [
        {
          "internalType": "address",
          "name": "account",
          "type": "address"
        }
      ],
      "name": "OwnableUnauthorizedAccount",
      "type": "error"
    },
    {
      "anonymous": false,
      "inputs": [
        {
          "indexed": true,
          "internalType": "address",
          "name": "owner",
          "type": "address"
        },
        {
          "indexed": true,
          "internalType": "address",
          "name": "approved",
          "type": "address"
        },
        {
          "indexed": true,
          "internalType": "uint256",
          "name": "tokenId",
          "type": "uint256"
        }
      ],
      "name": "Approval",
      "type": "event"
    },
    {
      "anonymous": false,
      "inputs": [
        {
          "indexed": true,
          "internalType": "address",
          "name": "owner",
          "type": "address"
        },
        {
          "indexed": true,
          "internalType": "address",
          "name": "operator",
          "type": "address"
        },
        {
          "indexed": false,
          "internalType": "bool",
          "name": "approved",
          "type": "bool"
        }
      ],
      "name": "ApprovalForAll",
      "type": "event"
    },
    {
      "anonymous": false,
      "inputs": [
        {
          "indexed": false,
          "internalType": "uint256",
          "name": "_fromTokenId",
          "type": "uint256"
        },
        {
          "indexed": false,
          "internalType": "uint256",
          "name": "_toTokenId",
          "type": "uint256"
        }
      ],
      "name": "BatchMetadataUpdate",
      "type": "event"
    },
    {
      "anonymous": false,
      "inputs": [
        {
          "indexed": true,
          "internalType": "uint256",
          "name": "paperId",
          "type": "uint256"
        },
        {
          "indexed": true,
          "internalType": "address",
          "name": "uploader",
          "type": "address"
        },
        {
          "indexed": true,
          "internalType": "address",
          "name": "contributor",
          "type": "address"
        },
        {
          "indexed": false,
          "internalType": "string",
          "name": "ipfsHash",
          "type": "string"
        }
      ],
      "name": "ContributionAccepted",
      "type": "event"
    },
    {
      "anonymous": false,
      "inputs": [
        {
          "indexed": true,
          "internalType": "uint256",
          "name": "paperId",
          "type": "uint256"
        },
        {
          "indexed": true,
          "internalType": "address",
          "name": "contributor",
          "type": "address"
        },
        {
          "indexed": false,
          "internalType": "string",
          "name": "ipfsHash",
          "type": "string"
        }
      ],
      "name": "ContributionRequested",
      "type": "event"
    },
    {
      "anonymous": false,
      "inputs": [
        {
          "indexed": true,
          "internalType": "uint256",
          "name": "paperId",
          "type": "uint256"
        },
        {
          "indexed": true,
          "internalType": "address",
          "name": "uploader",
          "type": "address"
        },
        {
          "indexed": false,
          "internalType": "uint256",
          "name": "amount",
          "type": "uint256"
        }
      ],
      "name": "FundsWithdrawn",
      "type": "event"
    },
    {
      "anonymous": false,
      "inputs": [
        {
          "indexed": false,
          "internalType": "uint256",
          "name": "_tokenId",
          "type": "uint256"
        }
      ],
      "name": "MetadataUpdate",
      "type": "event"
    },
    {
      "anonymous": false,
      "inputs": [
        {
          "indexed": true,
          "internalType": "address",
          "name": "previousOwner",
          "type": "address"
        },
        {
          "indexed": true,
          "internalType": "address",
          "name": "newOwner",
          "type": "address"
        }
      ],
      "name": "OwnershipTransferred",
      "type": "event"
    },
    {
      "anonymous": false,
      "inputs": [
        {
          "indexed": true,
          "internalType": "uint256",
          "name": "paperId",
          "type": "uint256"
        },
        {
          "indexed": true,
          "internalType": "address",
          "name": "investor",
          "type": "address"
        },
        {
          "indexed": false,
          "internalType": "uint256",
          "name": "amount",
          "type": "uint256"
        }
      ],
      "name": "ResearchPaperFunded",
      "type": "event"
    },
    {
      "anonymous": false,
      "inputs": [
        {
          "indexed": true,
          "internalType": "address",
          "name": "scientist",
          "type": "address"
        }
      ],
      "name": "ScientistRegistered",
      "type": "event"
    },
    {
      "anonymous": false,
      "inputs": [
        {
          "indexed": true,
          "internalType": "address",
          "name": "from",
          "type": "address"
        },
        {
          "indexed": true,
          "internalType": "address",
          "name": "to",
          "type": "address"
        },
        {
          "indexed": true,
          "internalType": "uint256",
          "name": "tokenId",
          "type": "uint256"
        }
      ],
      "name": "Transfer",
      "type": "event"
    },
    {
      "inputs": [
        {
          "internalType": "uint256",
          "name": "paperId",
          "type": "uint256"
        },
        {
          "internalType": "uint256",
          "name": "contributionIndex",
          "type": "uint256"
        }
      ],
      "name": "acceptContribution",
      "outputs": [],
      "stateMutability": "nonpayable",
      "type": "function"
    },
    {
      "inputs": [
        {
          "internalType": "address",
          "name": "to",
          "type": "address"
        },
        {
          "internalType": "uint256",
          "name": "tokenId",
          "type": "uint256"
        }
      ],
      "name": "approve",
      "outputs": [],
      "stateMutability": "nonpayable",
      "type": "function"
    },
    {
      "inputs": [
        {
          "internalType": "address",
          "name": "owner",
          "type": "address"
        }
      ],
      "name": "balanceOf",
      "outputs": [
        {
          "internalType": "uint256",
          "name": "",
          "type": "uint256"
        }
      ],
      "stateMutability": "view",
      "type": "function"
    },
    {
      "inputs": [
        {
          "internalType": "uint256",
          "name": "paperId",
          "type": "uint256"
        }
      ],
      "name": "fundResearchPaper",
      "outputs": [],
      "stateMutability": "payable",
      "type": "function"
    },
    {
      "inputs": [
        {
          "internalType": "uint256",
          "name": "tokenId",
          "type": "uint256"
        }
      ],
      "name": "getApproved",
      "outputs": [
        {
          "internalType": "address",
          "name": "",
          "type": "address"
        }
      ],
      "stateMutability": "view",
      "type": "function"
    },
    {
      "inputs": [
        {
          "internalType": "address",
          "name": "owner",
          "type": "address"
        },
        {
          "internalType": "address",
          "name": "operator",
          "type": "address"
        }
      ],
      "name": "isApprovedForAll",
      "outputs": [
        {
          "internalType": "bool",
          "name": "",
          "type": "bool"
        }
      ],
      "stateMutability": "view",
      "type": "function"
    },
    {
      "inputs": [],
      "name": "name",
      "outputs": [
        {
          "internalType": "string",
          "name": "",
          "type": "string"
        }
      ],
      "stateMutability": "view",
      "type": "function"
    },
    {
      "inputs": [],
      "name": "owner",
      "outputs": [
        {
          "internalType": "address",
          "name": "",
          "type": "address"
        }
      ],
      "stateMutability": "view",
      "type": "function"
    },
    {
      "inputs": [
        {
          "internalType": "uint256",
          "name": "tokenId",
          "type": "uint256"
        }
      ],
      "name": "ownerOf",
      "outputs": [
        {
          "internalType": "address",
          "name": "",
          "type": "address"
        }
      ],
      "stateMutability": "view",
      "type": "function"
    },
    {
      "inputs": [],
      "name": "registerScientist",
      "outputs": [],
      "stateMutability": "nonpayable",
      "type": "function"
    },
    {
      "inputs": [],
      "name": "renounceOwnership",
      "outputs": [],
      "stateMutability": "nonpayable",
      "type": "function"
    },
    {
      "inputs": [
        {
          "internalType": "uint256",
          "name": "paperId",
          "type": "uint256"
        },
        {
          "internalType": "string",
          "name": "_ipfsHash",
          "type": "string"
        }
      ],
      "name": "requestToContribute",
      "outputs": [],
      "stateMutability": "nonpayable",
      "type": "function"
    },
    {
      "inputs": [
        {
          "internalType": "address",
          "name": "to",
          "type": "address"
        },
        {
          "internalType": "string",
          "name": "uri",
          "type": "string"
        }
      ],
      "name": "safeMint",
      "outputs": [],
      "stateMutability": "nonpayable",
      "type": "function"
    },
    {
      "inputs": [
        {
          "internalType": "address",
          "name": "from",
          "type": "address"
        },
        {
          "internalType": "address",
          "name": "to",
          "type": "address"
        },
        {
          "internalType": "uint256",
          "name": "tokenId",
          "type": "uint256"
        }
      ],
      "name": "safeTransferFrom",
      "outputs": [],
      "stateMutability": "nonpayable",
      "type": "function"
    },
    {
      "inputs": [
        {
          "internalType": "address",
          "name": "from",
          "type": "address"
        },
        {
          "internalType": "address",
          "name": "to",
          "type": "address"
        },
        {
          "internalType": "uint256",
          "name": "tokenId",
          "type": "uint256"
        },
        {
          "internalType": "bytes",
          "name": "data",
          "type": "bytes"
        }
      ],
      "name": "safeTransferFrom",
      "outputs": [],
      "stateMutability": "nonpayable",
      "type": "function"
    },
    {
      "inputs": [
        {
          "internalType": "address",
          "name": "operator",
          "type": "address"
        },
        {
          "internalType": "bool",
          "name": "approved",
          "type": "bool"
        }
      ],
      "name": "setApprovalForAll",
      "outputs": [],
      "stateMutability": "nonpayable",
      "type": "function"
    },
    {
      "inputs": [
        {
          "internalType": "bytes4",
          "name": "interfaceId",
          "type": "bytes4"
        }
      ],
      "name": "supportsInterface",
      "outputs": [
        {
          "internalType": "bool",
          "name": "",
          "type": "bool"
        }
      ],
      "stateMutability": "view",
      "type": "function"
    },
    {
      "inputs": [],
      "name": "symbol",
      "outputs": [
        {
          "internalType": "string",
          "name": "",
          "type": "string"
        }
      ],
      "stateMutability": "view",
      "type": "function"
    },
    {
      "inputs": [
        {
          "internalType": "uint256",
          "name": "tokenId",
          "type": "uint256"
        }
      ],
      "name": "tokenURI",
      "outputs": [
        {
          "internalType": "string",
          "name": "",
          "type": "string"
        }
      ],
      "stateMutability": "view",
      "type": "function"
    },
    {
      "inputs": [
        {
          "internalType": "address",
          "name": "from",
          "type": "address"
        },
        {
          "internalType": "address",
          "name": "to",
          "type": "address"
        },
        {
          "internalType": "uint256",
          "name": "tokenId",
          "type": "uint256"
        }
      ],
      "name": "transferFrom",
      "outputs": [],
      "stateMutability": "nonpayable",
      "type": "function"
    },
    {
      "inputs": [
        {
          "internalType": "address",
          "name": "newOwner",
          "type": "address"
        }
      ],
      "name": "transferOwnership",
      "outputs": [],
      "stateMutability": "nonpayable",
      "type": "function"
    },
    {
      "inputs": [
        {
          "internalType": "uint256",
          "name": "paperId",
          "type": "uint256"
        }
      ],
      "name": "withdrawFunds",
      "outputs": [],
      "stateMutability": "nonpayable",
      "type": "function"
    }
  ],
  "bytecode": "0x60806040523480156200001157600080fd5b5033806040518060400160405280600881526020017f5363694d6564616c0000000000000000000000000000000000000000000000008152506040518060400160405280600681526020017f5343494e46540000000000000000000000000000000000000000000000000000815250816001908162000091919062000474565b508060029081620000a3919062000474565b505050600073ffffffffffffffffffffffffffffffffffffffff168173ffffffffffffffffffffffffffffffffffffffff16036200011b5760006040517f1e4fbdf7000000000000000000000000000000000000000000000000000000008152600401620001129190620005a0565b60405180910390fd5b6200012c816200013460201b60201c565b5050620005bd565b6000600860009054906101000a900473ffffffffffffffffffffffffffffffffffffffff16905081600860006101000a81548173ffffffffffffffffffffffffffffffffffffffff021916908373ffffffffffffffffffffffffffffffffffffffff1602179055508173ffffffffffffffffffffffffffffffffffffffff168173ffffffffffffffffffffffffffffffffffffffff167f8be0079c531659141344cd1fd0a4f28419497f9722a3daafe3b4186f6b6457e060405160405180910390a35050565b600081519050919050565b7f4e487b7100000000000000000000000000000000000000000000000000000000600052604160045260246000fd5b7f4e487b7100000000000000000000000000000000000000000000000000000000600052602260045260246000fd5b600060028204905060018216806200027c57607f821691505b60208210810362000292576200029162000234565b5b50919050565b60008190508160005260206000209050919050565b60006020601f8301049050919050565b600082821b905092915050565b600060088302620002fc7fffffffffffffffffffffffffffffffffffffffffffffffffffffffffffffffff82620002bd565b620003088683620002bd565b95508019841693508086168417925050509392505050565b6000819050919050565b6000819050919050565b6000620003556200034f620003498462000320565b6200032a565b62000320565b9050919050565b6000819050919050565b620003718362000334565b6200038962000380826200035c565b848454620002ca565b825550505050565b600090565b620003a062000391565b620003ad81848462000366565b505050565b5b81811015620003d557620003c960008262000396565b600181019050620003b3565b5050565b601f8211156200042457620003ee8162000298565b620003f984620002ad565b8101602085101562000409578190505b620004216200041885620002ad565b830182620003b2565b50505b505050565b600082821c905092915050565b6000620004496000198460080262000429565b1980831691505092915050565b600062000464838362000436565b9150826002028217905092915050565b6200047f82620001fa565b67ffffffffffffffff8111156200049b576200049a62000205565b5b620004a7825462000263565b620004b4828285620003d9565b600060209050601f831160018114620004ec5760008415620004d7578287015190505b620004e3858262000456565b86555062000553565b601f198416620004fc8662000298565b60005b828110156200052657848901518255600182019150602085019450602081019050620004ff565b8683101562000546578489015162000542601f89168262000436565b8355505b6001600288020188555050505b505050505050565b600073ffffffffffffffffffffffffffffffffffffffff82169050919050565b600062000588826200055b565b9050919050565b6200059a816200057b565b82525050565b6000602082019050620005b760008301846200058f565b92915050565b61438e80620005cd6000396000f3fe6080604052600436106101345760003560e01c806370a08231116100ab578063b88d4fde1161006f578063b88d4fde146103ee578063c29ee39914610417578063c87b56dd14610440578063d204c45e1461047d578063e985e9c5146104a6578063f2fde38b146104e357610134565b806370a082311461031b578063715018a6146103585780638da5cb5b1461036f57806395d89b411461039a578063a22cb465146103c557610134565b806310bb5e05116100fd57806310bb5e0514610223578063155dd5ee1461023a57806318aa98521461026357806323b872dd1461028c57806342842e0e146102b55780636352211e146102de57610134565b80627a17221461013957806301ffc9a71461015557806306fdde0314610192578063081812fc146101bd578063095ea7b3146101fa575b600080fd5b610153600480360381019061014e9190612c5c565b61050c565b005b34801561016157600080fd5b5061017c60048036038101906101779190612ce1565b610769565b6040516101899190612d29565b60405180910390f35b34801561019e57600080fd5b506101a761077b565b6040516101b49190612dd4565b60405180910390f35b3480156101c957600080fd5b506101e460048036038101906101df9190612c5c565b61080d565b6040516101f19190612e37565b60405180910390f35b34801561020657600080fd5b50610221600480360381019061021c9190612e7e565b610829565b005b34801561022f57600080fd5b5061023861083f565b005b34801561024657600080fd5b50610261600480360381019061025c9190612c5c565b61096d565b005b34801561026f57600080fd5b5061028a60048036038101906102859190612ff3565b610e3a565b005b34801561029857600080fd5b506102b360048036038101906102ae919061304f565b6110e3565b005b3480156102c157600080fd5b506102dc60048036038101906102d7919061304f565b6111e5565b005b3480156102ea57600080fd5b5061030560048036038101906103009190612c5c565b611205565b6040516103129190612e37565b60405180910390f35b34801561032757600080fd5b50610342600480360381019061033d91906130a2565b611217565b60405161034f91906130de565b60405180910390f35b34801561036457600080fd5b5061036d6112d1565b005b34801561037b57600080fd5b506103846112e5565b6040516103919190612e37565b60405180910390f35b3480156103a657600080fd5b506103af61130f565b6040516103bc9190612dd4565b60405180910390f35b3480156103d157600080fd5b506103ec60048036038101906103e79190613125565b6113a1565b005b3480156103fa57600080fd5b5061041560048036038101906104109190613206565b6113b7565b005b34801561042357600080fd5b5061043e60048036038101906104399190613289565b6113d4565b005b34801561044c57600080fd5b5061046760048036038101906104629190612c5c565b61186a565b6040516104749190612dd4565b60405180910390f35b34801561048957600080fd5b506104a4600480360381019061049f91906132c9565b61187c565b005b3480156104b257600080fd5b506104cd60048036038101906104c89190613325565b6118b8565b6040516104da9190612d29565b60405180910390f35b3480156104ef57600080fd5b5061050a600480360381019061050591906130a2565b61194c565b005b6000600b60008381526020019081526020016000209050600073ffffffffffffffffffffffffffffffffffffffff168160020160009054906101000a900473ffffffffffffffffffffffffffffffffffffffff1673ffffffffffffffffffffffffffffffffffffffff16036105b6576040517f08c379a00000000000000000000000000000000000000000000000000000000081526004016105ad906133b1565b60405180910390fd5b8060050160009054906101000a900460ff1615610608576040517f08c379a00000000000000000000000000000000000000000000000000000000081526004016105ff90613443565b60405180910390fd5b80600a0160019054906101000a900460ff161561065a576040517f08c379a0000000000000000000000000000000000000000000000000000000008152600401610651906134d5565b60405180910390fd5b6000341161069d576040517f08c379a000000000000000000000000000000000000000000000000000000000815260040161069490613567565b60405180910390fd5b6000349050808260060160008282546106b691906135b6565b92505081905550808260070160003373ffffffffffffffffffffffffffffffffffffffff1673ffffffffffffffffffffffffffffffffffffffff168152602001908152602001600020600082825461070e91906135b6565b925050819055503373ffffffffffffffffffffffffffffffffffffffff16837f01042e389f29a6fb798bd1ec7081cba60e637147668b6700c50e32e95ebac5d98360405161075c91906130de565b60405180910390a3505050565b6000610774826119d2565b9050919050565b60606001805461078a90613619565b80601f01602080910402602001604051908101604052809291908181526020018280546107b690613619565b80156108035780601f106107d857610100808354040283529160200191610803565b820191906000526020600020905b8154815290600101906020018083116107e657829003601f168201915b5050505050905090565b600061081882611a33565b5061082282611abb565b9050919050565b61083b8282610836611af8565b611b00565b5050565b6000803373ffffffffffffffffffffffffffffffffffffffff1673ffffffffffffffffffffffffffffffffffffffff16815260200190815260200160002060000160009054906101000a900460ff16156108ce576040517f08c379a00000000000000000000000000000000000000000000000000000000081526004016108c5906136bc565b60405180910390fd5b60016000803373ffffffffffffffffffffffffffffffffffffffff1673ffffffffffffffffffffffffffffffffffffffff16815260200190815260200160002060000160006101000a81548160ff0219169083151502179055503373ffffffffffffffffffffffffffffffffffffffff167fe57694be0e3c8f1dac61e75df3942362c6f7ccdcf9b69b623a6a86f0befd4d0d60405160405180910390a2565b6000600b600083815260200190815260200160002090508060020160009054906101000a900473ffffffffffffffffffffffffffffffffffffffff1673ffffffffffffffffffffffffffffffffffffffff163373ffffffffffffffffffffffffffffffffffffffff1614610a16576040517f08c379a0000000000000000000000000000000000000000000000000000000008152600401610a0d9061374e565b60405180910390fd5b80600a0160019054906101000a900460ff1615610a68576040517f08c379a0000000000000000000000000000000000000000000000000000000008152600401610a5f906137e0565b60405180910390fd5b60008160060154905060008111610ab4576040517f08c379a0000000000000000000000000000000000000000000000000000000008152600401610aab90613872565b60405180910390fd5b6000600282610ac391906138c1565b90506000836003018054905082610ada91906138c1565b905060005b8460030180549050811015610c76576000856003018281548110610b0657610b056138f2565b5b9060005260206000200160009054906101000a900473ffffffffffffffffffffffffffffffffffffffff169050828660070160008373ffffffffffffffffffffffffffffffffffffffff1673ffffffffffffffffffffffffffffffffffffffff1681526020019081526020016000206000828254610b8491906135b6565b925050819055508073ffffffffffffffffffffffffffffffffffffffff166108fc849081150290604051600060405180830381858888f19350505050158015610bd1573d6000803e3d6000fd5b50610c6881876000018054610be590613619565b80601f0160208091040260200160405190810160405280929190818152602001828054610c1190613619565b8015610c5e5780601f10610c3357610100808354040283529160200191610c5e565b820191906000526020600020905b815481529060010190602001808311610c4157829003601f168201915b505050505061187c565b508080600101915050610adf565b5060008284610c859190613921565b9050808560070160003373ffffffffffffffffffffffffffffffffffffffff1673ffffffffffffffffffffffffffffffffffffffff1681526020019081526020016000206000828254610cd891906135b6565b925050819055503373ffffffffffffffffffffffffffffffffffffffff166108fc829081150290604051600060405180830381858888f19350505050158015610d25573d6000803e3d6000fd5b50610dbc33866000018054610d3990613619565b80601f0160208091040260200160405190810160405280929190818152602001828054610d6590613619565b8015610db25780601f10610d8757610100808354040283529160200191610db2565b820191906000526020600020905b815481529060010190602001808311610d9557829003601f168201915b505050505061187c565b60008560060181905550600185600a0160016101000a81548160ff0219169083151502179055503373ffffffffffffffffffffffffffffffffffffffff16867ff440aec6b52895984d061d622e6edeba6210f7c3e059be920663140c084560d786604051610e2a91906130de565b60405180910390a3505050505050565b6000803373ffffffffffffffffffffffffffffffffffffffff1673ffffffffffffffffffffffffffffffffffffffff16815260200190815260200160002060000160009054906101000a900460ff16610ec8576040517f08c379a0000000000000000000000000000000000000000000000000000000008152600401610ebf906139c7565b60405180910390fd5b6000600b600084815260200190815260200160002090508060050160009054906101000a900460ff1615610f31576040517f08c379a0000000000000000000000000000000000000000000000000000000008152600401610f2890613a59565b60405180910390fd5b8060020160009054906101000a900473ffffffffffffffffffffffffffffffffffffffff1673ffffffffffffffffffffffffffffffffffffffff163373ffffffffffffffffffffffffffffffffffffffff1603610fc3576040517f08c379a0000000000000000000000000000000000000000000000000000000008152600401610fba90613aeb565b60405180910390fd5b600060405180604001604052808481526020013373ffffffffffffffffffffffffffffffffffffffff168152509050600a600085815260200190815260200160002081908060018154018082558091505060019003906000526020600020906002020160009091909190915060008201518160000190816110449190613cb7565b5060208201518160010160006101000a81548173ffffffffffffffffffffffffffffffffffffffff021916908373ffffffffffffffffffffffffffffffffffffffff16021790555050503373ffffffffffffffffffffffffffffffffffffffff16847fd3c0e07c40699ed71a80ac6b98d76b94cde4900e3765fec5612317e8d54cf7b4856040516110d59190612dd4565b60405180910390a350505050565b600073ffffffffffffffffffffffffffffffffffffffff168273ffffffffffffffffffffffffffffffffffffffff16036111555760006040517f64a0ae9200000000000000000000000000000000000000000000000000000000815260040161114c9190612e37565b60405180910390fd5b60006111698383611164611af8565b611b12565b90508373ffffffffffffffffffffffffffffffffffffffff168173ffffffffffffffffffffffffffffffffffffffff16146111df578382826040517f64283d7b0000000000000000000000000000000000000000000000000000000081526004016111d693929190613d89565b60405180910390fd5b50505050565b611200838383604051806020016040528060008152506113b7565b505050565b600061121082611a33565b9050919050565b60008073ffffffffffffffffffffffffffffffffffffffff168273ffffffffffffffffffffffffffffffffffffffff160361128a5760006040517f89c62b640000000000000000000000000000000000000000000000000000000081526004016112819190612e37565b60405180910390fd5b600460008373ffffffffffffffffffffffffffffffffffffffff1673ffffffffffffffffffffffffffffffffffffffff168152602001908152602001600020549050919050565b6112d9611d2c565b6112e36000611db3565b565b6000600860009054906101000a900473ffffffffffffffffffffffffffffffffffffffff16905090565b60606002805461131e90613619565b80601f016020809104026020016040519081016040528092919081815260200182805461134a90613619565b80156113975780601f1061136c57610100808354040283529160200191611397565b820191906000526020600020905b81548152906001019060200180831161137a57829003601f168201915b5050505050905090565b6113b36113ac611af8565b8383611e79565b5050565b6113c28484846110e3565b6113ce84848484611fe8565b50505050565b81600c600082815260200190815260200160002060009054906101000a900473ffffffffffffffffffffffffffffffffffffffff1673ffffffffffffffffffffffffffffffffffffffff163373ffffffffffffffffffffffffffffffffffffffff1614611476576040517f08c379a000000000000000000000000000000000000000000000000000000000815260040161146d90613e32565b60405180910390fd5b6000600b600085815260200190815260200160002090508060050160009054906101000a900460ff16156114df576040517f08c379a00000000000000000000000000000000000000000000000000000000081526004016114d690613a59565b60405180910390fd5b600a6000858152602001908152602001600020805490508310611537576040517f08c379a000000000000000000000000000000000000000000000000000000000815260040161152e90613e9e565b60405180910390fd5b6000600a6000868152602001908152602001600020848154811061155e5761155d6138f2565b5b90600052602060002090600202019050816003018160010160009054906101000a900473ffffffffffffffffffffffffffffffffffffffff169080600181540180825580915050600190039060005260206000200160009091909190916101000a81548173ffffffffffffffffffffffffffffffffffffffff021916908373ffffffffffffffffffffffffffffffffffffffff16021790555081600401816000019080600181540180825580915050600190039060005260206000200160009091909190915090816116309190613ee9565b508060010160009054906101000a900473ffffffffffffffffffffffffffffffffffffffff1673ffffffffffffffffffffffffffffffffffffffff163373ffffffffffffffffffffffffffffffffffffffff16867f254370b4e93e5f7d1eaaafb6e20e26890577db5f41157b0839baa106b03fc1d9846000016040516116b69190614055565b60405180910390a46001600a6000878152602001908152602001600020805490506116e19190613921565b8410156117f057600a60008681526020019081526020016000206001600a60008881526020019081526020016000208054905061171e9190613921565b8154811061172f5761172e6138f2565b5b9060005260206000209060020201600a60008781526020019081526020016000208581548110611762576117616138f2565b5b906000526020600020906002020160008201816000019081611784919061408d565b506001820160009054906101000a900473ffffffffffffffffffffffffffffffffffffffff168160010160006101000a81548173ffffffffffffffffffffffffffffffffffffffff021916908373ffffffffffffffffffffffffffffffffffffffff1602179055509050505b600a600086815260200190815260200160002080548061181357611812614175565b5b6001900381819060005260206000209060020201600080820160006118389190612bb5565b6001820160006101000a81549073ffffffffffffffffffffffffffffffffffffffff0219169055505090555050505050565b60606118758261219f565b9050919050565b611884611d2c565b600060096000815480929190611899906141a4565b9190505590506118a983826122b2565b6118b381836122d0565b505050565b6000600660008473ffffffffffffffffffffffffffffffffffffffff1673ffffffffffffffffffffffffffffffffffffffff16815260200190815260200160002060008373ffffffffffffffffffffffffffffffffffffffff1673ffffffffffffffffffffffffffffffffffffffff16815260200190815260200160002060009054906101000a900460ff16905092915050565b611954611d2c565b600073ffffffffffffffffffffffffffffffffffffffff168173ffffffffffffffffffffffffffffffffffffffff16036119c65760006040517f1e4fbdf70000000000000000000000000000000000000000000000000000000081526004016119bd9190612e37565b60405180910390fd5b6119cf81611db3565b50565b6000634906490660e01b7bffffffffffffffffffffffffffffffffffffffffffffffffffffffff1916827bffffffffffffffffffffffffffffffffffffffffffffffffffffffff19161480611a2c5750611a2b8261232c565b5b9050919050565b600080611a3f8361240e565b9050600073ffffffffffffffffffffffffffffffffffffffff168173ffffffffffffffffffffffffffffffffffffffff1603611ab257826040517f7e273289000000000000000000000000000000000000000000000000000000008152600401611aa991906130de565b60405180910390fd5b80915050919050565b60006005600083815260200190815260200160002060009054906101000a900473ffffffffffffffffffffffffffffffffffffffff169050919050565b600033905090565b611b0d838383600161244b565b505050565b600080611b1e8461240e565b9050600073ffffffffffffffffffffffffffffffffffffffff168373ffffffffffffffffffffffffffffffffffffffff1614611b6057611b5f818486612610565b5b600073ffffffffffffffffffffffffffffffffffffffff168173ffffffffffffffffffffffffffffffffffffffff1614611bf157611ba260008560008061244b565b6001600460008373ffffffffffffffffffffffffffffffffffffffff1673ffffffffffffffffffffffffffffffffffffffff168152602001908152602001600020600082825403925050819055505b600073ffffffffffffffffffffffffffffffffffffffff168573ffffffffffffffffffffffffffffffffffffffff1614611c74576001600460008773ffffffffffffffffffffffffffffffffffffffff1673ffffffffffffffffffffffffffffffffffffffff168152602001908152602001600020600082825401925050819055505b846003600086815260200190815260200160002060006101000a81548173ffffffffffffffffffffffffffffffffffffffff021916908373ffffffffffffffffffffffffffffffffffffffff160217905550838573ffffffffffffffffffffffffffffffffffffffff168273ffffffffffffffffffffffffffffffffffffffff167fddf252ad1be2c89b69c2b068fc378daa952ba7f163c4a11628f55a4df523b3ef60405160405180910390a4809150509392505050565b611d34611af8565b73ffffffffffffffffffffffffffffffffffffffff16611d526112e5565b73ffffffffffffffffffffffffffffffffffffffff1614611db157611d75611af8565b6040517f118cdaa7000000000000000000000000000000000000000000000000000000008152600401611da89190612e37565b60405180910390fd5b565b6000600860009054906101000a900473ffffffffffffffffffffffffffffffffffffffff16905081600860006101000a81548173ffffffffffffffffffffffffffffffffffffffff021916908373ffffffffffffffffffffffffffffffffffffffff1602179055508173ffffffffffffffffffffffffffffffffffffffff168173ffffffffffffffffffffffffffffffffffffffff167f8be0079c531659141344cd1fd0a4f28419497f9722a3daafe3b4186f6b6457e060405160405180910390a35050565b600073ffffffffffffffffffffffffffffffffffffffff168273ffffffffffffffffffffffffffffffffffffffff1603611eea57816040517f5b08ba18000000000000000000000000000000000000000000000000000000008152600401611ee19190612e37565b60405180910390fd5b80600660008573ffffffffffffffffffffffffffffffffffffffff1673ffffffffffffffffffffffffffffffffffffffff16815260200190815260200160002060008473ffffffffffffffffffffffffffffffffffffffff1673ffffffffffffffffffffffffffffffffffffffff16815260200190815260200160002060006101000a81548160ff0219169083151502179055508173ffffffffffffffffffffffffffffffffffffffff168373ffffffffffffffffffffffffffffffffffffffff167f17307eab39ab6107e8899845ad3d59bd9653f200f220920489ca2b5937696c3183604051611fdb9190612d29565b60405180910390a3505050565b60008373ffffffffffffffffffffffffffffffffffffffff163b1115612199578273ffffffffffffffffffffffffffffffffffffffff1663150b7a0261202c611af8565b8685856040518563ffffffff1660e01b815260040161204e9493929190614241565b6020604051808303816000875af192505050801561208a57506040513d601f19601f8201168201806040525081019061208791906142a2565b60015b61210e573d80600081146120ba576040519150601f19603f3d011682016040523d82523d6000602084013e6120bf565b606091505b50600081510361210657836040517f64a0ae920000000000000000000000000000000000000000000000000000000081526004016120fd9190612e37565b60405180910390fd5b805181602001fd5b63150b7a0260e01b7bffffffffffffffffffffffffffffffffffffffffffffffffffffffff1916817bffffffffffffffffffffffffffffffffffffffffffffffffffffffff19161461219757836040517f64a0ae9200000000000000000000000000000000000000000000000000000000815260040161218e9190612e37565b60405180910390fd5b505b50505050565b60606121aa82611a33565b5060006007600084815260200190815260200160002080546121cb90613619565b80601f01602080910402602001604051908101604052809291908181526020018280546121f790613619565b80156122445780601f1061221957610100808354040283529160200191612244565b820191906000526020600020905b81548152906001019060200180831161222757829003601f168201915b5050505050905060006122556126d4565b9050600081510361226a5781925050506122ad565b60008251111561229f57808260405160200161228792919061430b565b604051602081830303815290604052925050506122ad565b6122a8846126eb565b925050505b919050565b6122cc828260405180602001604052806000815250612754565b5050565b806007600084815260200190815260200160002090816122f09190613cb7565b507ff8e1a15aba9398e019f0b49df1a4fde98ee17ae345cb5f6b5e2c27f5033e8ce78260405161232091906130de565b60405180910390a15050565b60007f80ac58cd000000000000000000000000000000000000000000000000000000007bffffffffffffffffffffffffffffffffffffffffffffffffffffffff1916827bffffffffffffffffffffffffffffffffffffffffffffffffffffffff191614806123f757507f5b5e139f000000000000000000000000000000000000000000000000000000007bffffffffffffffffffffffffffffffffffffffffffffffffffffffff1916827bffffffffffffffffffffffffffffffffffffffffffffffffffffffff1916145b80612407575061240682612770565b5b9050919050565b60006003600083815260200190815260200160002060009054906101000a900473ffffffffffffffffffffffffffffffffffffffff169050919050565b80806124845750600073ffffffffffffffffffffffffffffffffffffffff168273ffffffffffffffffffffffffffffffffffffffff1614155b156125b857600061249484611a33565b9050600073ffffffffffffffffffffffffffffffffffffffff168373ffffffffffffffffffffffffffffffffffffffff16141580156124ff57508273ffffffffffffffffffffffffffffffffffffffff168173ffffffffffffffffffffffffffffffffffffffff1614155b8015612512575061251081846118b8565b155b1561255457826040517fa9fbf51f00000000000000000000000000000000000000000000000000000000815260040161254b9190612e37565b60405180910390fd5b81156125b657838573ffffffffffffffffffffffffffffffffffffffff168273ffffffffffffffffffffffffffffffffffffffff167f8c5be1e5ebec7d5bd14f71427d1e84f3dd0314c0f7b2291e5b200ac8c7c3b92560405160405180910390a45b505b836005600085815260200190815260200160002060006101000a81548173ffffffffffffffffffffffffffffffffffffffff021916908373ffffffffffffffffffffffffffffffffffffffff16021790555050505050565b61261b8383836127da565b6126cf57600073ffffffffffffffffffffffffffffffffffffffff168373ffffffffffffffffffffffffffffffffffffffff160361269057806040517f7e27328900000000000000000000000000000000000000000000000000000000815260040161268791906130de565b60405180910390fd5b81816040517f177e802f0000000000000000000000000000000000000000000000000000000081526004016126c692919061432f565b60405180910390fd5b505050565b606060405180602001604052806000815250905090565b60606126f682611a33565b5060006127016126d4565b90506000815111612721576040518060200160405280600081525061274c565b8061272b8461289b565b60405160200161273c92919061430b565b6040516020818303038152906040525b915050919050565b61275e8383612969565b61276b6000848484611fe8565b505050565b60007f01ffc9a7000000000000000000000000000000000000000000000000000000007bffffffffffffffffffffffffffffffffffffffffffffffffffffffff1916827bffffffffffffffffffffffffffffffffffffffffffffffffffffffff1916149050919050565b60008073ffffffffffffffffffffffffffffffffffffffff168373ffffffffffffffffffffffffffffffffffffffff161415801561289257508273ffffffffffffffffffffffffffffffffffffffff168473ffffffffffffffffffffffffffffffffffffffff161480612853575061285284846118b8565b5b8061289157508273ffffffffffffffffffffffffffffffffffffffff1661287983611abb565b73ffffffffffffffffffffffffffffffffffffffff16145b5b90509392505050565b6060600060016128aa84612a62565b01905060008167ffffffffffffffff8111156128c9576128c8612ec8565b5b6040519080825280601f01601f1916602001820160405280156128fb5781602001600182028036833780820191505090505b509050600082602001820190505b60011561295e578080600190039150507f3031323334353637383961626364656600000000000000000000000000000000600a86061a8153600a858161295257612951613892565b5b04945060008503612909575b819350505050919050565b600073ffffffffffffffffffffffffffffffffffffffff168273ffffffffffffffffffffffffffffffffffffffff16036129db5760006040517f64a0ae920000000000000000000000000000000000000000000000000000000081526004016129d29190612e37565b60405180910390fd5b60006129e983836000611b12565b9050600073ffffffffffffffffffffffffffffffffffffffff168173ffffffffffffffffffffffffffffffffffffffff1614612a5d5760006040517f73c6ac6e000000000000000000000000000000000000000000000000000000008152600401612a549190612e37565b60405180910390fd5b505050565b600080600090507a184f03e93ff9f4daa797ed6e38ed64bf6a1f0100000000000000008310612ac0577a184f03e93ff9f4daa797ed6e38ed64bf6a1f0100000000000000008381612ab657612ab5613892565b5b0492506040810190505b6d04ee2d6d415b85acef81000000008310612afd576d04ee2d6d415b85acef81000000008381612af357612af2613892565b5b0492506020810190505b662386f26fc100008310612b2c57662386f26fc100008381612b2257612b21613892565b5b0492506010810190505b6305f5e1008310612b55576305f5e1008381612b4b57612b4a613892565b5b0492506008810190505b6127108310612b7a576127108381612b7057612b6f613892565b5b0492506004810190505b60648310612b9d5760648381612b9357612b92613892565b5b0492506002810190505b600a8310612bac576001810190505b80915050919050565b508054612bc190613619565b6000825580601f10612bd35750612bf2565b601f016020900490600052602060002090810190612bf19190612bf5565b5b50565b5b80821115612c0e576000816000905550600101612bf6565b5090565b6000604051905090565b600080fd5b600080fd5b6000819050919050565b612c3981612c26565b8114612c4457600080fd5b50565b600081359050612c5681612c30565b92915050565b600060208284031215612c7257612c71612c1c565b5b6000612c8084828501612c47565b91505092915050565b60007fffffffff0000000000000000000000000000000000000000000000000000000082169050919050565b612cbe81612c89565b8114612cc957600080fd5b50565b600081359050612cdb81612cb5565b92915050565b600060208284031215612cf757612cf6612c1c565b5b6000612d0584828501612ccc565b91505092915050565b60008115159050919050565b612d2381612d0e565b82525050565b6000602082019050612d3e6000830184612d1a565b92915050565b600081519050919050565b600082825260208201905092915050565b60005b83811015612d7e578082015181840152602081019050612d63565b60008484015250505050565b6000601f19601f8301169050919050565b6000612da682612d44565b612db08185612d4f565b9350612dc0818560208601612d60565b612dc981612d8a565b840191505092915050565b60006020820190508181036000830152612dee8184612d9b565b905092915050565b600073ffffffffffffffffffffffffffffffffffffffff82169050919050565b6000612e2182612df6565b9050919050565b612e3181612e16565b82525050565b6000602082019050612e4c6000830184612e28565b92915050565b612e5b81612e16565b8114612e6657600080fd5b50565b600081359050612e7881612e52565b92915050565b60008060408385031215612e9557612e94612c1c565b5b6000612ea385828601612e69565b9250506020612eb485828601612c47565b9150509250929050565b600080fd5b600080fd5b7f4e487b7100000000000000000000000000000000000000000000000000000000600052604160045260246000fd5b612f0082612d8a565b810181811067ffffffffffffffff82111715612f1f57612f1e612ec8565b5b80604052505050565b6000612f32612c12565b9050612f3e8282612ef7565b919050565b600067ffffffffffffffff821115612f5e57612f5d612ec8565b5b612f6782612d8a565b9050602081019050919050565b82818337600083830152505050565b6000612f96612f9184612f43565b612f28565b905082815260208101848484011115612fb257612fb1612ec3565b5b612fbd848285612f74565b509392505050565b600082601f830112612fda57612fd9612ebe565b5b8135612fea848260208601612f83565b91505092915050565b6000806040838503121561300a57613009612c1c565b5b600061301885828601612c47565b925050602083013567ffffffffffffffff81111561303957613038612c21565b5b61304585828601612fc5565b9150509250929050565b60008060006060848603121561306857613067612c1c565b5b600061307686828701612e69565b935050602061308786828701612e69565b925050604061309886828701612c47565b9150509250925092565b6000602082840312156130b8576130b7612c1c565b5b60006130c684828501612e69565b91505092915050565b6130d881612c26565b82525050565b60006020820190506130f360008301846130cf565b92915050565b61310281612d0e565b811461310d57600080fd5b50565b60008135905061311f816130f9565b92915050565b6000806040838503121561313c5761313b612c1c565b5b600061314a85828601612e69565b925050602061315b85828601613110565b9150509250929050565b600067ffffffffffffffff8211156131805761317f612ec8565b5b61318982612d8a565b9050602081019050919050565b60006131a96131a484613165565b612f28565b9050828152602081018484840111156131c5576131c4612ec3565b5b6131d0848285612f74565b509392505050565b600082601f8301126131ed576131ec612ebe565b5b81356131fd848260208601613196565b91505092915050565b600080600080608085870312156132205761321f612c1c565b5b600061322e87828801612e69565b945050602061323f87828801612e69565b935050604061325087828801612c47565b925050606085013567ffffffffffffffff81111561327157613270612c21565b5b61327d878288016131d8565b91505092959194509250565b600080604083850312156132a05761329f612c1c565b5b60006132ae85828601612c47565b92505060206132bf85828601612c47565b9150509250929050565b600080604083850312156132e0576132df612c1c565b5b60006132ee85828601612e69565b925050602083013567ffffffffffffffff81111561330f5761330e612c21565b5b61331b85828601612fc5565b9150509250929050565b6000806040838503121561333c5761333b612c1c565b5b600061334a85828601612e69565b925050602061335b85828601612e69565b9150509250929050565b7f496e76616c696420706170657249640000000000000000000000000000000000600082015250565b600061339b600f83612d4f565b91506133a682613365565b602082019050919050565b600060208201905081810360008301526133ca8161338e565b9050919050565b7f5265736561726368207061706572206973206e6f7420617661696c61626c652060008201527f666f722066756e64696e67000000000000000000000000000000000000000000602082015250565b600061342d602b83612d4f565b9150613438826133d1565b604082019050919050565b6000602082019050818103600083015261345c81613420565b9050919050565b7f526573656172636820706170657220697320636f6d706c6574656420736f206e60008201527f6f206d6f7265206e65656420666f722066756e64696e67000000000000000000602082015250565b60006134bf603783612d4f565b91506134ca82613463565b604082019050919050565b600060208201905081810360008301526134ee816134b2565b9050919050565b7f46756e64696e6720616d6f756e74206d7573742062652067726561746572207460008201527f68616e207a65726f000000000000000000000000000000000000000000000000602082015250565b6000613551602883612d4f565b915061355c826134f5565b604082019050919050565b6000602082019050818103600083015261358081613544565b9050919050565b7f4e487b7100000000000000000000000000000000000000000000000000000000600052601160045260246000fd5b60006135c182612c26565b91506135cc83612c26565b92508282019050808211156135e4576135e3613587565b5b92915050565b7f4e487b7100000000000000000000000000000000000000000000000000000000600052602260045260246000fd5b6000600282049050600182168061363157607f821691505b602082108103613644576136436135ea565b5b50919050565b7f416c7265616479207265676973746572656420617320612044414f206d656d6260008201527f6572000000000000000000000000000000000000000000000000000000000000602082015250565b60006136a6602283612d4f565b91506136b18261364a565b604082019050919050565b600060208201905081810360008301526136d581613699565b9050919050565b7f596f7520617265206e6f74207468652075706c6f61646572206f66207468697360008201527f2072657365617263682070617065720000000000000000000000000000000000602082015250565b6000613738602f83612d4f565b9150613743826136dc565b604082019050919050565b600060208201905081810360008301526137678161372b565b9050919050565b7f526573656172636820706170657220697320616c726561647920636f6d706c6560008201527f7465640000000000000000000000000000000000000000000000000000000000602082015250565b60006137ca602383612d4f565b91506137d58261376e565b604082019050919050565b600060208201905081810360008301526137f9816137bd565b9050919050565b7f4e6f2066756e647320617661696c61626c6520666f722077697468647261776160008201527f6c00000000000000000000000000000000000000000000000000000000000000602082015250565b600061385c602183612d4f565b915061386782613800565b604082019050919050565b6000602082019050818103600083015261388b8161384f565b9050919050565b7f4e487b7100000000000000000000000000000000000000000000000000000000600052601260045260246000fd5b60006138cc82612c26565b91506138d783612c26565b9250826138e7576138e6613892565b5b828204905092915050565b7f4e487b7100000000000000000000000000000000000000000000000000000000600052603260045260246000fd5b600061392c82612c26565b915061393783612c26565b925082820390508181111561394f5761394e613587565b5b92915050565b7f596f75206d757374206265206120726567697374657265642044414f206d656d60008201527f6265720000000000000000000000000000000000000000000000000000000000602082015250565b60006139b1602383612d4f565b91506139bc82613955565b604082019050919050565b600060208201905081810360008301526139e0816139a4565b9050919050565b7f5265736561726368207061706572206973206e6f7420617661696c61626c652060008201527f666f7220636f6e747269627574696f6e73000000000000000000000000000000602082015250565b6000613a43603183612d4f565b9150613a4e826139e7565b604082019050919050565b60006020820190508181036000830152613a7281613a36565b9050919050565b7f55706c6f616465722063616e6e6f74207265717565737420636f6e747269627560008201527f74696f6e20746f207468656972206f776e207061706572000000000000000000602082015250565b6000613ad5603783612d4f565b9150613ae082613a79565b604082019050919050565b60006020820190508181036000830152613b0481613ac8565b9050919050565b60008190508160005260206000209050919050565b60006020601f8301049050919050565b600082821b905092915050565b600060088302613b6d7fffffffffffffffffffffffffffffffffffffffffffffffffffffffffffffffff82613b30565b613b778683613b30565b95508019841693508086168417925050509392505050565b6000819050919050565b6000613bb4613baf613baa84612c26565b613b8f565b612c26565b9050919050565b6000819050919050565b613bce83613b99565b613be2613bda82613bbb565b848454613b3d565b825550505050565b600090565b613bf7613bea565b613c02818484613bc5565b505050565b5b81811015613c2657613c1b600082613bef565b600181019050613c08565b5050565b601f821115613c6b57613c3c81613b0b565b613c4584613b20565b81016020851015613c54578190505b613c68613c6085613b20565b830182613c07565b50505b505050565b600082821c905092915050565b6000613c8e60001984600802613c70565b1980831691505092915050565b6000613ca78383613c7d565b9150826002028217905092915050565b613cc082612d44565b67ffffffffffffffff811115613cd957613cd8612ec8565b5b613ce38254613619565b613cee828285613c2a565b600060209050601f831160018114613d215760008415613d0f578287015190505b613d198582613c9b565b865550613d81565b601f198416613d2f86613b0b565b60005b82811015613d5757848901518255600182019150602085019450602081019050613d32565b86831015613d745784890151613d70601f891682613c7d565b8355505b6001600288020188555050505b505050505050565b6000606082019050613d9e6000830186612e28565b613dab60208301856130cf565b613db86040830184612e28565b949350505050565b7f596f7520646f6e2774206f776e2074686973207265736561726368207061706560008201527f7200000000000000000000000000000000000000000000000000000000000000602082015250565b6000613e1c602183612d4f565b9150613e2782613dc0565b604082019050919050565b60006020820190508181036000830152613e4b81613e0f565b9050919050565b7f496e76616c696420636f6e747269627574696f6e20696e646578000000000000600082015250565b6000613e88601a83612d4f565b9150613e9382613e52565b602082019050919050565b60006020820190508181036000830152613eb781613e7b565b9050919050565b600081549050613ecd81613619565b9050919050565b60008190508160005260206000209050919050565b818103613ef7575050613fcf565b613f0082613ebe565b67ffffffffffffffff811115613f1957613f18612ec8565b5b613f238254613619565b613f2e828285613c2a565b6000601f831160018114613f5d5760008415613f4b578287015490505b613f558582613c9b565b865550613fc8565b601f198416613f6b87613ed4565b9650613f7686613b0b565b60005b82811015613f9e57848901548255600182019150600185019450602081019050613f79565b86831015613fbb5784890154613fb7601f891682613c7d565b8355505b6001600288020188555050505b5050505050505b565b60008154613fde81613619565b613fe88186612d4f565b9450600182166000811461400357600181146140195761404c565b60ff19831686528115156020028601935061404c565b61402285613b0b565b60005b8381101561404457815481890152600182019150602081019050614025565b808801955050505b50505092915050565b6000602082019050818103600083015261406f8184613fd1565b905092915050565b60008154905061408681613619565b9050919050565b81810361409b575050614173565b6140a482614077565b67ffffffffffffffff8111156140bd576140bc612ec8565b5b6140c78254613619565b6140d2828285613c2a565b6000601f83116001811461410157600084156140ef578287015490505b6140f98582613c9b565b86555061416c565b601f19841661410f87613b0b565b965061411a86613b0b565b60005b828110156141425784890154825560018201915060018501945060208101905061411d565b8683101561415f578489015461415b601f891682613c7d565b8355505b6001600288020188555050505b5050505050505b565b7f4e487b7100000000000000000000000000000000000000000000000000000000600052603160045260246000fd5b60006141af82612c26565b91507fffffffffffffffffffffffffffffffffffffffffffffffffffffffffffffffff82036141e1576141e0613587565b5b600182019050919050565b600081519050919050565b600082825260208201905092915050565b6000614213826141ec565b61421d81856141f7565b935061422d818560208601612d60565b61423681612d8a565b840191505092915050565b60006080820190506142566000830187612e28565b6142636020830186612e28565b61427060408301856130cf565b81810360608301526142828184614208565b905095945050505050565b60008151905061429c81612cb5565b92915050565b6000602082840312156142b8576142b7612c1c565b5b60006142c68482850161428d565b91505092915050565b600081905092915050565b60006142e582612d44565b6142ef81856142cf565b93506142ff818560208601612d60565b80840191505092915050565b600061431782856142da565b915061432382846142da565b91508190509392505050565b60006040820190506143446000830185612e28565b61435160208301846130cf565b939250505056fea2646970667358221220091d0752eda5f20e3bdb30780e29baa74f6b16f237dea772b858dc986628ca9364736f6c63430008180033",
  "linkReferences": {},
  "deployedLinkReferences": {}
}