{
  "_format": "hh-sol-artifact-1",
  "contractName": "SciWeave",
  "sourceName": "contracts/SciWeave.sol",
  "abi": [
    {
      "inputs": [
        {
          "internalType": "address",
          "name": "sender",
          "type": "address"
        },
        {
          "internalType": "uint256",
          "name": "tokenId",
          "type": "uint256"
        },
        {
          "internalType": "address",
          "name": "owner",
          "type": "address"
        }
      ],
      "name": "ERC721IncorrectOwner",
      "type": "error"
    },
    {
      "inputs": [
        {
          "internalType": "address",
          "name": "operator",
          "type": "address"
        },
        {
          "internalType": "uint256",
          "name": "tokenId",
          "type": "uint256"
        }
      ],
      "name": "ERC721InsufficientApproval",
      "type": "error"
    },
    {
      "inputs": [
        {
          "internalType": "address",
          "name": "approver",
          "type": "address"
        }
      ],
      "name": "ERC721InvalidApprover",
      "type": "error"
    },
    {
      "inputs": [
        {
          "internalType": "address",
          "name": "operator",
          "type": "address"
        }
      ],
      "name": "ERC721InvalidOperator",
      "type": "error"
    },
    {
      "inputs": [
        {
          "internalType": "address",
          "name": "owner",
          "type": "address"
        }
      ],
      "name": "ERC721InvalidOwner",
      "type": "error"
    },
    {
      "inputs": [
        {
          "internalType": "address",
          "name": "receiver",
          "type": "address"
        }
      ],
      "name": "ERC721InvalidReceiver",
      "type": "error"
    },
    {
      "inputs": [
        {
          "internalType": "address",
          "name": "sender",
          "type": "address"
        }
      ],
      "name": "ERC721InvalidSender",
      "type": "error"
    },
    {
      "inputs": [
        {
          "internalType": "uint256",
          "name": "tokenId",
          "type": "uint256"
        }
      ],
      "name": "ERC721NonexistentToken",
      "type": "error"
    },
    {
      "inputs": [
        {
          "internalType": "address",
          "name": "owner",
          "type": "address"
        }
      ],
      "name": "OwnableInvalidOwner",
      "type": "error"
    },
    {
      "inputs": [
        {
          "internalType": "address",
          "name": "account",
          "type": "address"
        }
      ],
      "name": "OwnableUnauthorizedAccount",
      "type": "error"
    },
    {
      "anonymous": false,
      "inputs": [
        {
          "indexed": true,
          "internalType": "address",
          "name": "owner",
          "type": "address"
        },
        {
          "indexed": true,
          "internalType": "address",
          "name": "approved",
          "type": "address"
        },
        {
          "indexed": true,
          "internalType": "uint256",
          "name": "tokenId",
          "type": "uint256"
        }
      ],
      "name": "Approval",
      "type": "event"
    },
    {
      "anonymous": false,
      "inputs": [
        {
          "indexed": true,
          "internalType": "address",
          "name": "owner",
          "type": "address"
        },
        {
          "indexed": true,
          "internalType": "address",
          "name": "operator",
          "type": "address"
        },
        {
          "indexed": false,
          "internalType": "bool",
          "name": "approved",
          "type": "bool"
        }
      ],
      "name": "ApprovalForAll",
      "type": "event"
    },
    {
      "anonymous": false,
      "inputs": [
        {
          "indexed": false,
          "internalType": "uint256",
          "name": "_fromTokenId",
          "type": "uint256"
        },
        {
          "indexed": false,
          "internalType": "uint256",
          "name": "_toTokenId",
          "type": "uint256"
        }
      ],
      "name": "BatchMetadataUpdate",
      "type": "event"
    },
    {
      "anonymous": false,
      "inputs": [
        {
          "indexed": true,
          "internalType": "uint256",
          "name": "paperId",
          "type": "uint256"
        },
        {
          "indexed": true,
          "internalType": "address",
          "name": "uploader",
          "type": "address"
        },
        {
          "indexed": true,
          "internalType": "address",
          "name": "contributor",
          "type": "address"
        },
        {
          "indexed": false,
          "internalType": "string",
          "name": "ipfsHash",
          "type": "string"
        }
      ],
      "name": "ContributionAccepted",
      "type": "event"
    },
    {
      "anonymous": false,
      "inputs": [
        {
          "indexed": true,
          "internalType": "uint256",
          "name": "paperId",
          "type": "uint256"
        },
        {
          "indexed": true,
          "internalType": "address",
          "name": "contributor",
          "type": "address"
        },
        {
          "indexed": false,
          "internalType": "string",
          "name": "ipfsHash",
          "type": "string"
        }
      ],
      "name": "ContributionRequested",
      "type": "event"
    },
    {
      "anonymous": false,
      "inputs": [
        {
          "indexed": true,
          "internalType": "uint256",
          "name": "paperId",
          "type": "uint256"
        },
        {
          "indexed": true,
          "internalType": "address",
          "name": "uploader",
          "type": "address"
        },
        {
          "indexed": false,
          "internalType": "uint256",
          "name": "amount",
          "type": "uint256"
        }
      ],
      "name": "FundsWithdrawn",
      "type": "event"
    },
    {
      "anonymous": false,
      "inputs": [
        {
          "indexed": false,
          "internalType": "uint256",
          "name": "_tokenId",
          "type": "uint256"
        }
      ],
      "name": "MetadataUpdate",
      "type": "event"
    },
    {
      "anonymous": false,
      "inputs": [
        {
          "indexed": true,
          "internalType": "address",
          "name": "previousOwner",
          "type": "address"
        },
        {
          "indexed": true,
          "internalType": "address",
          "name": "newOwner",
          "type": "address"
        }
      ],
      "name": "OwnershipTransferred",
      "type": "event"
    },
    {
      "anonymous": false,
      "inputs": [
        {
          "indexed": true,
          "internalType": "uint256",
          "name": "paperId",
          "type": "uint256"
        },
        {
          "indexed": true,
          "internalType": "address",
          "name": "investor",
          "type": "address"
        },
        {
          "indexed": false,
          "internalType": "uint256",
          "name": "amount",
          "type": "uint256"
        }
      ],
      "name": "ResearchPaperFunded",
      "type": "event"
    },
    {
      "anonymous": false,
      "inputs": [
        {
          "indexed": true,
          "internalType": "uint256",
          "name": "paperId",
          "type": "uint256"
        },
        {
          "indexed": true,
          "internalType": "address",
          "name": "reviewer",
          "type": "address"
        },
        {
          "indexed": false,
          "internalType": "uint8",
          "name": "score",
          "type": "uint8"
        },
        {
          "indexed": false,
          "internalType": "string",
          "name": "feedback",
          "type": "string"
        }
      ],
      "name": "ResearchPaperPeerReviewed",
      "type": "event"
    },
    {
      "anonymous": false,
      "inputs": [
        {
          "indexed": true,
          "internalType": "uint256",
          "name": "paperId",
          "type": "uint256"
        }
      ],
      "name": "ResearchPaperPublished",
      "type": "event"
    },
    {
      "anonymous": false,
      "inputs": [
        {
          "indexed": true,
          "internalType": "uint256",
          "name": "paperId",
          "type": "uint256"
        },
        {
          "indexed": true,
          "internalType": "address",
          "name": "buyer",
          "type": "address"
        }
      ],
      "name": "ResearchPaperPurchased",
      "type": "event"
    },
    {
      "anonymous": false,
      "inputs": [
        {
          "indexed": true,
          "internalType": "uint256",
          "name": "paperId",
          "type": "uint256"
        },
        {
          "indexed": true,
          "internalType": "address",
          "name": "uploader",
          "type": "address"
        },
        {
          "indexed": false,
          "internalType": "string",
          "name": "ipfsHash",
          "type": "string"
        }
      ],
      "name": "ResearchPaperUploaded",
      "type": "event"
    },
    {
      "anonymous": false,
      "inputs": [
        {
          "indexed": true,
          "internalType": "address",
          "name": "scientist",
          "type": "address"
        }
      ],
      "name": "ScientistRegistered",
      "type": "event"
    },
    {
      "anonymous": false,
      "inputs": [
        {
          "indexed": true,
          "internalType": "address",
          "name": "from",
          "type": "address"
        },
        {
          "indexed": true,
          "internalType": "address",
          "name": "to",
          "type": "address"
        },
        {
          "indexed": true,
          "internalType": "uint256",
          "name": "tokenId",
          "type": "uint256"
        }
      ],
      "name": "Transfer",
      "type": "event"
    },
    {
      "inputs": [
        {
          "internalType": "uint256",
          "name": "paperId",
          "type": "uint256"
        },
        {
          "internalType": "uint256",
          "name": "contributionIndex",
          "type": "uint256"
        }
      ],
      "name": "acceptContribution",
      "outputs": [],
      "stateMutability": "nonpayable",
      "type": "function"
    },
    {
      "inputs": [
        {
          "internalType": "uint256",
          "name": "",
          "type": "uint256"
        }
      ],
      "name": "allPaperIds",
      "outputs": [
        {
          "internalType": "uint256",
          "name": "",
          "type": "uint256"
        }
      ],
      "stateMutability": "view",
      "type": "function"
    },
    {
      "inputs": [
        {
          "internalType": "address",
          "name": "to",
          "type": "address"
        },
        {
          "internalType": "uint256",
          "name": "tokenId",
          "type": "uint256"
        }
      ],
      "name": "approve",
      "outputs": [],
      "stateMutability": "nonpayable",
      "type": "function"
    },
    {
      "inputs": [
        {
          "internalType": "address",
          "name": "owner",
          "type": "address"
        }
      ],
      "name": "balanceOf",
      "outputs": [
        {
          "internalType": "uint256",
          "name": "",
          "type": "uint256"
        }
      ],
      "stateMutability": "view",
      "type": "function"
    },
    {
      "inputs": [
        {
          "internalType": "uint256",
          "name": "paperId",
          "type": "uint256"
        }
      ],
      "name": "fundResearchPaper",
      "outputs": [],
      "stateMutability": "payable",
      "type": "function"
    },
    {
      "inputs": [],
      "name": "getAllPaperIds",
      "outputs": [
        {
          "internalType": "uint256[]",
          "name": "",
          "type": "uint256[]"
        }
      ],
      "stateMutability": "view",
      "type": "function"
    },
    {
      "inputs": [],
      "name": "getAllResearchPapersByAddress",
      "outputs": [
        {
          "internalType": "uint256[]",
          "name": "paperIds",
          "type": "uint256[]"
        }
      ],
      "stateMutability": "view",
      "type": "function"
    },
    {
      "inputs": [
        {
          "internalType": "uint256",
          "name": "tokenId",
          "type": "uint256"
        }
      ],
      "name": "getApproved",
      "outputs": [
        {
          "internalType": "address",
          "name": "",
          "type": "address"
        }
      ],
      "stateMutability": "view",
      "type": "function"
    },
    {
      "inputs": [
        {
          "internalType": "uint256",
          "name": "paperId",
          "type": "uint256"
        }
      ],
      "name": "getResearchPaperDetails",
      "outputs": [
        {
          "internalType": "string",
          "name": "name",
          "type": "string"
        },
        {
          "internalType": "string",
          "name": "description",
          "type": "string"
        },
        {
          "internalType": "address",
          "name": "uploader",
          "type": "address"
        },
        {
          "internalType": "string[]",
          "name": "ipfsHash",
          "type": "string[]"
        },
        {
          "internalType": "address[]",
          "name": "contributors",
          "type": "address[]"
        },
        {
          "internalType": "bool",
          "name": "isLocked",
          "type": "bool"
        },
        {
          "internalType": "uint256",
          "name": "totalFunding",
          "type": "uint256"
        },
        {
          "internalType": "bool",
          "name": "isCompleted",
          "type": "bool"
        },
        {
          "internalType": "uint256",
          "name": "peerReviewScores",
          "type": "uint256"
        },
        {
          "internalType": "string[]",
          "name": "feedback",
          "type": "string[]"
        },
        {
          "internalType": "uint8",
          "name": "peerReviewCount",
          "type": "uint8"
        }
      ],
      "stateMutability": "view",
      "type": "function"
    },
    {
      "inputs": [
        {
          "internalType": "address",
          "name": "owner",
          "type": "address"
        },
        {
          "internalType": "address",
          "name": "operator",
          "type": "address"
        }
      ],
      "name": "isApprovedForAll",
      "outputs": [
        {
          "internalType": "bool",
          "name": "",
          "type": "bool"
        }
      ],
      "stateMutability": "view",
      "type": "function"
    },
    {
      "inputs": [],
      "name": "name",
      "outputs": [
        {
          "internalType": "string",
          "name": "",
          "type": "string"
        }
      ],
      "stateMutability": "view",
      "type": "function"
    },
    {
      "inputs": [],
      "name": "owner",
      "outputs": [
        {
          "internalType": "address",
          "name": "",
          "type": "address"
        }
      ],
      "stateMutability": "view",
      "type": "function"
    },
    {
      "inputs": [
        {
          "internalType": "uint256",
          "name": "tokenId",
          "type": "uint256"
        }
      ],
      "name": "ownerOf",
      "outputs": [
        {
          "internalType": "address",
          "name": "",
          "type": "address"
        }
      ],
      "stateMutability": "view",
      "type": "function"
    },
    {
      "inputs": [],
      "name": "paperCounter",
      "outputs": [
        {
          "internalType": "uint256",
          "name": "",
          "type": "uint256"
        }
      ],
      "stateMutability": "view",
      "type": "function"
    },
    {
      "inputs": [
        {
          "internalType": "uint256",
          "name": "paperId",
          "type": "uint256"
        },
        {
          "internalType": "uint8",
          "name": "score",
          "type": "uint8"
        },
        {
          "internalType": "string",
          "name": "_feedback",
          "type": "string"
        }
      ],
      "name": "peerReviewResearchPaper",
      "outputs": [],
      "stateMutability": "nonpayable",
      "type": "function"
    },
    {
      "inputs": [],
      "name": "registerScientist",
      "outputs": [],
      "stateMutability": "nonpayable",
      "type": "function"
    },
    {
      "inputs": [],
      "name": "renounceOwnership",
      "outputs": [],
      "stateMutability": "nonpayable",
      "type": "function"
    },
    {
      "inputs": [
        {
          "internalType": "uint256",
          "name": "paperId",
          "type": "uint256"
        },
        {
          "internalType": "string",
          "name": "_ipfsHash",
          "type": "string"
        }
      ],
      "name": "requestToContribute",
      "outputs": [],
      "stateMutability": "nonpayable",
      "type": "function"
    },
    {
      "inputs": [
        {
          "internalType": "address",
          "name": "to",
          "type": "address"
        },
        {
          "internalType": "string",
          "name": "uri",
          "type": "string"
        }
      ],
      "name": "safeMint",
      "outputs": [],
      "stateMutability": "nonpayable",
      "type": "function"
    },
    {
      "inputs": [
        {
          "internalType": "address",
          "name": "from",
          "type": "address"
        },
        {
          "internalType": "address",
          "name": "to",
          "type": "address"
        },
        {
          "internalType": "uint256",
          "name": "tokenId",
          "type": "uint256"
        }
      ],
      "name": "safeTransferFrom",
      "outputs": [],
      "stateMutability": "nonpayable",
      "type": "function"
    },
    {
      "inputs": [
        {
          "internalType": "address",
          "name": "from",
          "type": "address"
        },
        {
          "internalType": "address",
          "name": "to",
          "type": "address"
        },
        {
          "internalType": "uint256",
          "name": "tokenId",
          "type": "uint256"
        },
        {
          "internalType": "bytes",
          "name": "data",
          "type": "bytes"
        }
      ],
      "name": "safeTransferFrom",
      "outputs": [],
      "stateMutability": "nonpayable",
      "type": "function"
    },
    {
      "inputs": [
        {
          "internalType": "address",
          "name": "operator",
          "type": "address"
        },
        {
          "internalType": "bool",
          "name": "approved",
          "type": "bool"
        }
      ],
      "name": "setApprovalForAll",
      "outputs": [],
      "stateMutability": "nonpayable",
      "type": "function"
    },
    {
      "inputs": [
        {
          "internalType": "bytes4",
          "name": "interfaceId",
          "type": "bytes4"
        }
      ],
      "name": "supportsInterface",
      "outputs": [
        {
          "internalType": "bool",
          "name": "",
          "type": "bool"
        }
      ],
      "stateMutability": "view",
      "type": "function"
    },
    {
      "inputs": [],
      "name": "symbol",
      "outputs": [
        {
          "internalType": "string",
          "name": "",
          "type": "string"
        }
      ],
      "stateMutability": "view",
      "type": "function"
    },
    {
      "inputs": [
        {
          "internalType": "uint256",
          "name": "tokenId",
          "type": "uint256"
        }
      ],
      "name": "tokenURI",
      "outputs": [
        {
          "internalType": "string",
          "name": "",
          "type": "string"
        }
      ],
      "stateMutability": "view",
      "type": "function"
    },
    {
      "inputs": [
        {
          "internalType": "address",
          "name": "from",
          "type": "address"
        },
        {
          "internalType": "address",
          "name": "to",
          "type": "address"
        },
        {
          "internalType": "uint256",
          "name": "tokenId",
          "type": "uint256"
        }
      ],
      "name": "transferFrom",
      "outputs": [],
      "stateMutability": "nonpayable",
      "type": "function"
    },
    {
      "inputs": [
        {
          "internalType": "address",
          "name": "newOwner",
          "type": "address"
        }
      ],
      "name": "transferOwnership",
      "outputs": [],
      "stateMutability": "nonpayable",
      "type": "function"
    },
    {
      "inputs": [
        {
          "internalType": "string",
          "name": "name",
          "type": "string"
        },
        {
          "internalType": "string",
          "name": "_desc",
          "type": "string"
        },
        {
          "internalType": "string",
          "name": "_ipfsHash",
          "type": "string"
        }
      ],
      "name": "uploadResearchPaper",
      "outputs": [],
      "stateMutability": "nonpayable",
      "type": "function"
    },
    {
      "inputs": [
        {
          "internalType": "uint256",
          "name": "paperId",
          "type": "uint256"
        }
      ],
      "name": "withdrawFunds",
      "outputs": [],
      "stateMutability": "nonpayable",
      "type": "function"
    }
  ],
  "bytecode": "0x60806040523480156200001157600080fd5b5033806040518060400160405280600881526020017f5363694d6564616c0000000000000000000000000000000000000000000000008152506040518060400160405280600681526020017f5343494e46540000000000000000000000000000000000000000000000000000815250816001908162000091919062000474565b508060029081620000a3919062000474565b505050600073ffffffffffffffffffffffffffffffffffffffff168173ffffffffffffffffffffffffffffffffffffffff16036200011b5760006040517f1e4fbdf7000000000000000000000000000000000000000000000000000000008152600401620001129190620005a0565b60405180910390fd5b6200012c816200013460201b60201c565b5050620005bd565b6000600860009054906101000a900473ffffffffffffffffffffffffffffffffffffffff16905081600860006101000a81548173ffffffffffffffffffffffffffffffffffffffff021916908373ffffffffffffffffffffffffffffffffffffffff1602179055508173ffffffffffffffffffffffffffffffffffffffff168173ffffffffffffffffffffffffffffffffffffffff167f8be0079c531659141344cd1fd0a4f28419497f9722a3daafe3b4186f6b6457e060405160405180910390a35050565b600081519050919050565b7f4e487b7100000000000000000000000000000000000000000000000000000000600052604160045260246000fd5b7f4e487b7100000000000000000000000000000000000000000000000000000000600052602260045260246000fd5b600060028204905060018216806200027c57607f821691505b60208210810362000292576200029162000234565b5b50919050565b60008190508160005260206000209050919050565b60006020601f8301049050919050565b600082821b905092915050565b600060088302620002fc7fffffffffffffffffffffffffffffffffffffffffffffffffffffffffffffffff82620002bd565b620003088683620002bd565b95508019841693508086168417925050509392505050565b6000819050919050565b6000819050919050565b6000620003556200034f620003498462000320565b6200032a565b62000320565b9050919050565b6000819050919050565b620003718362000334565b6200038962000380826200035c565b848454620002ca565b825550505050565b600090565b620003a062000391565b620003ad81848462000366565b505050565b5b81811015620003d557620003c960008262000396565b600181019050620003b3565b5050565b601f8211156200042457620003ee8162000298565b620003f984620002ad565b8101602085101562000409578190505b620004216200041885620002ad565b830182620003b2565b50505b505050565b600082821c905092915050565b6000620004496000198460080262000429565b1980831691505092915050565b600062000464838362000436565b9150826002028217905092915050565b6200047f82620001fa565b67ffffffffffffffff8111156200049b576200049a62000205565b5b620004a7825462000263565b620004b4828285620003d9565b600060209050601f831160018114620004ec5760008415620004d7578287015190505b620004e3858262000456565b86555062000553565b601f198416620004fc8662000298565b60005b828110156200052657848901518255600182019150602085019450602081019050620004ff565b8683101562000546578489015162000542601f89168262000436565b8355505b6001600288020188555050505b505050505050565b600073ffffffffffffffffffffffffffffffffffffffff82169050919050565b600062000588826200055b565b9050919050565b6200059a816200057b565b82525050565b6000602082019050620005b760008301846200058f565b92915050565b6158a480620005cd6000396000f3fe6080604052600436106101c15760003560e01c806370a08231116100f7578063b26b911111610095578063d204c45e11610064578063d204c45e14610636578063e985e9c51461065f578063f09bc6931461069c578063f2fde38b146106c7576101c1565b8063b26b91111461057c578063b88d4fde146105a7578063c29ee399146105d0578063c87b56dd146105f9576101c1565b80638da5cb5b116100d15780638da5cb5b146104c057806395d89b41146104eb578063a22cb46514610516578063a64831c31461053f576101c1565b806370a08231146104435780637101109f14610480578063715018a6146104a9576101c1565b80631749f05f11610164578063365422ec1161013e578063365422ec1461036d57806342842e0e146103b45780635b55dd17146103dd5780636352211e14610406576101c1565b80631749f05f146102f057806318aa98521461031b57806323b872dd14610344576101c1565b8063081812fc116101a0578063081812fc1461024a578063095ea7b31461028757806310bb5e05146102b0578063155dd5ee146102c7576101c1565b80627a1722146101c657806301ffc9a7146101e257806306fdde031461021f575b600080fd5b6101e060048036038101906101db9190613aea565b6106f0565b005b3480156101ee57600080fd5b5061020960048036038101906102049190613b6f565b61094d565b6040516102169190613bb7565b60405180910390f35b34801561022b57600080fd5b5061023461095f565b6040516102419190613c62565b60405180910390f35b34801561025657600080fd5b50610271600480360381019061026c9190613aea565b6109f1565b60405161027e9190613cc5565b60405180910390f35b34801561029357600080fd5b506102ae60048036038101906102a99190613d0c565b610a0d565b005b3480156102bc57600080fd5b506102c5610a23565b005b3480156102d357600080fd5b506102ee60048036038101906102e99190613aea565b610b51565b005b3480156102fc57600080fd5b5061030561101e565b6040516103129190613d5b565b60405180910390f35b34801561032757600080fd5b50610342600480360381019061033d9190613eab565b611024565b005b34801561035057600080fd5b5061036b60048036038101906103669190613f07565b6112cd565b005b34801561037957600080fd5b50610394600480360381019061038f9190613aea565b6113cf565b6040516103ab9b9a99989796959493929190614140565b60405180910390f35b3480156103c057600080fd5b506103db60048036038101906103d69190613f07565b6117ef565b005b3480156103e957600080fd5b5061040460048036038101906103ff919061423a565b61180f565b005b34801561041257600080fd5b5061042d60048036038101906104289190613aea565b611b03565b60405161043a9190613cc5565b60405180910390f35b34801561044f57600080fd5b5061046a600480360381019061046591906142a9565b611b15565b6040516104779190613d5b565b60405180910390f35b34801561048c57600080fd5b506104a760048036038101906104a291906142d6565b611bcf565b005b3480156104b557600080fd5b506104be611e1f565b005b3480156104cc57600080fd5b506104d5611e33565b6040516104e29190613cc5565b60405180910390f35b3480156104f757600080fd5b50610500611e5d565b60405161050d9190613c62565b60405180910390f35b34801561052257600080fd5b5061053d600480360381019061053891906143a9565b611eef565b005b34801561054b57600080fd5b5061056660048036038101906105619190613aea565b611f05565b6040516105739190613d5b565b60405180910390f35b34801561058857600080fd5b50610591611f29565b60405161059e91906144a7565b60405180910390f35b3480156105b357600080fd5b506105ce60048036038101906105c9919061456a565b6121bb565b005b3480156105dc57600080fd5b506105f760048036038101906105f291906145ed565b6121d8565b005b34801561060557600080fd5b50610620600480360381019061061b9190613aea565b61266e565b60405161062d9190613c62565b60405180910390f35b34801561064257600080fd5b5061065d6004803603810190610658919061462d565b612680565b005b34801561066b57600080fd5b5061068660048036038101906106819190614689565b6126bc565b6040516106939190613bb7565b60405180910390f35b3480156106a857600080fd5b506106b1612750565b6040516106be91906144a7565b60405180910390f35b3480156106d357600080fd5b506106ee60048036038101906106e991906142a9565b6127a8565b005b6000600b60008381526020019081526020016000209050600073ffffffffffffffffffffffffffffffffffffffff168160020160009054906101000a900473ffffffffffffffffffffffffffffffffffffffff1673ffffffffffffffffffffffffffffffffffffffff160361079a576040517f08c379a000000000000000000000000000000000000000000000000000000000815260040161079190614715565b60405180910390fd5b8060050160009054906101000a900460ff16156107ec576040517f08c379a00000000000000000000000000000000000000000000000000000000081526004016107e3906147a7565b60405180910390fd5b80600a0160019054906101000a900460ff161561083e576040517f08c379a000000000000000000000000000000000000000000000000000000000815260040161083590614839565b60405180910390fd5b60003411610881576040517f08c379a0000000000000000000000000000000000000000000000000000000008152600401610878906148cb565b60405180910390fd5b60003490508082600601600082825461089a919061491a565b92505081905550808260070160003373ffffffffffffffffffffffffffffffffffffffff1673ffffffffffffffffffffffffffffffffffffffff16815260200190815260200160002060008282546108f2919061491a565b925050819055503373ffffffffffffffffffffffffffffffffffffffff16837f01042e389f29a6fb798bd1ec7081cba60e637147668b6700c50e32e95ebac5d9836040516109409190613d5b565b60405180910390a3505050565b60006109588261282e565b9050919050565b60606001805461096e9061497d565b80601f016020809104026020016040519081016040528092919081815260200182805461099a9061497d565b80156109e75780601f106109bc576101008083540402835291602001916109e7565b820191906000526020600020905b8154815290600101906020018083116109ca57829003601f168201915b5050505050905090565b60006109fc8261288f565b50610a0682612917565b9050919050565b610a1f8282610a1a612954565b61295c565b5050565b6000803373ffffffffffffffffffffffffffffffffffffffff1673ffffffffffffffffffffffffffffffffffffffff16815260200190815260200160002060000160009054906101000a900460ff1615610ab2576040517f08c379a0000000000000000000000000000000000000000000000000000000008152600401610aa990614a20565b60405180910390fd5b60016000803373ffffffffffffffffffffffffffffffffffffffff1673ffffffffffffffffffffffffffffffffffffffff16815260200190815260200160002060000160006101000a81548160ff0219169083151502179055503373ffffffffffffffffffffffffffffffffffffffff167fe57694be0e3c8f1dac61e75df3942362c6f7ccdcf9b69b623a6a86f0befd4d0d60405160405180910390a2565b6000600b600083815260200190815260200160002090508060020160009054906101000a900473ffffffffffffffffffffffffffffffffffffffff1673ffffffffffffffffffffffffffffffffffffffff163373ffffffffffffffffffffffffffffffffffffffff1614610bfa576040517f08c379a0000000000000000000000000000000000000000000000000000000008152600401610bf190614ab2565b60405180910390fd5b80600a0160019054906101000a900460ff1615610c4c576040517f08c379a0000000000000000000000000000000000000000000000000000000008152600401610c4390614b44565b60405180910390fd5b60008160060154905060008111610c98576040517f08c379a0000000000000000000000000000000000000000000000000000000008152600401610c8f90614bd6565b60405180910390fd5b6000600282610ca79190614c25565b90506000836003018054905082610cbe9190614c25565b905060005b8460030180549050811015610e5a576000856003018281548110610cea57610ce9614c56565b5b9060005260206000200160009054906101000a900473ffffffffffffffffffffffffffffffffffffffff169050828660070160008373ffffffffffffffffffffffffffffffffffffffff1673ffffffffffffffffffffffffffffffffffffffff1681526020019081526020016000206000828254610d68919061491a565b925050819055508073ffffffffffffffffffffffffffffffffffffffff166108fc849081150290604051600060405180830381858888f19350505050158015610db5573d6000803e3d6000fd5b50610e4c81876000018054610dc99061497d565b80601f0160208091040260200160405190810160405280929190818152602001828054610df59061497d565b8015610e425780601f10610e1757610100808354040283529160200191610e42565b820191906000526020600020905b815481529060010190602001808311610e2557829003601f168201915b5050505050612680565b508080600101915050610cc3565b5060008284610e699190614c85565b9050808560070160003373ffffffffffffffffffffffffffffffffffffffff1673ffffffffffffffffffffffffffffffffffffffff1681526020019081526020016000206000828254610ebc919061491a565b925050819055503373ffffffffffffffffffffffffffffffffffffffff166108fc829081150290604051600060405180830381858888f19350505050158015610f09573d6000803e3d6000fd5b50610fa033866000018054610f1d9061497d565b80601f0160208091040260200160405190810160405280929190818152602001828054610f499061497d565b8015610f965780601f10610f6b57610100808354040283529160200191610f96565b820191906000526020600020905b815481529060010190602001808311610f7957829003601f168201915b5050505050612680565b60008560060181905550600185600a0160016101000a81548160ff0219169083151502179055503373ffffffffffffffffffffffffffffffffffffffff16867ff440aec6b52895984d061d622e6edeba6210f7c3e059be920663140c084560d78660405161100e9190613d5b565b60405180910390a3505050505050565b600d5481565b6000803373ffffffffffffffffffffffffffffffffffffffff1673ffffffffffffffffffffffffffffffffffffffff16815260200190815260200160002060000160009054906101000a900460ff166110b2576040517f08c379a00000000000000000000000000000000000000000000000000000000081526004016110a990614d2b565b60405180910390fd5b6000600b600084815260200190815260200160002090508060050160009054906101000a900460ff161561111b576040517f08c379a000000000000000000000000000000000000000000000000000000000815260040161111290614dbd565b60405180910390fd5b8060020160009054906101000a900473ffffffffffffffffffffffffffffffffffffffff1673ffffffffffffffffffffffffffffffffffffffff163373ffffffffffffffffffffffffffffffffffffffff16036111ad576040517f08c379a00000000000000000000000000000000000000000000000000000000081526004016111a490614e4f565b60405180910390fd5b600060405180604001604052808481526020013373ffffffffffffffffffffffffffffffffffffffff168152509050600a6000858152602001908152602001600020819080600181540180825580915050600190039060005260206000209060020201600090919091909150600082015181600001908161122e919061501b565b5060208201518160010160006101000a81548173ffffffffffffffffffffffffffffffffffffffff021916908373ffffffffffffffffffffffffffffffffffffffff16021790555050503373ffffffffffffffffffffffffffffffffffffffff16847fd3c0e07c40699ed71a80ac6b98d76b94cde4900e3765fec5612317e8d54cf7b4856040516112bf9190613c62565b60405180910390a350505050565b600073ffffffffffffffffffffffffffffffffffffffff168273ffffffffffffffffffffffffffffffffffffffff160361133f5760006040517f64a0ae920000000000000000000000000000000000000000000000000000000081526004016113369190613cc5565b60405180910390fd5b6000611353838361134e612954565b61296e565b90508373ffffffffffffffffffffffffffffffffffffffff168173ffffffffffffffffffffffffffffffffffffffff16146113c9578382826040517f64283d7b0000000000000000000000000000000000000000000000000000000081526004016113c0939291906150ed565b60405180910390fd5b50505050565b60608060006060806000806000806060600080600b60008e8152602001908152602001600020905080600001816001018260020160009054906101000a900473ffffffffffffffffffffffffffffffffffffffff1683600401846003018560050160009054906101000a900460ff16866006015487600a0160019054906101000a900460ff168860080160009054906101000a900460ff16896009018a600a0160009054906101000a900460ff168a80546114899061497d565b80601f01602080910402602001604051908101604052809291908181526020018280546114b59061497d565b80156115025780601f106114d757610100808354040283529160200191611502565b820191906000526020600020905b8154815290600101906020018083116114e557829003601f168201915b50505050509a508980546115159061497d565b80601f01602080910402602001604051908101604052809291908181526020018280546115419061497d565b801561158e5780601f106115635761010080835404028352916020019161158e565b820191906000526020600020905b81548152906001019060200180831161157157829003601f168201915b5050505050995087805480602002602001604051908101604052809291908181526020016000905b828210156116625783829060005260206000200180546115d59061497d565b80601f01602080910402602001604051908101604052809291908181526020018280546116019061497d565b801561164e5780601f106116235761010080835404028352916020019161164e565b820191906000526020600020905b81548152906001019060200180831161163157829003601f168201915b5050505050815260200190600101906115b6565b505050509750868054806020026020016040519081016040528092919081815260200182805480156116e957602002820191906000526020600020905b8160009054906101000a900473ffffffffffffffffffffffffffffffffffffffff1673ffffffffffffffffffffffffffffffffffffffff168152602001906001019080831161169f575b505050505096508260ff16925081805480602002602001604051908101604052809291908181526020016000905b828210156117c35783829060005260206000200180546117369061497d565b80601f01602080910402602001604051908101604052809291908181526020018280546117629061497d565b80156117af5780601f10611784576101008083540402835291602001916117af565b820191906000526020600020905b81548152906001019060200180831161179257829003601f168201915b505050505081526020019060010190611717565b5050505091509b509b509b509b509b509b509b509b509b509b509b505091939597999b90929496989a50565b61180a838383604051806020016040528060008152506121bb565b505050565b6000803373ffffffffffffffffffffffffffffffffffffffff1673ffffffffffffffffffffffffffffffffffffffff16815260200190815260200160002060000160009054906101000a900460ff1661189d576040517f08c379a000000000000000000000000000000000000000000000000000000000815260040161189490614d2b565b60405180910390fd5b823373ffffffffffffffffffffffffffffffffffffffff16600c600083815260200190815260200160002060009054906101000a900473ffffffffffffffffffffffffffffffffffffffff1673ffffffffffffffffffffffffffffffffffffffff160361193f576040517f08c379a000000000000000000000000000000000000000000000000000000000815260040161193690615196565b60405180910390fd5b6000600b6000868152602001908152602001600020905060018460ff161015801561196e5750600a8460ff1611155b6119ad576040517f08c379a00000000000000000000000000000000000000000000000000000000081526004016119a490615228565b60405180910390fd5b838160080160008282829054906101000a900460ff166119cd9190615248565b92506101000a81548160ff021916908360ff1602179055508060090183908060018154018082558091505060019003906000526020600020016000909190919091509081611a1b919061501b565b503373ffffffffffffffffffffffffffffffffffffffff16857f42917649f70d2cf58d178b638566295baa56001aa117ad383d4ea18f0d5721ad8686604051611a6592919061527d565b60405180910390a380600a01600081819054906101000a900460ff1680929190611a8e906152ad565b91906101000a81548160ff021916908360ff16021790555050600581600a0160009054906101000a900460ff1660ff1610611afc57611ace856000612b88565b847f619b6d262bf796867b496768f7a6ede6f8aa3180ef1bf466de521b662fcfce9960405160405180910390a25b5050505050565b6000611b0e8261288f565b9050919050565b60008073ffffffffffffffffffffffffffffffffffffffff168273ffffffffffffffffffffffffffffffffffffffff1603611b885760006040517f89c62b64000000000000000000000000000000000000000000000000000000008152600401611b7f9190613cc5565b60405180910390fd5b600460008373ffffffffffffffffffffffffffffffffffffffff1673ffffffffffffffffffffffffffffffffffffffff168152602001908152602001600020549050919050565b6000803373ffffffffffffffffffffffffffffffffffffffff1673ffffffffffffffffffffffffffffffffffffffff16815260200190815260200160002060000160009054906101000a900460ff16611c5d576040517f08c379a0000000000000000000000000000000000000000000000000000000008152600401611c5490614d2b565b60405180910390fd5b600d6000815480929190611c70906152d6565b91905055506000600d5490506000600b6000838152602001908152602001600020905084816000019081611ca4919061501b565b5083816001019081611cb6919061501b565b50338160020160006101000a81548173ffffffffffffffffffffffffffffffffffffffff021916908373ffffffffffffffffffffffffffffffffffffffff1602179055508060040183908060018154018082558091505060019003906000526020600020016000909190919091509081611d30919061501b565b5060018160050160006101000a81548160ff02191690831515021790555033600c600084815260200190815260200160002060006101000a81548173ffffffffffffffffffffffffffffffffffffffff021916908373ffffffffffffffffffffffffffffffffffffffff160217905550600e8290806001815401808255809150506001900390600052602060002001600090919091909150553373ffffffffffffffffffffffffffffffffffffffff16827ffd83fda0d17880076ce272b68f2d1e177c35a3d7386456602f3e3a97ee3585b285604051611e109190613c62565b60405180910390a35050505050565b611e27612bba565b611e316000612c41565b565b6000600860009054906101000a900473ffffffffffffffffffffffffffffffffffffffff16905090565b606060028054611e6c9061497d565b80601f0160208091040260200160405190810160405280929190818152602001828054611e989061497d565b8015611ee55780601f10611eba57610100808354040283529160200191611ee5565b820191906000526020600020905b815481529060010190602001808311611ec857829003601f168201915b5050505050905090565b611f01611efa612954565b8383612d07565b5050565b600e8181548110611f1557600080fd5b906000526020600020016000915090505481565b60606000600d549050600080600190505b82811161203c576000600b600083815260200190815260200160002090503373ffffffffffffffffffffffffffffffffffffffff168160020160009054906101000a900473ffffffffffffffffffffffffffffffffffffffff1673ffffffffffffffffffffffffffffffffffffffff16148061201457503373ffffffffffffffffffffffffffffffffffffffff16600c600084815260200190815260200160002060009054906101000a900473ffffffffffffffffffffffffffffffffffffffff1673ffffffffffffffffffffffffffffffffffffffff16145b15612028578280612024906152d6565b9350505b508080612034906152d6565b915050611f3a565b508067ffffffffffffffff81111561205757612056613d80565b5b6040519080825280602002602001820160405280156120855781602001602082028036833780820191505090505b509250600090506000600190505b8281116121b5576000600b600083815260200190815260200160002090503373ffffffffffffffffffffffffffffffffffffffff168160020160009054906101000a900473ffffffffffffffffffffffffffffffffffffffff1673ffffffffffffffffffffffffffffffffffffffff16148061216d57503373ffffffffffffffffffffffffffffffffffffffff16600c600084815260200190815260200160002060009054906101000a900473ffffffffffffffffffffffffffffffffffffffff1673ffffffffffffffffffffffffffffffffffffffff16145b156121a1578185848151811061218657612185614c56565b5b602002602001018181525050828061219d906152d6565b9350505b5080806121ad906152d6565b915050612093565b50505090565b6121c68484846112cd565b6121d284848484612e76565b50505050565b81600c600082815260200190815260200160002060009054906101000a900473ffffffffffffffffffffffffffffffffffffffff1673ffffffffffffffffffffffffffffffffffffffff163373ffffffffffffffffffffffffffffffffffffffff161461227a576040517f08c379a000000000000000000000000000000000000000000000000000000000815260040161227190615390565b60405180910390fd5b6000600b600085815260200190815260200160002090508060050160009054906101000a900460ff16156122e3576040517f08c379a00000000000000000000000000000000000000000000000000000000081526004016122da90614dbd565b60405180910390fd5b600a600085815260200190815260200160002080549050831061233b576040517f08c379a0000000000000000000000000000000000000000000000000000000008152600401612332906153fc565b60405180910390fd5b6000600a6000868152602001908152602001600020848154811061236257612361614c56565b5b90600052602060002090600202019050816003018160010160009054906101000a900473ffffffffffffffffffffffffffffffffffffffff169080600181540180825580915050600190039060005260206000200160009091909190916101000a81548173ffffffffffffffffffffffffffffffffffffffff021916908373ffffffffffffffffffffffffffffffffffffffff16021790555081600401816000019080600181540180825580915050600190039060005260206000200160009091909190915090816124349190615447565b508060010160009054906101000a900473ffffffffffffffffffffffffffffffffffffffff1673ffffffffffffffffffffffffffffffffffffffff163373ffffffffffffffffffffffffffffffffffffffff16867f254370b4e93e5f7d1eaaafb6e20e26890577db5f41157b0839baa106b03fc1d9846000016040516124ba91906155b3565b60405180910390a46001600a6000878152602001908152602001600020805490506124e59190614c85565b8410156125f457600a60008681526020019081526020016000206001600a6000888152602001908152602001600020805490506125229190614c85565b8154811061253357612532614c56565b5b9060005260206000209060020201600a6000878152602001908152602001600020858154811061256657612565614c56565b5b90600052602060002090600202016000820181600001908161258891906155eb565b506001820160009054906101000a900473ffffffffffffffffffffffffffffffffffffffff168160010160006101000a81548173ffffffffffffffffffffffffffffffffffffffff021916908373ffffffffffffffffffffffffffffffffffffffff1602179055509050505b600a6000868152602001908152602001600020805480612617576126166156d3565b5b60019003818190600052602060002090600202016000808201600061263c9190613a43565b6001820160006101000a81549073ffffffffffffffffffffffffffffffffffffffff0219169055505090555050505050565b60606126798261302d565b9050919050565b612688612bba565b60006009600081548092919061269d906152d6565b9190505590506126ad8382613140565b6126b7818361315e565b505050565b6000600660008473ffffffffffffffffffffffffffffffffffffffff1673ffffffffffffffffffffffffffffffffffffffff16815260200190815260200160002060008373ffffffffffffffffffffffffffffffffffffffff1673ffffffffffffffffffffffffffffffffffffffff16815260200190815260200160002060009054906101000a900460ff16905092915050565b6060600e80548060200260200160405190810160405280929190818152602001828054801561279e57602002820191906000526020600020905b81548152602001906001019080831161278a575b5050505050905090565b6127b0612bba565b600073ffffffffffffffffffffffffffffffffffffffff168173ffffffffffffffffffffffffffffffffffffffff16036128225760006040517f1e4fbdf70000000000000000000000000000000000000000000000000000000081526004016128199190613cc5565b60405180910390fd5b61282b81612c41565b50565b6000634906490660e01b7bffffffffffffffffffffffffffffffffffffffffffffffffffffffff1916827bffffffffffffffffffffffffffffffffffffffffffffffffffffffff191614806128885750612887826131ba565b5b9050919050565b60008061289b8361329c565b9050600073ffffffffffffffffffffffffffffffffffffffff168173ffffffffffffffffffffffffffffffffffffffff160361290e57826040517f7e2732890000000000000000000000000000000000000000000000000000000081526004016129059190613d5b565b60405180910390fd5b80915050919050565b60006005600083815260200190815260200160002060009054906101000a900473ffffffffffffffffffffffffffffffffffffffff169050919050565b600033905090565b61296983838360016132d9565b505050565b60008061297a8461329c565b9050600073ffffffffffffffffffffffffffffffffffffffff168373ffffffffffffffffffffffffffffffffffffffff16146129bc576129bb81848661349e565b5b600073ffffffffffffffffffffffffffffffffffffffff168173ffffffffffffffffffffffffffffffffffffffff1614612a4d576129fe6000856000806132d9565b6001600460008373ffffffffffffffffffffffffffffffffffffffff1673ffffffffffffffffffffffffffffffffffffffff168152602001908152602001600020600082825403925050819055505b600073ffffffffffffffffffffffffffffffffffffffff168573ffffffffffffffffffffffffffffffffffffffff1614612ad0576001600460008773ffffffffffffffffffffffffffffffffffffffff1673ffffffffffffffffffffffffffffffffffffffff168152602001908152602001600020600082825401925050819055505b846003600086815260200190815260200160002060006101000a81548173ffffffffffffffffffffffffffffffffffffffff021916908373ffffffffffffffffffffffffffffffffffffffff160217905550838573ffffffffffffffffffffffffffffffffffffffff168273ffffffffffffffffffffffffffffffffffffffff167fddf252ad1be2c89b69c2b068fc378daa952ba7f163c4a11628f55a4df523b3ef60405160405180910390a4809150509392505050565b80600b600084815260200190815260200160002060050160006101000a81548160ff0219169083151502179055505050565b612bc2612954565b73ffffffffffffffffffffffffffffffffffffffff16612be0611e33565b73ffffffffffffffffffffffffffffffffffffffff1614612c3f57612c03612954565b6040517f118cdaa7000000000000000000000000000000000000000000000000000000008152600401612c369190613cc5565b60405180910390fd5b565b6000600860009054906101000a900473ffffffffffffffffffffffffffffffffffffffff16905081600860006101000a81548173ffffffffffffffffffffffffffffffffffffffff021916908373ffffffffffffffffffffffffffffffffffffffff1602179055508173ffffffffffffffffffffffffffffffffffffffff168173ffffffffffffffffffffffffffffffffffffffff167f8be0079c531659141344cd1fd0a4f28419497f9722a3daafe3b4186f6b6457e060405160405180910390a35050565b600073ffffffffffffffffffffffffffffffffffffffff168273ffffffffffffffffffffffffffffffffffffffff1603612d7857816040517f5b08ba18000000000000000000000000000000000000000000000000000000008152600401612d6f9190613cc5565b60405180910390fd5b80600660008573ffffffffffffffffffffffffffffffffffffffff1673ffffffffffffffffffffffffffffffffffffffff16815260200190815260200160002060008473ffffffffffffffffffffffffffffffffffffffff1673ffffffffffffffffffffffffffffffffffffffff16815260200190815260200160002060006101000a81548160ff0219169083151502179055508173ffffffffffffffffffffffffffffffffffffffff168373ffffffffffffffffffffffffffffffffffffffff167f17307eab39ab6107e8899845ad3d59bd9653f200f220920489ca2b5937696c3183604051612e699190613bb7565b60405180910390a3505050565b60008373ffffffffffffffffffffffffffffffffffffffff163b1115613027578273ffffffffffffffffffffffffffffffffffffffff1663150b7a02612eba612954565b8685856040518563ffffffff1660e01b8152600401612edc9493929190615757565b6020604051808303816000875af1925050508015612f1857506040513d601f19601f82011682018060405250810190612f1591906157b8565b60015b612f9c573d8060008114612f48576040519150601f19603f3d011682016040523d82523d6000602084013e612f4d565b606091505b506000815103612f9457836040517f64a0ae92000000000000000000000000000000000000000000000000000000008152600401612f8b9190613cc5565b60405180910390fd5b805181602001fd5b63150b7a0260e01b7bffffffffffffffffffffffffffffffffffffffffffffffffffffffff1916817bffffffffffffffffffffffffffffffffffffffffffffffffffffffff19161461302557836040517f64a0ae9200000000000000000000000000000000000000000000000000000000815260040161301c9190613cc5565b60405180910390fd5b505b50505050565b60606130388261288f565b5060006007600084815260200190815260200160002080546130599061497d565b80601f01602080910402602001604051908101604052809291908181526020018280546130859061497d565b80156130d25780601f106130a7576101008083540402835291602001916130d2565b820191906000526020600020905b8154815290600101906020018083116130b557829003601f168201915b5050505050905060006130e3613562565b905060008151036130f857819250505061313b565b60008251111561312d578082604051602001613115929190615821565b6040516020818303038152906040529250505061313b565b61313684613579565b925050505b919050565b61315a8282604051806020016040528060008152506135e2565b5050565b8060076000848152602001908152602001600020908161317e919061501b565b507ff8e1a15aba9398e019f0b49df1a4fde98ee17ae345cb5f6b5e2c27f5033e8ce7826040516131ae9190613d5b565b60405180910390a15050565b60007f80ac58cd000000000000000000000000000000000000000000000000000000007bffffffffffffffffffffffffffffffffffffffffffffffffffffffff1916827bffffffffffffffffffffffffffffffffffffffffffffffffffffffff1916148061328557507f5b5e139f000000000000000000000000000000000000000000000000000000007bffffffffffffffffffffffffffffffffffffffffffffffffffffffff1916827bffffffffffffffffffffffffffffffffffffffffffffffffffffffff1916145b806132955750613294826135fe565b5b9050919050565b60006003600083815260200190815260200160002060009054906101000a900473ffffffffffffffffffffffffffffffffffffffff169050919050565b80806133125750600073ffffffffffffffffffffffffffffffffffffffff168273ffffffffffffffffffffffffffffffffffffffff1614155b156134465760006133228461288f565b9050600073ffffffffffffffffffffffffffffffffffffffff168373ffffffffffffffffffffffffffffffffffffffff161415801561338d57508273ffffffffffffffffffffffffffffffffffffffff168173ffffffffffffffffffffffffffffffffffffffff1614155b80156133a0575061339e81846126bc565b155b156133e257826040517fa9fbf51f0000000000000000000000000000000000000000000000000000000081526004016133d99190613cc5565b60405180910390fd5b811561344457838573ffffffffffffffffffffffffffffffffffffffff168273ffffffffffffffffffffffffffffffffffffffff167f8c5be1e5ebec7d5bd14f71427d1e84f3dd0314c0f7b2291e5b200ac8c7c3b92560405160405180910390a45b505b836005600085815260200190815260200160002060006101000a81548173ffffffffffffffffffffffffffffffffffffffff021916908373ffffffffffffffffffffffffffffffffffffffff16021790555050505050565b6134a9838383613668565b61355d57600073ffffffffffffffffffffffffffffffffffffffff168373ffffffffffffffffffffffffffffffffffffffff160361351e57806040517f7e2732890000000000000000000000000000000000000000000000000000000081526004016135159190613d5b565b60405180910390fd5b81816040517f177e802f000000000000000000000000000000000000000000000000000000008152600401613554929190615845565b60405180910390fd5b505050565b606060405180602001604052806000815250905090565b60606135848261288f565b50600061358f613562565b905060008151116135af57604051806020016040528060008152506135da565b806135b984613729565b6040516020016135ca929190615821565b6040516020818303038152906040525b915050919050565b6135ec83836137f7565b6135f96000848484612e76565b505050565b60007f01ffc9a7000000000000000000000000000000000000000000000000000000007bffffffffffffffffffffffffffffffffffffffffffffffffffffffff1916827bffffffffffffffffffffffffffffffffffffffffffffffffffffffff1916149050919050565b60008073ffffffffffffffffffffffffffffffffffffffff168373ffffffffffffffffffffffffffffffffffffffff161415801561372057508273ffffffffffffffffffffffffffffffffffffffff168473ffffffffffffffffffffffffffffffffffffffff1614806136e157506136e084846126bc565b5b8061371f57508273ffffffffffffffffffffffffffffffffffffffff1661370783612917565b73ffffffffffffffffffffffffffffffffffffffff16145b5b90509392505050565b606060006001613738846138f0565b01905060008167ffffffffffffffff81111561375757613756613d80565b5b6040519080825280601f01601f1916602001820160405280156137895781602001600182028036833780820191505090505b509050600082602001820190505b6001156137ec578080600190039150507f3031323334353637383961626364656600000000000000000000000000000000600a86061a8153600a85816137e0576137df614bf6565b5b04945060008503613797575b819350505050919050565b600073ffffffffffffffffffffffffffffffffffffffff168273ffffffffffffffffffffffffffffffffffffffff16036138695760006040517f64a0ae920000000000000000000000000000000000000000000000000000000081526004016138609190613cc5565b60405180910390fd5b60006138778383600061296e565b9050600073ffffffffffffffffffffffffffffffffffffffff168173ffffffffffffffffffffffffffffffffffffffff16146138eb5760006040517f73c6ac6e0000000000000000000000000000000000000000000000000000000081526004016138e29190613cc5565b60405180910390fd5b505050565b600080600090507a184f03e93ff9f4daa797ed6e38ed64bf6a1f010000000000000000831061394e577a184f03e93ff9f4daa797ed6e38ed64bf6a1f010000000000000000838161394457613943614bf6565b5b0492506040810190505b6d04ee2d6d415b85acef8100000000831061398b576d04ee2d6d415b85acef8100000000838161398157613980614bf6565b5b0492506020810190505b662386f26fc1000083106139ba57662386f26fc1000083816139b0576139af614bf6565b5b0492506010810190505b6305f5e10083106139e3576305f5e10083816139d9576139d8614bf6565b5b0492506008810190505b6127108310613a085761271083816139fe576139fd614bf6565b5b0492506004810190505b60648310613a2b5760648381613a2157613a20614bf6565b5b0492506002810190505b600a8310613a3a576001810190505b80915050919050565b508054613a4f9061497d565b6000825580601f10613a615750613a80565b601f016020900490600052602060002090810190613a7f9190613a83565b5b50565b5b80821115613a9c576000816000905550600101613a84565b5090565b6000604051905090565b600080fd5b600080fd5b6000819050919050565b613ac781613ab4565b8114613ad257600080fd5b50565b600081359050613ae481613abe565b92915050565b600060208284031215613b0057613aff613aaa565b5b6000613b0e84828501613ad5565b91505092915050565b60007fffffffff0000000000000000000000000000000000000000000000000000000082169050919050565b613b4c81613b17565b8114613b5757600080fd5b50565b600081359050613b6981613b43565b92915050565b600060208284031215613b8557613b84613aaa565b5b6000613b9384828501613b5a565b91505092915050565b60008115159050919050565b613bb181613b9c565b82525050565b6000602082019050613bcc6000830184613ba8565b92915050565b600081519050919050565b600082825260208201905092915050565b60005b83811015613c0c578082015181840152602081019050613bf1565b60008484015250505050565b6000601f19601f8301169050919050565b6000613c3482613bd2565b613c3e8185613bdd565b9350613c4e818560208601613bee565b613c5781613c18565b840191505092915050565b60006020820190508181036000830152613c7c8184613c29565b905092915050565b600073ffffffffffffffffffffffffffffffffffffffff82169050919050565b6000613caf82613c84565b9050919050565b613cbf81613ca4565b82525050565b6000602082019050613cda6000830184613cb6565b92915050565b613ce981613ca4565b8114613cf457600080fd5b50565b600081359050613d0681613ce0565b92915050565b60008060408385031215613d2357613d22613aaa565b5b6000613d3185828601613cf7565b9250506020613d4285828601613ad5565b9150509250929050565b613d5581613ab4565b82525050565b6000602082019050613d706000830184613d4c565b92915050565b600080fd5b600080fd5b7f4e487b7100000000000000000000000000000000000000000000000000000000600052604160045260246000fd5b613db882613c18565b810181811067ffffffffffffffff82111715613dd757613dd6613d80565b5b80604052505050565b6000613dea613aa0565b9050613df68282613daf565b919050565b600067ffffffffffffffff821115613e1657613e15613d80565b5b613e1f82613c18565b9050602081019050919050565b82818337600083830152505050565b6000613e4e613e4984613dfb565b613de0565b905082815260208101848484011115613e6a57613e69613d7b565b5b613e75848285613e2c565b509392505050565b600082601f830112613e9257613e91613d76565b5b8135613ea2848260208601613e3b565b91505092915050565b60008060408385031215613ec257613ec1613aaa565b5b6000613ed085828601613ad5565b925050602083013567ffffffffffffffff811115613ef157613ef0613aaf565b5b613efd85828601613e7d565b9150509250929050565b600080600060608486031215613f2057613f1f613aaa565b5b6000613f2e86828701613cf7565b9350506020613f3f86828701613cf7565b9250506040613f5086828701613ad5565b9150509250925092565b600081519050919050565b600082825260208201905092915050565b6000819050602082019050919050565b600082825260208201905092915050565b6000613fa282613bd2565b613fac8185613f86565b9350613fbc818560208601613bee565b613fc581613c18565b840191505092915050565b6000613fdc8383613f97565b905092915050565b6000602082019050919050565b6000613ffc82613f5a565b6140068185613f65565b93508360208202850161401885613f76565b8060005b8581101561405457848403895281516140358582613fd0565b945061404083613fe4565b925060208a0199505060018101905061401c565b50829750879550505050505092915050565b600081519050919050565b600082825260208201905092915050565b6000819050602082019050919050565b61409b81613ca4565b82525050565b60006140ad8383614092565b60208301905092915050565b6000602082019050919050565b60006140d182614066565b6140db8185614071565b93506140e683614082565b8060005b838110156141175781516140fe88826140a1565b9750614109836140b9565b9250506001810190506140ea565b5085935050505092915050565b600060ff82169050919050565b61413a81614124565b82525050565b600061016082019050818103600083015261415b818e613c29565b9050818103602083015261416f818d613c29565b905061417e604083018c613cb6565b8181036060830152614190818b613ff1565b905081810360808301526141a4818a6140c6565b90506141b360a0830189613ba8565b6141c060c0830188613d4c565b6141cd60e0830187613ba8565b6141db610100830186613d4c565b8181036101208301526141ee8185613ff1565b90506141fe610140830184614131565b9c9b505050505050505050505050565b61421781614124565b811461422257600080fd5b50565b6000813590506142348161420e565b92915050565b60008060006060848603121561425357614252613aaa565b5b600061426186828701613ad5565b935050602061427286828701614225565b925050604084013567ffffffffffffffff81111561429357614292613aaf565b5b61429f86828701613e7d565b9150509250925092565b6000602082840312156142bf576142be613aaa565b5b60006142cd84828501613cf7565b91505092915050565b6000806000606084860312156142ef576142ee613aaa565b5b600084013567ffffffffffffffff81111561430d5761430c613aaf565b5b61431986828701613e7d565b935050602084013567ffffffffffffffff81111561433a57614339613aaf565b5b61434686828701613e7d565b925050604084013567ffffffffffffffff81111561436757614366613aaf565b5b61437386828701613e7d565b9150509250925092565b61438681613b9c565b811461439157600080fd5b50565b6000813590506143a38161437d565b92915050565b600080604083850312156143c0576143bf613aaa565b5b60006143ce85828601613cf7565b92505060206143df85828601614394565b9150509250929050565b600081519050919050565b600082825260208201905092915050565b6000819050602082019050919050565b61441e81613ab4565b82525050565b60006144308383614415565b60208301905092915050565b6000602082019050919050565b6000614454826143e9565b61445e81856143f4565b935061446983614405565b8060005b8381101561449a5781516144818882614424565b975061448c8361443c565b92505060018101905061446d565b5085935050505092915050565b600060208201905081810360008301526144c18184614449565b905092915050565b600067ffffffffffffffff8211156144e4576144e3613d80565b5b6144ed82613c18565b9050602081019050919050565b600061450d614508846144c9565b613de0565b90508281526020810184848401111561452957614528613d7b565b5b614534848285613e2c565b509392505050565b600082601f83011261455157614550613d76565b5b81356145618482602086016144fa565b91505092915050565b6000806000806080858703121561458457614583613aaa565b5b600061459287828801613cf7565b94505060206145a387828801613cf7565b93505060406145b487828801613ad5565b925050606085013567ffffffffffffffff8111156145d5576145d4613aaf565b5b6145e18782880161453c565b91505092959194509250565b6000806040838503121561460457614603613aaa565b5b600061461285828601613ad5565b925050602061462385828601613ad5565b9150509250929050565b6000806040838503121561464457614643613aaa565b5b600061465285828601613cf7565b925050602083013567ffffffffffffffff81111561467357614672613aaf565b5b61467f85828601613e7d565b9150509250929050565b600080604083850312156146a05761469f613aaa565b5b60006146ae85828601613cf7565b92505060206146bf85828601613cf7565b9150509250929050565b7f496e76616c696420706170657249640000000000000000000000000000000000600082015250565b60006146ff600f83613bdd565b915061470a826146c9565b602082019050919050565b6000602082019050818103600083015261472e816146f2565b9050919050565b7f5265736561726368207061706572206973206e6f7420617661696c61626c652060008201527f666f722066756e64696e67000000000000000000000000000000000000000000602082015250565b6000614791602b83613bdd565b915061479c82614735565b604082019050919050565b600060208201905081810360008301526147c081614784565b9050919050565b7f526573656172636820706170657220697320636f6d706c6574656420736f206e60008201527f6f206d6f7265206e65656420666f722066756e64696e67000000000000000000602082015250565b6000614823603783613bdd565b915061482e826147c7565b604082019050919050565b6000602082019050818103600083015261485281614816565b9050919050565b7f46756e64696e6720616d6f756e74206d7573742062652067726561746572207460008201527f68616e207a65726f000000000000000000000000000000000000000000000000602082015250565b60006148b5602883613bdd565b91506148c082614859565b604082019050919050565b600060208201905081810360008301526148e4816148a8565b9050919050565b7f4e487b7100000000000000000000000000000000000000000000000000000000600052601160045260246000fd5b600061492582613ab4565b915061493083613ab4565b9250828201905080821115614948576149476148eb565b5b92915050565b7f4e487b7100000000000000000000000000000000000000000000000000000000600052602260045260246000fd5b6000600282049050600182168061499557607f821691505b6020821081036149a8576149a761494e565b5b50919050565b7f416c7265616479207265676973746572656420617320612044414f206d656d6260008201527f6572000000000000000000000000000000000000000000000000000000000000602082015250565b6000614a0a602283613bdd565b9150614a15826149ae565b604082019050919050565b60006020820190508181036000830152614a39816149fd565b9050919050565b7f596f7520617265206e6f74207468652075706c6f61646572206f66207468697360008201527f2072657365617263682070617065720000000000000000000000000000000000602082015250565b6000614a9c602f83613bdd565b9150614aa782614a40565b604082019050919050565b60006020820190508181036000830152614acb81614a8f565b9050919050565b7f526573656172636820706170657220697320616c726561647920636f6d706c6560008201527f7465640000000000000000000000000000000000000000000000000000000000602082015250565b6000614b2e602383613bdd565b9150614b3982614ad2565b604082019050919050565b60006020820190508181036000830152614b5d81614b21565b9050919050565b7f4e6f2066756e647320617661696c61626c6520666f722077697468647261776160008201527f6c00000000000000000000000000000000000000000000000000000000000000602082015250565b6000614bc0602183613bdd565b9150614bcb82614b64565b604082019050919050565b60006020820190508181036000830152614bef81614bb3565b9050919050565b7f4e487b7100000000000000000000000000000000000000000000000000000000600052601260045260246000fd5b6000614c3082613ab4565b9150614c3b83613ab4565b925082614c4b57614c4a614bf6565b5b828204905092915050565b7f4e487b7100000000000000000000000000000000000000000000000000000000600052603260045260246000fd5b6000614c9082613ab4565b9150614c9b83613ab4565b9250828203905081811115614cb357614cb26148eb565b5b92915050565b7f596f75206d757374206265206120726567697374657265642044414f206d656d60008201527f6265720000000000000000000000000000000000000000000000000000000000602082015250565b6000614d15602383613bdd565b9150614d2082614cb9565b604082019050919050565b60006020820190508181036000830152614d4481614d08565b9050919050565b7f5265736561726368207061706572206973206e6f7420617661696c61626c652060008201527f666f7220636f6e747269627574696f6e73000000000000000000000000000000602082015250565b6000614da7603183613bdd565b9150614db282614d4b565b604082019050919050565b60006020820190508181036000830152614dd681614d9a565b9050919050565b7f55706c6f616465722063616e6e6f74207265717565737420636f6e747269627560008201527f74696f6e20746f207468656972206f776e207061706572000000000000000000602082015250565b6000614e39603783613bdd565b9150614e4482614ddd565b604082019050919050565b60006020820190508181036000830152614e6881614e2c565b9050919050565b60008190508160005260206000209050919050565b60006020601f8301049050919050565b600082821b905092915050565b600060088302614ed17fffffffffffffffffffffffffffffffffffffffffffffffffffffffffffffffff82614e94565b614edb8683614e94565b95508019841693508086168417925050509392505050565b6000819050919050565b6000614f18614f13614f0e84613ab4565b614ef3565b613ab4565b9050919050565b6000819050919050565b614f3283614efd565b614f46614f3e82614f1f565b848454614ea1565b825550505050565b600090565b614f5b614f4e565b614f66818484614f29565b505050565b5b81811015614f8a57614f7f600082614f53565b600181019050614f6c565b5050565b601f821115614fcf57614fa081614e6f565b614fa984614e84565b81016020851015614fb8578190505b614fcc614fc485614e84565b830182614f6b565b50505b505050565b600082821c905092915050565b6000614ff260001984600802614fd4565b1980831691505092915050565b600061500b8383614fe1565b9150826002028217905092915050565b61502482613bd2565b67ffffffffffffffff81111561503d5761503c613d80565b5b615047825461497d565b615052828285614f8e565b600060209050601f8311600181146150855760008415615073578287015190505b61507d8582614fff565b8655506150e5565b601f19841661509386614e6f565b60005b828110156150bb57848901518255600182019150602085019450602081019050615096565b868310156150d857848901516150d4601f891682614fe1565b8355505b6001600288020188555050505b505050505050565b60006060820190506151026000830186613cb6565b61510f6020830185613d4c565b61511c6040830184613cb6565b949350505050565b7f5061706572206f776e65722063616e6e6f7420706572666f726d20746869732060008201527f616374696f6e0000000000000000000000000000000000000000000000000000602082015250565b6000615180602683613bdd565b915061518b82615124565b604082019050919050565b600060208201905081810360008301526151af81615173565b9050919050565b7f496e76616c69642073636f72652e2053636f7265206d7573742062652062657460008201527f7765656e203120616e6420313000000000000000000000000000000000000000602082015250565b6000615212602d83613bdd565b915061521d826151b6565b604082019050919050565b6000602082019050818103600083015261524181615205565b9050919050565b600061525382614124565b915061525e83614124565b9250828201905060ff811115615277576152766148eb565b5b92915050565b60006040820190506152926000830185614131565b81810360208301526152a48184613c29565b90509392505050565b60006152b882614124565b915060ff82036152cb576152ca6148eb565b5b600182019050919050565b60006152e182613ab4565b91507fffffffffffffffffffffffffffffffffffffffffffffffffffffffffffffffff8203615313576153126148eb565b5b600182019050919050565b7f596f7520646f6e2774206f776e2074686973207265736561726368207061706560008201527f7200000000000000000000000000000000000000000000000000000000000000602082015250565b600061537a602183613bdd565b91506153858261531e565b604082019050919050565b600060208201905081810360008301526153a98161536d565b9050919050565b7f496e76616c696420636f6e747269627574696f6e20696e646578000000000000600082015250565b60006153e6601a83613bdd565b91506153f1826153b0565b602082019050919050565b60006020820190508181036000830152615415816153d9565b9050919050565b60008154905061542b8161497d565b9050919050565b60008190508160005260206000209050919050565b81810361545557505061552d565b61545e8261541c565b67ffffffffffffffff81111561547757615476613d80565b5b615481825461497d565b61548c828285614f8e565b6000601f8311600181146154bb57600084156154a9578287015490505b6154b38582614fff565b865550615526565b601f1984166154c987615432565b96506154d486614e6f565b60005b828110156154fc578489015482556001820191506001850194506020810190506154d7565b868310156155195784890154615515601f891682614fe1565b8355505b6001600288020188555050505b5050505050505b565b6000815461553c8161497d565b6155468186613bdd565b945060018216600081146155615760018114615577576155aa565b60ff1983168652811515602002860193506155aa565b61558085614e6f565b60005b838110156155a257815481890152600182019150602081019050615583565b808801955050505b50505092915050565b600060208201905081810360008301526155cd818461552f565b905092915050565b6000815490506155e48161497d565b9050919050565b8181036155f95750506156d1565b615602826155d5565b67ffffffffffffffff81111561561b5761561a613d80565b5b615625825461497d565b615630828285614f8e565b6000601f83116001811461565f576000841561564d578287015490505b6156578582614fff565b8655506156ca565b601f19841661566d87614e6f565b965061567886614e6f565b60005b828110156156a05784890154825560018201915060018501945060208101905061567b565b868310156156bd57848901546156b9601f891682614fe1565b8355505b6001600288020188555050505b5050505050505b565b7f4e487b7100000000000000000000000000000000000000000000000000000000600052603160045260246000fd5b600081519050919050565b600082825260208201905092915050565b600061572982615702565b615733818561570d565b9350615743818560208601613bee565b61574c81613c18565b840191505092915050565b600060808201905061576c6000830187613cb6565b6157796020830186613cb6565b6157866040830185613d4c565b8181036060830152615798818461571e565b905095945050505050565b6000815190506157b281613b43565b92915050565b6000602082840312156157ce576157cd613aaa565b5b60006157dc848285016157a3565b91505092915050565b600081905092915050565b60006157fb82613bd2565b61580581856157e5565b9350615815818560208601613bee565b80840191505092915050565b600061582d82856157f0565b915061583982846157f0565b91508190509392505050565b600060408201905061585a6000830185613cb6565b6158676020830184613d4c565b939250505056fea26469706673582212209d998b413d2be4a967b1c85e1473befb60143e1fb9a4c2780bec650a422c70ab64736f6c63430008180033",
  "linkReferences": {},
  "deployedLinkReferences": {}
}