{
  "_format": "hh-sol-artifact-1",
  "contractName": "DAOMembership",
  "sourceName": "contracts/DAOMembership.sol",
  "abi": [
    {
      "anonymous": false,
      "inputs": [
        {
          "indexed": true,
          "internalType": "address",
          "name": "scientist",
          "type": "address"
        }
      ],
      "name": "ScientistRegistered",
      "type": "event"
    },
    {
      "inputs": [],
      "name": "registerScientist",
      "outputs": [],
      "stateMutability": "nonpayable",
      "type": "function"
    }
  ],
  "bytecode": "0x608060405234801561001057600080fd5b50610241806100206000396000f3fe608060405234801561001057600080fd5b506004361061002b5760003560e01c806310bb5e0514610030575b600080fd5b61003861003a565b005b6000803373ffffffffffffffffffffffffffffffffffffffff1673ffffffffffffffffffffffffffffffffffffffff16815260200190815260200160002060000160009054906101000a900460ff16156100c9576040517f08c379a00000000000000000000000000000000000000000000000000000000081526004016100c0906101eb565b60405180910390fd5b60016000803373ffffffffffffffffffffffffffffffffffffffff1673ffffffffffffffffffffffffffffffffffffffff16815260200190815260200160002060000160006101000a81548160ff0219169083151502179055503373ffffffffffffffffffffffffffffffffffffffff167fe57694be0e3c8f1dac61e75df3942362c6f7ccdcf9b69b623a6a86f0befd4d0d60405160405180910390a2565b600082825260208201905092915050565b7f416c7265616479207265676973746572656420617320612044414f206d656d6260008201527f6572000000000000000000000000000000000000000000000000000000000000602082015250565b60006101d5602283610168565b91506101e082610179565b604082019050919050565b60006020820190508181036000830152610204816101c8565b905091905056fea2646970667358221220f4cbedf45603f39521a9ba426966a6fa92d9b473648ef1f10dd113741ec604da64736f6c63430008180033",
  "linkReferences": {},
  "deployedLinkReferences": {}
}