{
  "_format": "hh-sol-artifact-1",
  "contractName": "ResearchPaperManagement",
  "sourceName": "contracts/ResearchPaperManagement.sol",
  "abi": [
    {
      "inputs": [
        {
          "internalType": "address",
          "name": "sender",
          "type": "address"
        },
        {
          "internalType": "uint256",
          "name": "tokenId",
          "type": "uint256"
        },
        {
          "internalType": "address",
          "name": "owner",
          "type": "address"
        }
      ],
      "name": "ERC721IncorrectOwner",
      "type": "error"
    },
    {
      "inputs": [
        {
          "internalType": "address",
          "name": "operator",
          "type": "address"
        },
        {
          "internalType": "uint256",
          "name": "tokenId",
          "type": "uint256"
        }
      ],
      "name": "ERC721InsufficientApproval",
      "type": "error"
    },
    {
      "inputs": [
        {
          "internalType": "address",
          "name": "approver",
          "type": "address"
        }
      ],
      "name": "ERC721InvalidApprover",
      "type": "error"
    },
    {
      "inputs": [
        {
          "internalType": "address",
          "name": "operator",
          "type": "address"
        }
      ],
      "name": "ERC721InvalidOperator",
      "type": "error"
    },
    {
      "inputs": [
        {
          "internalType": "address",
          "name": "owner",
          "type": "address"
        }
      ],
      "name": "ERC721InvalidOwner",
      "type": "error"
    },
    {
      "inputs": [
        {
          "internalType": "address",
          "name": "receiver",
          "type": "address"
        }
      ],
      "name": "ERC721InvalidReceiver",
      "type": "error"
    },
    {
      "inputs": [
        {
          "internalType": "address",
          "name": "sender",
          "type": "address"
        }
      ],
      "name": "ERC721InvalidSender",
      "type": "error"
    },
    {
      "inputs": [
        {
          "internalType": "uint256",
          "name": "tokenId",
          "type": "uint256"
        }
      ],
      "name": "ERC721NonexistentToken",
      "type": "error"
    },
    {
      "inputs": [
        {
          "internalType": "address",
          "name": "owner",
          "type": "address"
        }
      ],
      "name": "OwnableInvalidOwner",
      "type": "error"
    },
    {
      "inputs": [
        {
          "internalType": "address",
          "name": "account",
          "type": "address"
        }
      ],
      "name": "OwnableUnauthorizedAccount",
      "type": "error"
    },
    {
      "anonymous": false,
      "inputs": [
        {
          "indexed": true,
          "internalType": "address",
          "name": "owner",
          "type": "address"
        },
        {
          "indexed": true,
          "internalType": "address",
          "name": "approved",
          "type": "address"
        },
        {
          "indexed": true,
          "internalType": "uint256",
          "name": "tokenId",
          "type": "uint256"
        }
      ],
      "name": "Approval",
      "type": "event"
    },
    {
      "anonymous": false,
      "inputs": [
        {
          "indexed": true,
          "internalType": "address",
          "name": "owner",
          "type": "address"
        },
        {
          "indexed": true,
          "internalType": "address",
          "name": "operator",
          "type": "address"
        },
        {
          "indexed": false,
          "internalType": "bool",
          "name": "approved",
          "type": "bool"
        }
      ],
      "name": "ApprovalForAll",
      "type": "event"
    },
    {
      "anonymous": false,
      "inputs": [
        {
          "indexed": false,
          "internalType": "uint256",
          "name": "_fromTokenId",
          "type": "uint256"
        },
        {
          "indexed": false,
          "internalType": "uint256",
          "name": "_toTokenId",
          "type": "uint256"
        }
      ],
      "name": "BatchMetadataUpdate",
      "type": "event"
    },
    {
      "anonymous": false,
      "inputs": [
        {
          "indexed": true,
          "internalType": "uint256",
          "name": "paperId",
          "type": "uint256"
        },
        {
          "indexed": true,
          "internalType": "address",
          "name": "uploader",
          "type": "address"
        },
        {
          "indexed": true,
          "internalType": "address",
          "name": "contributor",
          "type": "address"
        },
        {
          "indexed": false,
          "internalType": "string",
          "name": "ipfsHash",
          "type": "string"
        }
      ],
      "name": "ContributionAccepted",
      "type": "event"
    },
    {
      "anonymous": false,
      "inputs": [
        {
          "indexed": true,
          "internalType": "uint256",
          "name": "paperId",
          "type": "uint256"
        },
        {
          "indexed": true,
          "internalType": "address",
          "name": "contributor",
          "type": "address"
        },
        {
          "indexed": false,
          "internalType": "string",
          "name": "ipfsHash",
          "type": "string"
        }
      ],
      "name": "ContributionRequested",
      "type": "event"
    },
    {
      "anonymous": false,
      "inputs": [
        {
          "indexed": true,
          "internalType": "uint256",
          "name": "paperId",
          "type": "uint256"
        },
        {
          "indexed": true,
          "internalType": "address",
          "name": "uploader",
          "type": "address"
        },
        {
          "indexed": false,
          "internalType": "uint256",
          "name": "amount",
          "type": "uint256"
        }
      ],
      "name": "FundsWithdrawn",
      "type": "event"
    },
    {
      "anonymous": false,
      "inputs": [
        {
          "indexed": false,
          "internalType": "uint256",
          "name": "_tokenId",
          "type": "uint256"
        }
      ],
      "name": "MetadataUpdate",
      "type": "event"
    },
    {
      "anonymous": false,
      "inputs": [
        {
          "indexed": true,
          "internalType": "address",
          "name": "previousOwner",
          "type": "address"
        },
        {
          "indexed": true,
          "internalType": "address",
          "name": "newOwner",
          "type": "address"
        }
      ],
      "name": "OwnershipTransferred",
      "type": "event"
    },
    {
      "anonymous": false,
      "inputs": [
        {
          "indexed": true,
          "internalType": "uint256",
          "name": "paperId",
          "type": "uint256"
        },
        {
          "indexed": true,
          "internalType": "address",
          "name": "investor",
          "type": "address"
        },
        {
          "indexed": false,
          "internalType": "uint256",
          "name": "amount",
          "type": "uint256"
        }
      ],
      "name": "ResearchPaperFunded",
      "type": "event"
    },
    {
      "anonymous": false,
      "inputs": [
        {
          "indexed": true,
          "internalType": "uint256",
          "name": "paperId",
          "type": "uint256"
        },
        {
          "indexed": true,
          "internalType": "address",
          "name": "reviewer",
          "type": "address"
        },
        {
          "indexed": false,
          "internalType": "uint8",
          "name": "score",
          "type": "uint8"
        },
        {
          "indexed": false,
          "internalType": "string",
          "name": "feedback",
          "type": "string"
        }
      ],
      "name": "ResearchPaperPeerReviewed",
      "type": "event"
    },
    {
      "anonymous": false,
      "inputs": [
        {
          "indexed": true,
          "internalType": "uint256",
          "name": "paperId",
          "type": "uint256"
        }
      ],
      "name": "ResearchPaperPublished",
      "type": "event"
    },
    {
      "anonymous": false,
      "inputs": [
        {
          "indexed": true,
          "internalType": "uint256",
          "name": "paperId",
          "type": "uint256"
        },
        {
          "indexed": true,
          "internalType": "address",
          "name": "buyer",
          "type": "address"
        }
      ],
      "name": "ResearchPaperPurchased",
      "type": "event"
    },
    {
      "anonymous": false,
      "inputs": [
        {
          "indexed": true,
          "internalType": "uint256",
          "name": "paperId",
          "type": "uint256"
        },
        {
          "indexed": true,
          "internalType": "address",
          "name": "uploader",
          "type": "address"
        },
        {
          "indexed": false,
          "internalType": "string",
          "name": "ipfsHash",
          "type": "string"
        }
      ],
      "name": "ResearchPaperUploaded",
      "type": "event"
    },
    {
      "anonymous": false,
      "inputs": [
        {
          "indexed": true,
          "internalType": "address",
          "name": "scientist",
          "type": "address"
        }
      ],
      "name": "ScientistRegistered",
      "type": "event"
    },
    {
      "anonymous": false,
      "inputs": [
        {
          "indexed": true,
          "internalType": "address",
          "name": "from",
          "type": "address"
        },
        {
          "indexed": true,
          "internalType": "address",
          "name": "to",
          "type": "address"
        },
        {
          "indexed": true,
          "internalType": "uint256",
          "name": "tokenId",
          "type": "uint256"
        }
      ],
      "name": "Transfer",
      "type": "event"
    },
    {
      "inputs": [
        {
          "internalType": "uint256",
          "name": "paperId",
          "type": "uint256"
        },
        {
          "internalType": "uint256",
          "name": "contributionIndex",
          "type": "uint256"
        }
      ],
      "name": "acceptContribution",
      "outputs": [],
      "stateMutability": "nonpayable",
      "type": "function"
    },
    {
      "inputs": [
        {
          "internalType": "uint256",
          "name": "",
          "type": "uint256"
        }
      ],
      "name": "allPaperIds",
      "outputs": [
        {
          "internalType": "uint256",
          "name": "",
          "type": "uint256"
        }
      ],
      "stateMutability": "view",
      "type": "function"
    },
    {
      "inputs": [
        {
          "internalType": "address",
          "name": "to",
          "type": "address"
        },
        {
          "internalType": "uint256",
          "name": "tokenId",
          "type": "uint256"
        }
      ],
      "name": "approve",
      "outputs": [],
      "stateMutability": "nonpayable",
      "type": "function"
    },
    {
      "inputs": [
        {
          "internalType": "address",
          "name": "owner",
          "type": "address"
        }
      ],
      "name": "balanceOf",
      "outputs": [
        {
          "internalType": "uint256",
          "name": "",
          "type": "uint256"
        }
      ],
      "stateMutability": "view",
      "type": "function"
    },
    {
      "inputs": [
        {
          "internalType": "uint256",
          "name": "paperId",
          "type": "uint256"
        }
      ],
      "name": "fundResearchPaper",
      "outputs": [],
      "stateMutability": "payable",
      "type": "function"
    },
    {
      "inputs": [],
      "name": "getAllPaperIds",
      "outputs": [
        {
          "internalType": "uint256[]",
          "name": "",
          "type": "uint256[]"
        }
      ],
      "stateMutability": "view",
      "type": "function"
    },
    {
      "inputs": [
        {
          "internalType": "uint256",
          "name": "tokenId",
          "type": "uint256"
        }
      ],
      "name": "getApproved",
      "outputs": [
        {
          "internalType": "address",
          "name": "",
          "type": "address"
        }
      ],
      "stateMutability": "view",
      "type": "function"
    },
    {
      "inputs": [
        {
          "internalType": "uint256",
          "name": "paperId",
          "type": "uint256"
        }
      ],
      "name": "getResearchPaperDetails",
      "outputs": [
        {
          "internalType": "string",
          "name": "name",
          "type": "string"
        },
        {
          "internalType": "string",
          "name": "description",
          "type": "string"
        },
        {
          "internalType": "address",
          "name": "uploader",
          "type": "address"
        },
        {
          "internalType": "string[]",
          "name": "ipfsHash",
          "type": "string[]"
        },
        {
          "internalType": "address[]",
          "name": "contributors",
          "type": "address[]"
        },
        {
          "internalType": "bool",
          "name": "isLocked",
          "type": "bool"
        },
        {
          "internalType": "uint256",
          "name": "totalFunding",
          "type": "uint256"
        },
        {
          "internalType": "bool",
          "name": "isCompleted",
          "type": "bool"
        },
        {
          "internalType": "uint256",
          "name": "peerReviewScores",
          "type": "uint256"
        },
        {
          "internalType": "string[]",
          "name": "feedback",
          "type": "string[]"
        },
        {
          "internalType": "uint8",
          "name": "peerReviewCount",
          "type": "uint8"
        }
      ],
      "stateMutability": "view",
      "type": "function"
    },
    {
      "inputs": [
        {
          "internalType": "address",
          "name": "owner",
          "type": "address"
        },
        {
          "internalType": "address",
          "name": "operator",
          "type": "address"
        }
      ],
      "name": "isApprovedForAll",
      "outputs": [
        {
          "internalType": "bool",
          "name": "",
          "type": "bool"
        }
      ],
      "stateMutability": "view",
      "type": "function"
    },
    {
      "inputs": [],
      "name": "name",
      "outputs": [
        {
          "internalType": "string",
          "name": "",
          "type": "string"
        }
      ],
      "stateMutability": "view",
      "type": "function"
    },
    {
      "inputs": [],
      "name": "owner",
      "outputs": [
        {
          "internalType": "address",
          "name": "",
          "type": "address"
        }
      ],
      "stateMutability": "view",
      "type": "function"
    },
    {
      "inputs": [
        {
          "internalType": "uint256",
          "name": "tokenId",
          "type": "uint256"
        }
      ],
      "name": "ownerOf",
      "outputs": [
        {
          "internalType": "address",
          "name": "",
          "type": "address"
        }
      ],
      "stateMutability": "view",
      "type": "function"
    },
    {
      "inputs": [],
      "name": "paperCounter",
      "outputs": [
        {
          "internalType": "uint256",
          "name": "",
          "type": "uint256"
        }
      ],
      "stateMutability": "view",
      "type": "function"
    },
    {
      "inputs": [
        {
          "internalType": "uint256",
          "name": "paperId",
          "type": "uint256"
        },
        {
          "internalType": "uint8",
          "name": "score",
          "type": "uint8"
        },
        {
          "internalType": "string",
          "name": "_feedback",
          "type": "string"
        }
      ],
      "name": "peerReviewResearchPaper",
      "outputs": [],
      "stateMutability": "nonpayable",
      "type": "function"
    },
    {
      "inputs": [],
      "name": "registerScientist",
      "outputs": [],
      "stateMutability": "nonpayable",
      "type": "function"
    },
    {
      "inputs": [],
      "name": "renounceOwnership",
      "outputs": [],
      "stateMutability": "nonpayable",
      "type": "function"
    },
    {
      "inputs": [
        {
          "internalType": "uint256",
          "name": "paperId",
          "type": "uint256"
        },
        {
          "internalType": "string",
          "name": "_ipfsHash",
          "type": "string"
        }
      ],
      "name": "requestToContribute",
      "outputs": [],
      "stateMutability": "nonpayable",
      "type": "function"
    },
    {
      "inputs": [
        {
          "internalType": "address",
          "name": "to",
          "type": "address"
        },
        {
          "internalType": "string",
          "name": "uri",
          "type": "string"
        }
      ],
      "name": "safeMint",
      "outputs": [],
      "stateMutability": "nonpayable",
      "type": "function"
    },
    {
      "inputs": [
        {
          "internalType": "address",
          "name": "from",
          "type": "address"
        },
        {
          "internalType": "address",
          "name": "to",
          "type": "address"
        },
        {
          "internalType": "uint256",
          "name": "tokenId",
          "type": "uint256"
        }
      ],
      "name": "safeTransferFrom",
      "outputs": [],
      "stateMutability": "nonpayable",
      "type": "function"
    },
    {
      "inputs": [
        {
          "internalType": "address",
          "name": "from",
          "type": "address"
        },
        {
          "internalType": "address",
          "name": "to",
          "type": "address"
        },
        {
          "internalType": "uint256",
          "name": "tokenId",
          "type": "uint256"
        },
        {
          "internalType": "bytes",
          "name": "data",
          "type": "bytes"
        }
      ],
      "name": "safeTransferFrom",
      "outputs": [],
      "stateMutability": "nonpayable",
      "type": "function"
    },
    {
      "inputs": [
        {
          "internalType": "address",
          "name": "operator",
          "type": "address"
        },
        {
          "internalType": "bool",
          "name": "approved",
          "type": "bool"
        }
      ],
      "name": "setApprovalForAll",
      "outputs": [],
      "stateMutability": "nonpayable",
      "type": "function"
    },
    {
      "inputs": [
        {
          "internalType": "bytes4",
          "name": "interfaceId",
          "type": "bytes4"
        }
      ],
      "name": "supportsInterface",
      "outputs": [
        {
          "internalType": "bool",
          "name": "",
          "type": "bool"
        }
      ],
      "stateMutability": "view",
      "type": "function"
    },
    {
      "inputs": [],
      "name": "symbol",
      "outputs": [
        {
          "internalType": "string",
          "name": "",
          "type": "string"
        }
      ],
      "stateMutability": "view",
      "type": "function"
    },
    {
      "inputs": [
        {
          "internalType": "uint256",
          "name": "tokenId",
          "type": "uint256"
        }
      ],
      "name": "tokenURI",
      "outputs": [
        {
          "internalType": "string",
          "name": "",
          "type": "string"
        }
      ],
      "stateMutability": "view",
      "type": "function"
    },
    {
      "inputs": [
        {
          "internalType": "address",
          "name": "from",
          "type": "address"
        },
        {
          "internalType": "address",
          "name": "to",
          "type": "address"
        },
        {
          "internalType": "uint256",
          "name": "tokenId",
          "type": "uint256"
        }
      ],
      "name": "transferFrom",
      "outputs": [],
      "stateMutability": "nonpayable",
      "type": "function"
    },
    {
      "inputs": [
        {
          "internalType": "address",
          "name": "newOwner",
          "type": "address"
        }
      ],
      "name": "transferOwnership",
      "outputs": [],
      "stateMutability": "nonpayable",
      "type": "function"
    },
    {
      "inputs": [
        {
          "internalType": "string",
          "name": "name",
          "type": "string"
        },
        {
          "internalType": "string",
          "name": "_desc",
          "type": "string"
        },
        {
          "internalType": "string",
          "name": "_ipfsHash",
          "type": "string"
        }
      ],
      "name": "uploadResearchPaper",
      "outputs": [],
      "stateMutability": "nonpayable",
      "type": "function"
    },
    {
      "inputs": [
        {
          "internalType": "uint256",
          "name": "paperId",
          "type": "uint256"
        }
      ],
      "name": "withdrawFunds",
      "outputs": [],
      "stateMutability": "nonpayable",
      "type": "function"
    }
  ],
  "bytecode": "0x60806040523480156200001157600080fd5b5033806040518060400160405280600881526020017f5363694d6564616c0000000000000000000000000000000000000000000000008152506040518060400160405280600681526020017f5343494e46540000000000000000000000000000000000000000000000000000815250816001908162000091919062000474565b508060029081620000a3919062000474565b505050600073ffffffffffffffffffffffffffffffffffffffff168173ffffffffffffffffffffffffffffffffffffffff16036200011b5760006040517f1e4fbdf7000000000000000000000000000000000000000000000000000000008152600401620001129190620005a0565b60405180910390fd5b6200012c816200013460201b60201c565b5050620005bd565b6000600860009054906101000a900473ffffffffffffffffffffffffffffffffffffffff16905081600860006101000a81548173ffffffffffffffffffffffffffffffffffffffff021916908373ffffffffffffffffffffffffffffffffffffffff1602179055508173ffffffffffffffffffffffffffffffffffffffff168173ffffffffffffffffffffffffffffffffffffffff167f8be0079c531659141344cd1fd0a4f28419497f9722a3daafe3b4186f6b6457e060405160405180910390a35050565b600081519050919050565b7f4e487b7100000000000000000000000000000000000000000000000000000000600052604160045260246000fd5b7f4e487b7100000000000000000000000000000000000000000000000000000000600052602260045260246000fd5b600060028204905060018216806200027c57607f821691505b60208210810362000292576200029162000234565b5b50919050565b60008190508160005260206000209050919050565b60006020601f8301049050919050565b600082821b905092915050565b600060088302620002fc7fffffffffffffffffffffffffffffffffffffffffffffffffffffffffffffffff82620002bd565b620003088683620002bd565b95508019841693508086168417925050509392505050565b6000819050919050565b6000819050919050565b6000620003556200034f620003498462000320565b6200032a565b62000320565b9050919050565b6000819050919050565b620003718362000334565b6200038962000380826200035c565b848454620002ca565b825550505050565b600090565b620003a062000391565b620003ad81848462000366565b505050565b5b81811015620003d557620003c960008262000396565b600181019050620003b3565b5050565b601f8211156200042457620003ee8162000298565b620003f984620002ad565b8101602085101562000409578190505b620004216200041885620002ad565b830182620003b2565b50505b505050565b600082821c905092915050565b6000620004496000198460080262000429565b1980831691505092915050565b600062000464838362000436565b9150826002028217905092915050565b6200047f82620001fa565b67ffffffffffffffff8111156200049b576200049a62000205565b5b620004a7825462000263565b620004b4828285620003d9565b600060209050601f831160018114620004ec5760008415620004d7578287015190505b620004e3858262000456565b86555062000553565b601f198416620004fc8662000298565b60005b828110156200052657848901518255600182019150602085019450602081019050620004ff565b8683101562000546578489015162000542601f89168262000436565b8355505b6001600288020188555050505b505050505050565b600073ffffffffffffffffffffffffffffffffffffffff82169050919050565b600062000588826200055b565b9050919050565b6200059a816200057b565b82525050565b6000602082019050620005b760008301846200058f565b92915050565b6155dc80620005cd6000396000f3fe6080604052600436106101b65760003560e01c806370a08231116100ec578063b88d4fde1161008a578063d204c45e11610064578063d204c45e14610600578063e985e9c514610629578063f09bc69314610666578063f2fde38b14610691576101b6565b8063b88d4fde14610571578063c29ee3991461059a578063c87b56dd146105c3576101b6565b80638da5cb5b116100c65780638da5cb5b146104b557806395d89b41146104e0578063a22cb4651461050b578063a64831c314610534576101b6565b806370a08231146104385780637101109f14610475578063715018a61461049e576101b6565b80631749f05f11610159578063365422ec11610133578063365422ec1461036257806342842e0e146103a95780635b55dd17146103d25780636352211e146103fb576101b6565b80631749f05f146102e557806318aa98521461031057806323b872dd14610339576101b6565b8063081812fc11610195578063081812fc1461023f578063095ea7b31461027c57806310bb5e05146102a5578063155dd5ee146102bc576101b6565b80627a1722146101bb57806301ffc9a7146101d757806306fdde0314610214575b600080fd5b6101d560048036038101906101d09190613822565b6106ba565b005b3480156101e357600080fd5b506101fe60048036038101906101f991906138a7565b610917565b60405161020b91906138ef565b60405180910390f35b34801561022057600080fd5b50610229610929565b604051610236919061399a565b60405180910390f35b34801561024b57600080fd5b5061026660048036038101906102619190613822565b6109bb565b60405161027391906139fd565b60405180910390f35b34801561028857600080fd5b506102a3600480360381019061029e9190613a44565b6109d7565b005b3480156102b157600080fd5b506102ba6109ed565b005b3480156102c857600080fd5b506102e360048036038101906102de9190613822565b610b1b565b005b3480156102f157600080fd5b506102fa610fe8565b6040516103079190613a93565b60405180910390f35b34801561031c57600080fd5b5061033760048036038101906103329190613be3565b610fee565b005b34801561034557600080fd5b50610360600480360381019061035b9190613c3f565b611297565b005b34801561036e57600080fd5b5061038960048036038101906103849190613822565b611399565b6040516103a09b9a99989796959493929190613e78565b60405180910390f35b3480156103b557600080fd5b506103d060048036038101906103cb9190613c3f565b6117b9565b005b3480156103de57600080fd5b506103f960048036038101906103f49190613f72565b6117d9565b005b34801561040757600080fd5b50610422600480360381019061041d9190613822565b611acd565b60405161042f91906139fd565b60405180910390f35b34801561044457600080fd5b5061045f600480360381019061045a9190613fe1565b611adf565b60405161046c9190613a93565b60405180910390f35b34801561048157600080fd5b5061049c6004803603810190610497919061400e565b611b99565b005b3480156104aa57600080fd5b506104b3611de9565b005b3480156104c157600080fd5b506104ca611dfd565b6040516104d791906139fd565b60405180910390f35b3480156104ec57600080fd5b506104f5611e27565b604051610502919061399a565b60405180910390f35b34801561051757600080fd5b50610532600480360381019061052d91906140e1565b611eb9565b005b34801561054057600080fd5b5061055b60048036038101906105569190613822565b611ecf565b6040516105689190613a93565b60405180910390f35b34801561057d57600080fd5b50610598600480360381019061059391906141c2565b611ef3565b005b3480156105a657600080fd5b506105c160048036038101906105bc9190614245565b611f10565b005b3480156105cf57600080fd5b506105ea60048036038101906105e59190613822565b6123a6565b6040516105f7919061399a565b60405180910390f35b34801561060c57600080fd5b5061062760048036038101906106229190614285565b6123b8565b005b34801561063557600080fd5b50610650600480360381019061064b91906142e1565b6123f4565b60405161065d91906138ef565b60405180910390f35b34801561067257600080fd5b5061067b612488565b60405161068891906143df565b60405180910390f35b34801561069d57600080fd5b506106b860048036038101906106b39190613fe1565b6124e0565b005b6000600b60008381526020019081526020016000209050600073ffffffffffffffffffffffffffffffffffffffff168160020160009054906101000a900473ffffffffffffffffffffffffffffffffffffffff1673ffffffffffffffffffffffffffffffffffffffff1603610764576040517f08c379a000000000000000000000000000000000000000000000000000000000815260040161075b9061444d565b60405180910390fd5b8060050160009054906101000a900460ff16156107b6576040517f08c379a00000000000000000000000000000000000000000000000000000000081526004016107ad906144df565b60405180910390fd5b80600a0160019054906101000a900460ff1615610808576040517f08c379a00000000000000000000000000000000000000000000000000000000081526004016107ff90614571565b60405180910390fd5b6000341161084b576040517f08c379a000000000000000000000000000000000000000000000000000000000815260040161084290614603565b60405180910390fd5b6000349050808260060160008282546108649190614652565b92505081905550808260070160003373ffffffffffffffffffffffffffffffffffffffff1673ffffffffffffffffffffffffffffffffffffffff16815260200190815260200160002060008282546108bc9190614652565b925050819055503373ffffffffffffffffffffffffffffffffffffffff16837f01042e389f29a6fb798bd1ec7081cba60e637147668b6700c50e32e95ebac5d98360405161090a9190613a93565b60405180910390a3505050565b600061092282612566565b9050919050565b606060018054610938906146b5565b80601f0160208091040260200160405190810160405280929190818152602001828054610964906146b5565b80156109b15780601f10610986576101008083540402835291602001916109b1565b820191906000526020600020905b81548152906001019060200180831161099457829003601f168201915b5050505050905090565b60006109c6826125c7565b506109d08261264f565b9050919050565b6109e982826109e461268c565b612694565b5050565b6000803373ffffffffffffffffffffffffffffffffffffffff1673ffffffffffffffffffffffffffffffffffffffff16815260200190815260200160002060000160009054906101000a900460ff1615610a7c576040517f08c379a0000000000000000000000000000000000000000000000000000000008152600401610a7390614758565b60405180910390fd5b60016000803373ffffffffffffffffffffffffffffffffffffffff1673ffffffffffffffffffffffffffffffffffffffff16815260200190815260200160002060000160006101000a81548160ff0219169083151502179055503373ffffffffffffffffffffffffffffffffffffffff167fe57694be0e3c8f1dac61e75df3942362c6f7ccdcf9b69b623a6a86f0befd4d0d60405160405180910390a2565b6000600b600083815260200190815260200160002090508060020160009054906101000a900473ffffffffffffffffffffffffffffffffffffffff1673ffffffffffffffffffffffffffffffffffffffff163373ffffffffffffffffffffffffffffffffffffffff1614610bc4576040517f08c379a0000000000000000000000000000000000000000000000000000000008152600401610bbb906147ea565b60405180910390fd5b80600a0160019054906101000a900460ff1615610c16576040517f08c379a0000000000000000000000000000000000000000000000000000000008152600401610c0d9061487c565b60405180910390fd5b60008160060154905060008111610c62576040517f08c379a0000000000000000000000000000000000000000000000000000000008152600401610c599061490e565b60405180910390fd5b6000600282610c71919061495d565b90506000836003018054905082610c88919061495d565b905060005b8460030180549050811015610e24576000856003018281548110610cb457610cb361498e565b5b9060005260206000200160009054906101000a900473ffffffffffffffffffffffffffffffffffffffff169050828660070160008373ffffffffffffffffffffffffffffffffffffffff1673ffffffffffffffffffffffffffffffffffffffff1681526020019081526020016000206000828254610d329190614652565b925050819055508073ffffffffffffffffffffffffffffffffffffffff166108fc849081150290604051600060405180830381858888f19350505050158015610d7f573d6000803e3d6000fd5b50610e1681876000018054610d93906146b5565b80601f0160208091040260200160405190810160405280929190818152602001828054610dbf906146b5565b8015610e0c5780601f10610de157610100808354040283529160200191610e0c565b820191906000526020600020905b815481529060010190602001808311610def57829003601f168201915b50505050506123b8565b508080600101915050610c8d565b5060008284610e3391906149bd565b9050808560070160003373ffffffffffffffffffffffffffffffffffffffff1673ffffffffffffffffffffffffffffffffffffffff1681526020019081526020016000206000828254610e869190614652565b925050819055503373ffffffffffffffffffffffffffffffffffffffff166108fc829081150290604051600060405180830381858888f19350505050158015610ed3573d6000803e3d6000fd5b50610f6a33866000018054610ee7906146b5565b80601f0160208091040260200160405190810160405280929190818152602001828054610f13906146b5565b8015610f605780601f10610f3557610100808354040283529160200191610f60565b820191906000526020600020905b815481529060010190602001808311610f4357829003601f168201915b50505050506123b8565b60008560060181905550600185600a0160016101000a81548160ff0219169083151502179055503373ffffffffffffffffffffffffffffffffffffffff16867ff440aec6b52895984d061d622e6edeba6210f7c3e059be920663140c084560d786604051610fd89190613a93565b60405180910390a3505050505050565b600d5481565b6000803373ffffffffffffffffffffffffffffffffffffffff1673ffffffffffffffffffffffffffffffffffffffff16815260200190815260200160002060000160009054906101000a900460ff1661107c576040517f08c379a000000000000000000000000000000000000000000000000000000000815260040161107390614a63565b60405180910390fd5b6000600b600084815260200190815260200160002090508060050160009054906101000a900460ff16156110e5576040517f08c379a00000000000000000000000000000000000000000000000000000000081526004016110dc90614af5565b60405180910390fd5b8060020160009054906101000a900473ffffffffffffffffffffffffffffffffffffffff1673ffffffffffffffffffffffffffffffffffffffff163373ffffffffffffffffffffffffffffffffffffffff1603611177576040517f08c379a000000000000000000000000000000000000000000000000000000000815260040161116e90614b87565b60405180910390fd5b600060405180604001604052808481526020013373ffffffffffffffffffffffffffffffffffffffff168152509050600a600085815260200190815260200160002081908060018154018082558091505060019003906000526020600020906002020160009091909190915060008201518160000190816111f89190614d53565b5060208201518160010160006101000a81548173ffffffffffffffffffffffffffffffffffffffff021916908373ffffffffffffffffffffffffffffffffffffffff16021790555050503373ffffffffffffffffffffffffffffffffffffffff16847fd3c0e07c40699ed71a80ac6b98d76b94cde4900e3765fec5612317e8d54cf7b485604051611289919061399a565b60405180910390a350505050565b600073ffffffffffffffffffffffffffffffffffffffff168273ffffffffffffffffffffffffffffffffffffffff16036113095760006040517f64a0ae9200000000000000000000000000000000000000000000000000000000815260040161130091906139fd565b60405180910390fd5b600061131d838361131861268c565b6126a6565b90508373ffffffffffffffffffffffffffffffffffffffff168173ffffffffffffffffffffffffffffffffffffffff1614611393578382826040517f64283d7b00000000000000000000000000000000000000000000000000000000815260040161138a93929190614e25565b60405180910390fd5b50505050565b60608060006060806000806000806060600080600b60008e8152602001908152602001600020905080600001816001018260020160009054906101000a900473ffffffffffffffffffffffffffffffffffffffff1683600401846003018560050160009054906101000a900460ff16866006015487600a0160019054906101000a900460ff168860080160009054906101000a900460ff16896009018a600a0160009054906101000a900460ff168a8054611453906146b5565b80601f016020809104026020016040519081016040528092919081815260200182805461147f906146b5565b80156114cc5780601f106114a1576101008083540402835291602001916114cc565b820191906000526020600020905b8154815290600101906020018083116114af57829003601f168201915b50505050509a508980546114df906146b5565b80601f016020809104026020016040519081016040528092919081815260200182805461150b906146b5565b80156115585780601f1061152d57610100808354040283529160200191611558565b820191906000526020600020905b81548152906001019060200180831161153b57829003601f168201915b5050505050995087805480602002602001604051908101604052809291908181526020016000905b8282101561162c57838290600052602060002001805461159f906146b5565b80601f01602080910402602001604051908101604052809291908181526020018280546115cb906146b5565b80156116185780601f106115ed57610100808354040283529160200191611618565b820191906000526020600020905b8154815290600101906020018083116115fb57829003601f168201915b505050505081526020019060010190611580565b505050509750868054806020026020016040519081016040528092919081815260200182805480156116b357602002820191906000526020600020905b8160009054906101000a900473ffffffffffffffffffffffffffffffffffffffff1673ffffffffffffffffffffffffffffffffffffffff1681526020019060010190808311611669575b505050505096508260ff16925081805480602002602001604051908101604052809291908181526020016000905b8282101561178d578382906000526020600020018054611700906146b5565b80601f016020809104026020016040519081016040528092919081815260200182805461172c906146b5565b80156117795780601f1061174e57610100808354040283529160200191611779565b820191906000526020600020905b81548152906001019060200180831161175c57829003601f168201915b5050505050815260200190600101906116e1565b5050505091509b509b509b509b509b509b509b509b509b509b509b505091939597999b90929496989a50565b6117d483838360405180602001604052806000815250611ef3565b505050565b6000803373ffffffffffffffffffffffffffffffffffffffff1673ffffffffffffffffffffffffffffffffffffffff16815260200190815260200160002060000160009054906101000a900460ff16611867576040517f08c379a000000000000000000000000000000000000000000000000000000000815260040161185e90614a63565b60405180910390fd5b823373ffffffffffffffffffffffffffffffffffffffff16600c600083815260200190815260200160002060009054906101000a900473ffffffffffffffffffffffffffffffffffffffff1673ffffffffffffffffffffffffffffffffffffffff1603611909576040517f08c379a000000000000000000000000000000000000000000000000000000000815260040161190090614ece565b60405180910390fd5b6000600b6000868152602001908152602001600020905060018460ff16101580156119385750600a8460ff1611155b611977576040517f08c379a000000000000000000000000000000000000000000000000000000000815260040161196e90614f60565b60405180910390fd5b838160080160008282829054906101000a900460ff166119979190614f80565b92506101000a81548160ff021916908360ff16021790555080600901839080600181540180825580915050600190039060005260206000200160009091909190915090816119e59190614d53565b503373ffffffffffffffffffffffffffffffffffffffff16857f42917649f70d2cf58d178b638566295baa56001aa117ad383d4ea18f0d5721ad8686604051611a2f929190614fb5565b60405180910390a380600a01600081819054906101000a900460ff1680929190611a5890614fe5565b91906101000a81548160ff021916908360ff16021790555050600581600a0160009054906101000a900460ff1660ff1610611ac657611a988560006128c0565b847f619b6d262bf796867b496768f7a6ede6f8aa3180ef1bf466de521b662fcfce9960405160405180910390a25b5050505050565b6000611ad8826125c7565b9050919050565b60008073ffffffffffffffffffffffffffffffffffffffff168273ffffffffffffffffffffffffffffffffffffffff1603611b525760006040517f89c62b64000000000000000000000000000000000000000000000000000000008152600401611b4991906139fd565b60405180910390fd5b600460008373ffffffffffffffffffffffffffffffffffffffff1673ffffffffffffffffffffffffffffffffffffffff168152602001908152602001600020549050919050565b6000803373ffffffffffffffffffffffffffffffffffffffff1673ffffffffffffffffffffffffffffffffffffffff16815260200190815260200160002060000160009054906101000a900460ff16611c27576040517f08c379a0000000000000000000000000000000000000000000000000000000008152600401611c1e90614a63565b60405180910390fd5b600d6000815480929190611c3a9061500e565b91905055506000600d5490506000600b6000838152602001908152602001600020905084816000019081611c6e9190614d53565b5083816001019081611c809190614d53565b50338160020160006101000a81548173ffffffffffffffffffffffffffffffffffffffff021916908373ffffffffffffffffffffffffffffffffffffffff1602179055508060040183908060018154018082558091505060019003906000526020600020016000909190919091509081611cfa9190614d53565b5060018160050160006101000a81548160ff02191690831515021790555033600c600084815260200190815260200160002060006101000a81548173ffffffffffffffffffffffffffffffffffffffff021916908373ffffffffffffffffffffffffffffffffffffffff160217905550600e8290806001815401808255809150506001900390600052602060002001600090919091909150553373ffffffffffffffffffffffffffffffffffffffff16827ffd83fda0d17880076ce272b68f2d1e177c35a3d7386456602f3e3a97ee3585b285604051611dda919061399a565b60405180910390a35050505050565b611df16128f2565b611dfb6000612979565b565b6000600860009054906101000a900473ffffffffffffffffffffffffffffffffffffffff16905090565b606060028054611e36906146b5565b80601f0160208091040260200160405190810160405280929190818152602001828054611e62906146b5565b8015611eaf5780601f10611e8457610100808354040283529160200191611eaf565b820191906000526020600020905b815481529060010190602001808311611e9257829003601f168201915b5050505050905090565b611ecb611ec461268c565b8383612a3f565b5050565b600e8181548110611edf57600080fd5b906000526020600020016000915090505481565b611efe848484611297565b611f0a84848484612bae565b50505050565b81600c600082815260200190815260200160002060009054906101000a900473ffffffffffffffffffffffffffffffffffffffff1673ffffffffffffffffffffffffffffffffffffffff163373ffffffffffffffffffffffffffffffffffffffff1614611fb2576040517f08c379a0000000000000000000000000000000000000000000000000000000008152600401611fa9906150c8565b60405180910390fd5b6000600b600085815260200190815260200160002090508060050160009054906101000a900460ff161561201b576040517f08c379a000000000000000000000000000000000000000000000000000000000815260040161201290614af5565b60405180910390fd5b600a6000858152602001908152602001600020805490508310612073576040517f08c379a000000000000000000000000000000000000000000000000000000000815260040161206a90615134565b60405180910390fd5b6000600a6000868152602001908152602001600020848154811061209a5761209961498e565b5b90600052602060002090600202019050816003018160010160009054906101000a900473ffffffffffffffffffffffffffffffffffffffff169080600181540180825580915050600190039060005260206000200160009091909190916101000a81548173ffffffffffffffffffffffffffffffffffffffff021916908373ffffffffffffffffffffffffffffffffffffffff160217905550816004018160000190806001815401808255809150506001900390600052602060002001600090919091909150908161216c919061517f565b508060010160009054906101000a900473ffffffffffffffffffffffffffffffffffffffff1673ffffffffffffffffffffffffffffffffffffffff163373ffffffffffffffffffffffffffffffffffffffff16867f254370b4e93e5f7d1eaaafb6e20e26890577db5f41157b0839baa106b03fc1d9846000016040516121f291906152eb565b60405180910390a46001600a60008781526020019081526020016000208054905061221d91906149bd565b84101561232c57600a60008681526020019081526020016000206001600a60008881526020019081526020016000208054905061225a91906149bd565b8154811061226b5761226a61498e565b5b9060005260206000209060020201600a6000878152602001908152602001600020858154811061229e5761229d61498e565b5b9060005260206000209060020201600082018160000190816122c09190615323565b506001820160009054906101000a900473ffffffffffffffffffffffffffffffffffffffff168160010160006101000a81548173ffffffffffffffffffffffffffffffffffffffff021916908373ffffffffffffffffffffffffffffffffffffffff1602179055509050505b600a600086815260200190815260200160002080548061234f5761234e61540b565b5b600190038181906000526020600020906002020160008082016000612374919061377b565b6001820160006101000a81549073ffffffffffffffffffffffffffffffffffffffff0219169055505090555050505050565b60606123b182612d65565b9050919050565b6123c06128f2565b6000600960008154809291906123d59061500e565b9190505590506123e58382612e78565b6123ef8183612e96565b505050565b6000600660008473ffffffffffffffffffffffffffffffffffffffff1673ffffffffffffffffffffffffffffffffffffffff16815260200190815260200160002060008373ffffffffffffffffffffffffffffffffffffffff1673ffffffffffffffffffffffffffffffffffffffff16815260200190815260200160002060009054906101000a900460ff16905092915050565b6060600e8054806020026020016040519081016040528092919081815260200182805480156124d657602002820191906000526020600020905b8154815260200190600101908083116124c2575b5050505050905090565b6124e86128f2565b600073ffffffffffffffffffffffffffffffffffffffff168173ffffffffffffffffffffffffffffffffffffffff160361255a5760006040517f1e4fbdf700000000000000000000000000000000000000000000000000000000815260040161255191906139fd565b60405180910390fd5b61256381612979565b50565b6000634906490660e01b7bffffffffffffffffffffffffffffffffffffffffffffffffffffffff1916827bffffffffffffffffffffffffffffffffffffffffffffffffffffffff191614806125c057506125bf82612ef2565b5b9050919050565b6000806125d383612fd4565b9050600073ffffffffffffffffffffffffffffffffffffffff168173ffffffffffffffffffffffffffffffffffffffff160361264657826040517f7e27328900000000000000000000000000000000000000000000000000000000815260040161263d9190613a93565b60405180910390fd5b80915050919050565b60006005600083815260200190815260200160002060009054906101000a900473ffffffffffffffffffffffffffffffffffffffff169050919050565b600033905090565b6126a18383836001613011565b505050565b6000806126b284612fd4565b9050600073ffffffffffffffffffffffffffffffffffffffff168373ffffffffffffffffffffffffffffffffffffffff16146126f4576126f38184866131d6565b5b600073ffffffffffffffffffffffffffffffffffffffff168173ffffffffffffffffffffffffffffffffffffffff161461278557612736600085600080613011565b6001600460008373ffffffffffffffffffffffffffffffffffffffff1673ffffffffffffffffffffffffffffffffffffffff168152602001908152602001600020600082825403925050819055505b600073ffffffffffffffffffffffffffffffffffffffff168573ffffffffffffffffffffffffffffffffffffffff1614612808576001600460008773ffffffffffffffffffffffffffffffffffffffff1673ffffffffffffffffffffffffffffffffffffffff168152602001908152602001600020600082825401925050819055505b846003600086815260200190815260200160002060006101000a81548173ffffffffffffffffffffffffffffffffffffffff021916908373ffffffffffffffffffffffffffffffffffffffff160217905550838573ffffffffffffffffffffffffffffffffffffffff168273ffffffffffffffffffffffffffffffffffffffff167fddf252ad1be2c89b69c2b068fc378daa952ba7f163c4a11628f55a4df523b3ef60405160405180910390a4809150509392505050565b80600b600084815260200190815260200160002060050160006101000a81548160ff0219169083151502179055505050565b6128fa61268c565b73ffffffffffffffffffffffffffffffffffffffff16612918611dfd565b73ffffffffffffffffffffffffffffffffffffffff16146129775761293b61268c565b6040517f118cdaa700000000000000000000000000000000000000000000000000000000815260040161296e91906139fd565b60405180910390fd5b565b6000600860009054906101000a900473ffffffffffffffffffffffffffffffffffffffff16905081600860006101000a81548173ffffffffffffffffffffffffffffffffffffffff021916908373ffffffffffffffffffffffffffffffffffffffff1602179055508173ffffffffffffffffffffffffffffffffffffffff168173ffffffffffffffffffffffffffffffffffffffff167f8be0079c531659141344cd1fd0a4f28419497f9722a3daafe3b4186f6b6457e060405160405180910390a35050565b600073ffffffffffffffffffffffffffffffffffffffff168273ffffffffffffffffffffffffffffffffffffffff1603612ab057816040517f5b08ba18000000000000000000000000000000000000000000000000000000008152600401612aa791906139fd565b60405180910390fd5b80600660008573ffffffffffffffffffffffffffffffffffffffff1673ffffffffffffffffffffffffffffffffffffffff16815260200190815260200160002060008473ffffffffffffffffffffffffffffffffffffffff1673ffffffffffffffffffffffffffffffffffffffff16815260200190815260200160002060006101000a81548160ff0219169083151502179055508173ffffffffffffffffffffffffffffffffffffffff168373ffffffffffffffffffffffffffffffffffffffff167f17307eab39ab6107e8899845ad3d59bd9653f200f220920489ca2b5937696c3183604051612ba191906138ef565b60405180910390a3505050565b60008373ffffffffffffffffffffffffffffffffffffffff163b1115612d5f578273ffffffffffffffffffffffffffffffffffffffff1663150b7a02612bf261268c565b8685856040518563ffffffff1660e01b8152600401612c14949392919061548f565b6020604051808303816000875af1925050508015612c5057506040513d601f19601f82011682018060405250810190612c4d91906154f0565b60015b612cd4573d8060008114612c80576040519150601f19603f3d011682016040523d82523d6000602084013e612c85565b606091505b506000815103612ccc57836040517f64a0ae92000000000000000000000000000000000000000000000000000000008152600401612cc391906139fd565b60405180910390fd5b805181602001fd5b63150b7a0260e01b7bffffffffffffffffffffffffffffffffffffffffffffffffffffffff1916817bffffffffffffffffffffffffffffffffffffffffffffffffffffffff191614612d5d57836040517f64a0ae92000000000000000000000000000000000000000000000000000000008152600401612d5491906139fd565b60405180910390fd5b505b50505050565b6060612d70826125c7565b506000600760008481526020019081526020016000208054612d91906146b5565b80601f0160208091040260200160405190810160405280929190818152602001828054612dbd906146b5565b8015612e0a5780601f10612ddf57610100808354040283529160200191612e0a565b820191906000526020600020905b815481529060010190602001808311612ded57829003601f168201915b505050505090506000612e1b61329a565b90506000815103612e30578192505050612e73565b600082511115612e65578082604051602001612e4d929190615559565b60405160208183030381529060405292505050612e73565b612e6e846132b1565b925050505b919050565b612e9282826040518060200160405280600081525061331a565b5050565b80600760008481526020019081526020016000209081612eb69190614d53565b507ff8e1a15aba9398e019f0b49df1a4fde98ee17ae345cb5f6b5e2c27f5033e8ce782604051612ee69190613a93565b60405180910390a15050565b60007f80ac58cd000000000000000000000000000000000000000000000000000000007bffffffffffffffffffffffffffffffffffffffffffffffffffffffff1916827bffffffffffffffffffffffffffffffffffffffffffffffffffffffff19161480612fbd57507f5b5e139f000000000000000000000000000000000000000000000000000000007bffffffffffffffffffffffffffffffffffffffffffffffffffffffff1916827bffffffffffffffffffffffffffffffffffffffffffffffffffffffff1916145b80612fcd5750612fcc82613336565b5b9050919050565b60006003600083815260200190815260200160002060009054906101000a900473ffffffffffffffffffffffffffffffffffffffff169050919050565b808061304a5750600073ffffffffffffffffffffffffffffffffffffffff168273ffffffffffffffffffffffffffffffffffffffff1614155b1561317e57600061305a846125c7565b9050600073ffffffffffffffffffffffffffffffffffffffff168373ffffffffffffffffffffffffffffffffffffffff16141580156130c557508273ffffffffffffffffffffffffffffffffffffffff168173ffffffffffffffffffffffffffffffffffffffff1614155b80156130d857506130d681846123f4565b155b1561311a57826040517fa9fbf51f00000000000000000000000000000000000000000000000000000000815260040161311191906139fd565b60405180910390fd5b811561317c57838573ffffffffffffffffffffffffffffffffffffffff168273ffffffffffffffffffffffffffffffffffffffff167f8c5be1e5ebec7d5bd14f71427d1e84f3dd0314c0f7b2291e5b200ac8c7c3b92560405160405180910390a45b505b836005600085815260200190815260200160002060006101000a81548173ffffffffffffffffffffffffffffffffffffffff021916908373ffffffffffffffffffffffffffffffffffffffff16021790555050505050565b6131e18383836133a0565b61329557600073ffffffffffffffffffffffffffffffffffffffff168373ffffffffffffffffffffffffffffffffffffffff160361325657806040517f7e27328900000000000000000000000000000000000000000000000000000000815260040161324d9190613a93565b60405180910390fd5b81816040517f177e802f00000000000000000000000000000000000000000000000000000000815260040161328c92919061557d565b60405180910390fd5b505050565b606060405180602001604052806000815250905090565b60606132bc826125c7565b5060006132c761329a565b905060008151116132e75760405180602001604052806000815250613312565b806132f184613461565b604051602001613302929190615559565b6040516020818303038152906040525b915050919050565b613324838361352f565b6133316000848484612bae565b505050565b60007f01ffc9a7000000000000000000000000000000000000000000000000000000007bffffffffffffffffffffffffffffffffffffffffffffffffffffffff1916827bffffffffffffffffffffffffffffffffffffffffffffffffffffffff1916149050919050565b60008073ffffffffffffffffffffffffffffffffffffffff168373ffffffffffffffffffffffffffffffffffffffff161415801561345857508273ffffffffffffffffffffffffffffffffffffffff168473ffffffffffffffffffffffffffffffffffffffff161480613419575061341884846123f4565b5b8061345757508273ffffffffffffffffffffffffffffffffffffffff1661343f8361264f565b73ffffffffffffffffffffffffffffffffffffffff16145b5b90509392505050565b60606000600161347084613628565b01905060008167ffffffffffffffff81111561348f5761348e613ab8565b5b6040519080825280601f01601f1916602001820160405280156134c15781602001600182028036833780820191505090505b509050600082602001820190505b600115613524578080600190039150507f3031323334353637383961626364656600000000000000000000000000000000600a86061a8153600a85816135185761351761492e565b5b049450600085036134cf575b819350505050919050565b600073ffffffffffffffffffffffffffffffffffffffff168273ffffffffffffffffffffffffffffffffffffffff16036135a15760006040517f64a0ae9200000000000000000000000000000000000000000000000000000000815260040161359891906139fd565b60405180910390fd5b60006135af838360006126a6565b9050600073ffffffffffffffffffffffffffffffffffffffff168173ffffffffffffffffffffffffffffffffffffffff16146136235760006040517f73c6ac6e00000000000000000000000000000000000000000000000000000000815260040161361a91906139fd565b60405180910390fd5b505050565b600080600090507a184f03e93ff9f4daa797ed6e38ed64bf6a1f0100000000000000008310613686577a184f03e93ff9f4daa797ed6e38ed64bf6a1f010000000000000000838161367c5761367b61492e565b5b0492506040810190505b6d04ee2d6d415b85acef810000000083106136c3576d04ee2d6d415b85acef810000000083816136b9576136b861492e565b5b0492506020810190505b662386f26fc1000083106136f257662386f26fc1000083816136e8576136e761492e565b5b0492506010810190505b6305f5e100831061371b576305f5e10083816137115761371061492e565b5b0492506008810190505b61271083106137405761271083816137365761373561492e565b5b0492506004810190505b6064831061376357606483816137595761375861492e565b5b0492506002810190505b600a8310613772576001810190505b80915050919050565b508054613787906146b5565b6000825580601f1061379957506137b8565b601f0160209004906000526020600020908101906137b791906137bb565b5b50565b5b808211156137d45760008160009055506001016137bc565b5090565b6000604051905090565b600080fd5b600080fd5b6000819050919050565b6137ff816137ec565b811461380a57600080fd5b50565b60008135905061381c816137f6565b92915050565b600060208284031215613838576138376137e2565b5b60006138468482850161380d565b91505092915050565b60007fffffffff0000000000000000000000000000000000000000000000000000000082169050919050565b6138848161384f565b811461388f57600080fd5b50565b6000813590506138a18161387b565b92915050565b6000602082840312156138bd576138bc6137e2565b5b60006138cb84828501613892565b91505092915050565b60008115159050919050565b6138e9816138d4565b82525050565b600060208201905061390460008301846138e0565b92915050565b600081519050919050565b600082825260208201905092915050565b60005b83811015613944578082015181840152602081019050613929565b60008484015250505050565b6000601f19601f8301169050919050565b600061396c8261390a565b6139768185613915565b9350613986818560208601613926565b61398f81613950565b840191505092915050565b600060208201905081810360008301526139b48184613961565b905092915050565b600073ffffffffffffffffffffffffffffffffffffffff82169050919050565b60006139e7826139bc565b9050919050565b6139f7816139dc565b82525050565b6000602082019050613a1260008301846139ee565b92915050565b613a21816139dc565b8114613a2c57600080fd5b50565b600081359050613a3e81613a18565b92915050565b60008060408385031215613a5b57613a5a6137e2565b5b6000613a6985828601613a2f565b9250506020613a7a8582860161380d565b9150509250929050565b613a8d816137ec565b82525050565b6000602082019050613aa86000830184613a84565b92915050565b600080fd5b600080fd5b7f4e487b7100000000000000000000000000000000000000000000000000000000600052604160045260246000fd5b613af082613950565b810181811067ffffffffffffffff82111715613b0f57613b0e613ab8565b5b80604052505050565b6000613b226137d8565b9050613b2e8282613ae7565b919050565b600067ffffffffffffffff821115613b4e57613b4d613ab8565b5b613b5782613950565b9050602081019050919050565b82818337600083830152505050565b6000613b86613b8184613b33565b613b18565b905082815260208101848484011115613ba257613ba1613ab3565b5b613bad848285613b64565b509392505050565b600082601f830112613bca57613bc9613aae565b5b8135613bda848260208601613b73565b91505092915050565b60008060408385031215613bfa57613bf96137e2565b5b6000613c088582860161380d565b925050602083013567ffffffffffffffff811115613c2957613c286137e7565b5b613c3585828601613bb5565b9150509250929050565b600080600060608486031215613c5857613c576137e2565b5b6000613c6686828701613a2f565b9350506020613c7786828701613a2f565b9250506040613c888682870161380d565b9150509250925092565b600081519050919050565b600082825260208201905092915050565b6000819050602082019050919050565b600082825260208201905092915050565b6000613cda8261390a565b613ce48185613cbe565b9350613cf4818560208601613926565b613cfd81613950565b840191505092915050565b6000613d148383613ccf565b905092915050565b6000602082019050919050565b6000613d3482613c92565b613d3e8185613c9d565b935083602082028501613d5085613cae565b8060005b85811015613d8c5784840389528151613d6d8582613d08565b9450613d7883613d1c565b925060208a01995050600181019050613d54565b50829750879550505050505092915050565b600081519050919050565b600082825260208201905092915050565b6000819050602082019050919050565b613dd3816139dc565b82525050565b6000613de58383613dca565b60208301905092915050565b6000602082019050919050565b6000613e0982613d9e565b613e138185613da9565b9350613e1e83613dba565b8060005b83811015613e4f578151613e368882613dd9565b9750613e4183613df1565b925050600181019050613e22565b5085935050505092915050565b600060ff82169050919050565b613e7281613e5c565b82525050565b6000610160820190508181036000830152613e93818e613961565b90508181036020830152613ea7818d613961565b9050613eb6604083018c6139ee565b8181036060830152613ec8818b613d29565b90508181036080830152613edc818a613dfe565b9050613eeb60a08301896138e0565b613ef860c0830188613a84565b613f0560e08301876138e0565b613f13610100830186613a84565b818103610120830152613f268185613d29565b9050613f36610140830184613e69565b9c9b505050505050505050505050565b613f4f81613e5c565b8114613f5a57600080fd5b50565b600081359050613f6c81613f46565b92915050565b600080600060608486031215613f8b57613f8a6137e2565b5b6000613f998682870161380d565b9350506020613faa86828701613f5d565b925050604084013567ffffffffffffffff811115613fcb57613fca6137e7565b5b613fd786828701613bb5565b9150509250925092565b600060208284031215613ff757613ff66137e2565b5b600061400584828501613a2f565b91505092915050565b600080600060608486031215614027576140266137e2565b5b600084013567ffffffffffffffff811115614045576140446137e7565b5b61405186828701613bb5565b935050602084013567ffffffffffffffff811115614072576140716137e7565b5b61407e86828701613bb5565b925050604084013567ffffffffffffffff81111561409f5761409e6137e7565b5b6140ab86828701613bb5565b9150509250925092565b6140be816138d4565b81146140c957600080fd5b50565b6000813590506140db816140b5565b92915050565b600080604083850312156140f8576140f76137e2565b5b600061410685828601613a2f565b9250506020614117858286016140cc565b9150509250929050565b600067ffffffffffffffff82111561413c5761413b613ab8565b5b61414582613950565b9050602081019050919050565b600061416561416084614121565b613b18565b90508281526020810184848401111561418157614180613ab3565b5b61418c848285613b64565b509392505050565b600082601f8301126141a9576141a8613aae565b5b81356141b9848260208601614152565b91505092915050565b600080600080608085870312156141dc576141db6137e2565b5b60006141ea87828801613a2f565b94505060206141fb87828801613a2f565b935050604061420c8782880161380d565b925050606085013567ffffffffffffffff81111561422d5761422c6137e7565b5b61423987828801614194565b91505092959194509250565b6000806040838503121561425c5761425b6137e2565b5b600061426a8582860161380d565b925050602061427b8582860161380d565b9150509250929050565b6000806040838503121561429c5761429b6137e2565b5b60006142aa85828601613a2f565b925050602083013567ffffffffffffffff8111156142cb576142ca6137e7565b5b6142d785828601613bb5565b9150509250929050565b600080604083850312156142f8576142f76137e2565b5b600061430685828601613a2f565b925050602061431785828601613a2f565b9150509250929050565b600081519050919050565b600082825260208201905092915050565b6000819050602082019050919050565b614356816137ec565b82525050565b6000614368838361434d565b60208301905092915050565b6000602082019050919050565b600061438c82614321565b614396818561432c565b93506143a18361433d565b8060005b838110156143d25781516143b9888261435c565b97506143c483614374565b9250506001810190506143a5565b5085935050505092915050565b600060208201905081810360008301526143f98184614381565b905092915050565b7f496e76616c696420706170657249640000000000000000000000000000000000600082015250565b6000614437600f83613915565b915061444282614401565b602082019050919050565b600060208201905081810360008301526144668161442a565b9050919050565b7f5265736561726368207061706572206973206e6f7420617661696c61626c652060008201527f666f722066756e64696e67000000000000000000000000000000000000000000602082015250565b60006144c9602b83613915565b91506144d48261446d565b604082019050919050565b600060208201905081810360008301526144f8816144bc565b9050919050565b7f526573656172636820706170657220697320636f6d706c6574656420736f206e60008201527f6f206d6f7265206e65656420666f722066756e64696e67000000000000000000602082015250565b600061455b603783613915565b9150614566826144ff565b604082019050919050565b6000602082019050818103600083015261458a8161454e565b9050919050565b7f46756e64696e6720616d6f756e74206d7573742062652067726561746572207460008201527f68616e207a65726f000000000000000000000000000000000000000000000000602082015250565b60006145ed602883613915565b91506145f882614591565b604082019050919050565b6000602082019050818103600083015261461c816145e0565b9050919050565b7f4e487b7100000000000000000000000000000000000000000000000000000000600052601160045260246000fd5b600061465d826137ec565b9150614668836137ec565b92508282019050808211156146805761467f614623565b5b92915050565b7f4e487b7100000000000000000000000000000000000000000000000000000000600052602260045260246000fd5b600060028204905060018216806146cd57607f821691505b6020821081036146e0576146df614686565b5b50919050565b7f416c7265616479207265676973746572656420617320612044414f206d656d6260008201527f6572000000000000000000000000000000000000000000000000000000000000602082015250565b6000614742602283613915565b915061474d826146e6565b604082019050919050565b6000602082019050818103600083015261477181614735565b9050919050565b7f596f7520617265206e6f74207468652075706c6f61646572206f66207468697360008201527f2072657365617263682070617065720000000000000000000000000000000000602082015250565b60006147d4602f83613915565b91506147df82614778565b604082019050919050565b60006020820190508181036000830152614803816147c7565b9050919050565b7f526573656172636820706170657220697320616c726561647920636f6d706c6560008201527f7465640000000000000000000000000000000000000000000000000000000000602082015250565b6000614866602383613915565b91506148718261480a565b604082019050919050565b6000602082019050818103600083015261489581614859565b9050919050565b7f4e6f2066756e647320617661696c61626c6520666f722077697468647261776160008201527f6c00000000000000000000000000000000000000000000000000000000000000602082015250565b60006148f8602183613915565b91506149038261489c565b604082019050919050565b60006020820190508181036000830152614927816148eb565b9050919050565b7f4e487b7100000000000000000000000000000000000000000000000000000000600052601260045260246000fd5b6000614968826137ec565b9150614973836137ec565b9250826149835761498261492e565b5b828204905092915050565b7f4e487b7100000000000000000000000000000000000000000000000000000000600052603260045260246000fd5b60006149c8826137ec565b91506149d3836137ec565b92508282039050818111156149eb576149ea614623565b5b92915050565b7f596f75206d757374206265206120726567697374657265642044414f206d656d60008201527f6265720000000000000000000000000000000000000000000000000000000000602082015250565b6000614a4d602383613915565b9150614a58826149f1565b604082019050919050565b60006020820190508181036000830152614a7c81614a40565b9050919050565b7f5265736561726368207061706572206973206e6f7420617661696c61626c652060008201527f666f7220636f6e747269627574696f6e73000000000000000000000000000000602082015250565b6000614adf603183613915565b9150614aea82614a83565b604082019050919050565b60006020820190508181036000830152614b0e81614ad2565b9050919050565b7f55706c6f616465722063616e6e6f74207265717565737420636f6e747269627560008201527f74696f6e20746f207468656972206f776e207061706572000000000000000000602082015250565b6000614b71603783613915565b9150614b7c82614b15565b604082019050919050565b60006020820190508181036000830152614ba081614b64565b9050919050565b60008190508160005260206000209050919050565b60006020601f8301049050919050565b600082821b905092915050565b600060088302614c097fffffffffffffffffffffffffffffffffffffffffffffffffffffffffffffffff82614bcc565b614c138683614bcc565b95508019841693508086168417925050509392505050565b6000819050919050565b6000614c50614c4b614c46846137ec565b614c2b565b6137ec565b9050919050565b6000819050919050565b614c6a83614c35565b614c7e614c7682614c57565b848454614bd9565b825550505050565b600090565b614c93614c86565b614c9e818484614c61565b505050565b5b81811015614cc257614cb7600082614c8b565b600181019050614ca4565b5050565b601f821115614d0757614cd881614ba7565b614ce184614bbc565b81016020851015614cf0578190505b614d04614cfc85614bbc565b830182614ca3565b50505b505050565b600082821c905092915050565b6000614d2a60001984600802614d0c565b1980831691505092915050565b6000614d438383614d19565b9150826002028217905092915050565b614d5c8261390a565b67ffffffffffffffff811115614d7557614d74613ab8565b5b614d7f82546146b5565b614d8a828285614cc6565b600060209050601f831160018114614dbd5760008415614dab578287015190505b614db58582614d37565b865550614e1d565b601f198416614dcb86614ba7565b60005b82811015614df357848901518255600182019150602085019450602081019050614dce565b86831015614e105784890151614e0c601f891682614d19565b8355505b6001600288020188555050505b505050505050565b6000606082019050614e3a60008301866139ee565b614e476020830185613a84565b614e5460408301846139ee565b949350505050565b7f5061706572206f776e65722063616e6e6f7420706572666f726d20746869732060008201527f616374696f6e0000000000000000000000000000000000000000000000000000602082015250565b6000614eb8602683613915565b9150614ec382614e5c565b604082019050919050565b60006020820190508181036000830152614ee781614eab565b9050919050565b7f496e76616c69642073636f72652e2053636f7265206d7573742062652062657460008201527f7765656e203120616e6420313000000000000000000000000000000000000000602082015250565b6000614f4a602d83613915565b9150614f5582614eee565b604082019050919050565b60006020820190508181036000830152614f7981614f3d565b9050919050565b6000614f8b82613e5c565b9150614f9683613e5c565b9250828201905060ff811115614faf57614fae614623565b5b92915050565b6000604082019050614fca6000830185613e69565b8181036020830152614fdc8184613961565b90509392505050565b6000614ff082613e5c565b915060ff820361500357615002614623565b5b600182019050919050565b6000615019826137ec565b91507fffffffffffffffffffffffffffffffffffffffffffffffffffffffffffffffff820361504b5761504a614623565b5b600182019050919050565b7f596f7520646f6e2774206f776e2074686973207265736561726368207061706560008201527f7200000000000000000000000000000000000000000000000000000000000000602082015250565b60006150b2602183613915565b91506150bd82615056565b604082019050919050565b600060208201905081810360008301526150e1816150a5565b9050919050565b7f496e76616c696420636f6e747269627574696f6e20696e646578000000000000600082015250565b600061511e601a83613915565b9150615129826150e8565b602082019050919050565b6000602082019050818103600083015261514d81615111565b9050919050565b600081549050615163816146b5565b9050919050565b60008190508160005260206000209050919050565b81810361518d575050615265565b61519682615154565b67ffffffffffffffff8111156151af576151ae613ab8565b5b6151b982546146b5565b6151c4828285614cc6565b6000601f8311600181146151f357600084156151e1578287015490505b6151eb8582614d37565b86555061525e565b601f1984166152018761516a565b965061520c86614ba7565b60005b828110156152345784890154825560018201915060018501945060208101905061520f565b86831015615251578489015461524d601f891682614d19565b8355505b6001600288020188555050505b5050505050505b565b60008154615274816146b5565b61527e8186613915565b9450600182166000811461529957600181146152af576152e2565b60ff1983168652811515602002860193506152e2565b6152b885614ba7565b60005b838110156152da578154818901526001820191506020810190506152bb565b808801955050505b50505092915050565b600060208201905081810360008301526153058184615267565b905092915050565b60008154905061531c816146b5565b9050919050565b818103615331575050615409565b61533a8261530d565b67ffffffffffffffff81111561535357615352613ab8565b5b61535d82546146b5565b615368828285614cc6565b6000601f8311600181146153975760008415615385578287015490505b61538f8582614d37565b865550615402565b601f1984166153a587614ba7565b96506153b086614ba7565b60005b828110156153d8578489015482556001820191506001850194506020810190506153b3565b868310156153f557848901546153f1601f891682614d19565b8355505b6001600288020188555050505b5050505050505b565b7f4e487b7100000000000000000000000000000000000000000000000000000000600052603160045260246000fd5b600081519050919050565b600082825260208201905092915050565b60006154618261543a565b61546b8185615445565b935061547b818560208601613926565b61548481613950565b840191505092915050565b60006080820190506154a460008301876139ee565b6154b160208301866139ee565b6154be6040830185613a84565b81810360608301526154d08184615456565b905095945050505050565b6000815190506154ea8161387b565b92915050565b600060208284031215615506576155056137e2565b5b6000615514848285016154db565b91505092915050565b600081905092915050565b60006155338261390a565b61553d818561551d565b935061554d818560208601613926565b80840191505092915050565b60006155658285615528565b91506155718284615528565b91508190509392505050565b600060408201905061559260008301856139ee565b61559f6020830184613a84565b939250505056fea26469706673582212202841b6ee20e57e702df79c68ba0b8df5b98d832112bfbc028d4d35716c4968c164736f6c63430008180033",
  "linkReferences": {},
  "deployedLinkReferences": {}
}