{
	"data": {
		"bytecode": {
			"linkReferences": {},
			"object": "608060405234801561000f575f80fd5b50611b3a8061001d5f395ff3fe608060405234801561000f575f80fd5b50600436106100a7575f3560e01c806346fe2bd21161006f57806346fe2bd21461015257806348852f081461016e5780635b55dd171461019f5780635cedb6dc146101bb5780636f864a62146101eb578063959068ea14610222576100a7565b806310bb5e05146100ab57806313531f7d146100b55780631749f05f146100e55780633064318c14610103578063365422ec1461011f575b5f80fd5b6100b3610252565b005b6100cf60048036038101906100ca9190610dec565b610378565b6040516100dc9190610e56565b60405180910390f35b6100ed6103b1565b6040516100fa9190610e7e565b60405180910390f35b61011d60048036038101906101189190610ec1565b6103b7565b005b61013960048036038101906101349190610dec565b610562565b6040516101499493929190610fb5565b60405180910390f35b61016c6004803603810190610167919061112b565b610652565b005b61018860048036038101906101839190610dec565b6107a1565b604051610196929190611185565b60405180910390f35b6101b960048036038101906101b491906111e9565b610861565b005b6101d560048036038101906101d09190610dec565b610b91565b6040516101e29190610e56565b60405180910390f35b61020560048036038101906102009190610dec565b610bc1565b604051610219989796959493929190611264565b60405180910390f35b61023c600480360381019061023791906112ee565b610d54565b6040516102499190611319565b60405180910390f35b5f803373ffffffffffffffffffffffffffffffffffffffff1673ffffffffffffffffffffffffffffffffffffffff1681526020019081526020015f205f015f9054906101000a900460ff16156102dd576040517f08c379a00000000000000000000000000000000000000000000000000000000081526004016102d4906113a2565b60405180910390fd5b60015f803373ffffffffffffffffffffffffffffffffffffffff1673ffffffffffffffffffffffffffffffffffffffff1681526020019081526020015f205f015f6101000a81548160ff0219169083151502179055503373ffffffffffffffffffffffffffffffffffffffff167fe57694be0e3c8f1dac61e75df3942362c6f7ccdcf9b69b623a6a86f0befd4d0d60405160405180910390a2565b5f60025f8381526020019081526020015f205f9054906101000a900473ffffffffffffffffffffffffffffffffffffffff169050919050565b60035481565b5f60015f8581526020019081526020015f209050806003015f9054906101000a900460ff1661041b576040517f08c379a000000000000000000000000000000000000000000000000000000000815260040161041290611430565b60405180910390fd5b5f8290508073ffffffffffffffffffffffffffffffffffffffff166323b872dd3330876040518463ffffffff1660e01b815260040161045c9392919061144e565b6020604051808303815f875af1158015610478573d5f803e3d5ffd5b505050506040513d601f19601f8201168201806040525081019061049c91906114ad565b5083826004015f8282546104b09190611505565b9250508190555083826005015f3373ffffffffffffffffffffffffffffffffffffffff1673ffffffffffffffffffffffffffffffffffffffff1681526020019081526020015f205f8282546105059190611505565b925050819055503373ffffffffffffffffffffffffffffffffffffffff16857f01042e389f29a6fb798bd1ec7081cba60e637147668b6700c50e32e95ebac5d9866040516105539190610e7e565b60405180910390a35050505050565b5f60605f805f60015f8781526020019081526020015f209050805f015f9054906101000a900473ffffffffffffffffffffffffffffffffffffffff16816001018260020154836003015f9054906101000a900460ff168280546105c490611565565b80601f01602080910402602001604051908101604052809291908181526020018280546105f090611565565b801561063b5780601f106106125761010080835404028352916020019161063b565b820191905f5260205f20905b81548152906001019060200180831161061e57829003601f168201915b505050505092509450945094509450509193509193565b60035f81548092919061066490611595565b91905055505f60035490505f60015f8381526020019081526020015f20905033815f015f6101000a81548173ffffffffffffffffffffffffffffffffffffffff021916908373ffffffffffffffffffffffffffffffffffffffff160217905550838160010190816106d59190611779565b508281600201819055506001816003015f6101000a81548160ff0219169083151502179055503360025f8481526020019081526020015f205f6101000a81548173ffffffffffffffffffffffffffffffffffffffff021916908373ffffffffffffffffffffffffffffffffffffffff1602179055503373ffffffffffffffffffffffffffffffffffffffff16827f19dfb219126b7cc7326c4b0341b4a969a51b422d1e059ef9d335a53b55748a068686604051610793929190611848565b60405180910390a350505050565b5f60605f60015f8581526020019081526020015f209050806006015f9054906101000a900460ff16816008018080546107d990611565565b80601f016020809104026020016040519081016040528092919081815260200182805461080590611565565b80156108505780601f1061082757610100808354040283529160200191610850565b820191905f5260205f20905b81548152906001019060200180831161083357829003601f168201915b505050505090509250925050915091565b5f803373ffffffffffffffffffffffffffffffffffffffff1673ffffffffffffffffffffffffffffffffffffffff1681526020019081526020015f205f015f9054906101000a900460ff166108eb576040517f08c379a00000000000000000000000000000000000000000000000000000000081526004016108e2906118e6565b60405180910390fd5b5f60015f8581526020019081526020015f209050806006015f9054906101000a900460ff1615610950576040517f08c379a000000000000000000000000000000000000000000000000000000000815260040161094790611974565b60405180910390fd5b3373ffffffffffffffffffffffffffffffffffffffff1660025f8681526020019081526020015f205f9054906101000a900473ffffffffffffffffffffffffffffffffffffffff1673ffffffffffffffffffffffffffffffffffffffff16036109ee576040517f08c379a00000000000000000000000000000000000000000000000000000000081526004016109e590611a02565b60405180910390fd5b60018360ff1610158015610a065750600a8360ff1611155b610a45576040517f08c379a0000000000000000000000000000000000000000000000000000000008152600401610a3c90611a90565b60405180910390fd5b82816007015f3373ffffffffffffffffffffffffffffffffffffffff1673ffffffffffffffffffffffffffffffffffffffff1681526020019081526020015f205f6101000a81548160ff021916908360ff16021790555081816008019081610aad9190611779565b503373ffffffffffffffffffffffffffffffffffffffff16847f42917649f70d2cf58d178b638566295baa56001aa117ad383d4ea18f0d5721ad8585604051610af7929190611aae565b60405180910390a3806009015f81819054906101000a900460ff1680929190610b1f90611adc565b91906101000a81548160ff021916908360ff16021790555050600a816009015f9054906101000a900460ff1660ff1610610b8b57610b5d845f610d79565b837f619b6d262bf796867b496768f7a6ede6f8aa3180ef1bf466de521b662fcfce9960405160405180910390a25b50505050565b6002602052805f5260405f205f915054906101000a900473ffffffffffffffffffffffffffffffffffffffff1681565b6001602052805f5260405f205f91509050805f015f9054906101000a900473ffffffffffffffffffffffffffffffffffffffff1690806001018054610c0590611565565b80601f0160208091040260200160405190810160405280929190818152602001828054610c3190611565565b8015610c7c5780601f10610c5357610100808354040283529160200191610c7c565b820191905f5260205f20905b815481529060010190602001808311610c5f57829003601f168201915b505050505090806002015490806003015f9054906101000a900460ff1690806004015490806006015f9054906101000a900460ff1690806008018054610cc190611565565b80601f0160208091040260200160405190810160405280929190818152602001828054610ced90611565565b8015610d385780601f10610d0f57610100808354040283529160200191610d38565b820191905f5260205f20905b815481529060010190602001808311610d1b57829003601f168201915b505050505090806009015f9054906101000a900460ff16905088565b5f602052805f5260405f205f91509050805f015f9054906101000a900460ff16905081565b8060015f8481526020019081526020015f206003015f6101000a81548160ff0219169083151502179055505050565b5f604051905090565b5f80fd5b5f80fd5b5f819050919050565b610dcb81610db9565b8114610dd5575f80fd5b50565b5f81359050610de681610dc2565b92915050565b5f60208284031215610e0157610e00610db1565b5b5f610e0e84828501610dd8565b91505092915050565b5f73ffffffffffffffffffffffffffffffffffffffff82169050919050565b5f610e4082610e17565b9050919050565b610e5081610e36565b82525050565b5f602082019050610e695f830184610e47565b92915050565b610e7881610db9565b82525050565b5f602082019050610e915f830184610e6f565b92915050565b610ea081610e36565b8114610eaa575f80fd5b50565b5f81359050610ebb81610e97565b92915050565b5f805f60608486031215610ed857610ed7610db1565b5b5f610ee586828701610dd8565b9350506020610ef686828701610dd8565b9250506040610f0786828701610ead565b9150509250925092565b5f81519050919050565b5f82825260208201905092915050565b5f5b83811015610f48578082015181840152602081019050610f2d565b5f8484015250505050565b5f601f19601f8301169050919050565b5f610f6d82610f11565b610f778185610f1b565b9350610f87818560208601610f2b565b610f9081610f53565b840191505092915050565b5f8115159050919050565b610faf81610f9b565b82525050565b5f608082019050610fc85f830187610e47565b8181036020830152610fda8186610f63565b9050610fe96040830185610e6f565b610ff66060830184610fa6565b95945050505050565b5f80fd5b5f80fd5b7f4e487b71000000000000000000000000000000000000000000000000000000005f52604160045260245ffd5b61103d82610f53565b810181811067ffffffffffffffff8211171561105c5761105b611007565b5b80604052505050565b5f61106e610da8565b905061107a8282611034565b919050565b5f67ffffffffffffffff82111561109957611098611007565b5b6110a282610f53565b9050602081019050919050565b828183375f83830152505050565b5f6110cf6110ca8461107f565b611065565b9050828152602081018484840111156110eb576110ea611003565b5b6110f68482856110af565b509392505050565b5f82601f83011261111257611111610fff565b5b81356111228482602086016110bd565b91505092915050565b5f806040838503121561114157611140610db1565b5b5f83013567ffffffffffffffff81111561115e5761115d610db5565b5b61116a858286016110fe565b925050602061117b85828601610dd8565b9150509250929050565b5f6040820190506111985f830185610fa6565b81810360208301526111aa8184610f63565b90509392505050565b5f60ff82169050919050565b6111c8816111b3565b81146111d2575f80fd5b50565b5f813590506111e3816111bf565b92915050565b5f805f60608486031215611200576111ff610db1565b5b5f61120d86828701610dd8565b935050602061121e868287016111d5565b925050604084013567ffffffffffffffff81111561123f5761123e610db5565b5b61124b868287016110fe565b9150509250925092565b61125e816111b3565b82525050565b5f610100820190506112785f83018b610e47565b818103602083015261128a818a610f63565b90506112996040830189610e6f565b6112a66060830188610fa6565b6112b36080830187610e6f565b6112c060a0830186610fa6565b81810360c08301526112d28185610f63565b90506112e160e0830184611255565b9998505050505050505050565b5f6020828403121561130357611302610db1565b5b5f61131084828501610ead565b91505092915050565b5f60208201905061132c5f830184610fa6565b92915050565b7f416c7265616479207265676973746572656420617320612044414f206d656d625f8201527f6572000000000000000000000000000000000000000000000000000000000000602082015250565b5f61138c602283610f1b565b915061139782611332565b604082019050919050565b5f6020820190508181035f8301526113b981611380565b9050919050565b7f5265736561726368207061706572206973206e6f7420617661696c61626c65205f8201527f666f722066756e64696e67000000000000000000000000000000000000000000602082015250565b5f61141a602b83610f1b565b9150611425826113c0565b604082019050919050565b5f6020820190508181035f8301526114478161140e565b9050919050565b5f6060820190506114615f830186610e47565b61146e6020830185610e47565b61147b6040830184610e6f565b949350505050565b61148c81610f9b565b8114611496575f80fd5b50565b5f815190506114a781611483565b92915050565b5f602082840312156114c2576114c1610db1565b5b5f6114cf84828501611499565b91505092915050565b7f4e487b71000000000000000000000000000000000000000000000000000000005f52601160045260245ffd5b5f61150f82610db9565b915061151a83610db9565b9250828201905080821115611532576115316114d8565b5b92915050565b7f4e487b71000000000000000000000000000000000000000000000000000000005f52602260045260245ffd5b5f600282049050600182168061157c57607f821691505b60208210810361158f5761158e611538565b5b50919050565b5f61159f82610db9565b91507fffffffffffffffffffffffffffffffffffffffffffffffffffffffffffffffff82036115d1576115d06114d8565b5b600182019050919050565b5f819050815f5260205f209050919050565b5f6020601f8301049050919050565b5f82821b905092915050565b5f600883026116387fffffffffffffffffffffffffffffffffffffffffffffffffffffffffffffffff826115fd565b61164286836115fd565b95508019841693508086168417925050509392505050565b5f819050919050565b5f61167d61167861167384610db9565b61165a565b610db9565b9050919050565b5f819050919050565b61169683611663565b6116aa6116a282611684565b848454611609565b825550505050565b5f90565b6116be6116b2565b6116c981848461168d565b505050565b5b818110156116ec576116e15f826116b6565b6001810190506116cf565b5050565b601f82111561173157611702816115dc565b61170b846115ee565b8101602085101561171a578190505b61172e611726856115ee565b8301826116ce565b50505b505050565b5f82821c905092915050565b5f6117515f1984600802611736565b1980831691505092915050565b5f6117698383611742565b9150826002028217905092915050565b61178282610f11565b67ffffffffffffffff81111561179b5761179a611007565b5b6117a58254611565565b6117b08282856116f0565b5f60209050601f8311600181146117e1575f84156117cf578287015190505b6117d9858261175e565b865550611840565b601f1984166117ef866115dc565b5f5b82811015611816578489015182556001820191506020850194506020810190506117f1565b86831015611833578489015161182f601f891682611742565b8355505b6001600288020188555050505b505050505050565b5f6040820190508181035f8301526118608185610f63565b905061186f6020830184610e6f565b9392505050565b7f596f75206d757374206265206120726567697374657265642044414f206d656d5f8201527f6265720000000000000000000000000000000000000000000000000000000000602082015250565b5f6118d0602383610f1b565b91506118db82611876565b604082019050919050565b5f6020820190508181035f8301526118fd816118c4565b9050919050565b7f52657365617263682070617065722068617320616c7265616479206265656e205f8201527f706565722d726576696577656400000000000000000000000000000000000000602082015250565b5f61195e602d83610f1b565b915061196982611904565b604082019050919050565b5f6020820190508181035f83015261198b81611952565b9050919050565b7f5061706572206f776e65722063616e6e6f7420726576696577207468656972205f8201527f6f776e2070617065720000000000000000000000000000000000000000000000602082015250565b5f6119ec602983610f1b565b91506119f782611992565b604082019050919050565b5f6020820190508181035f830152611a19816119e0565b9050919050565b7f496e76616c69642073636f72652e2053636f7265206d757374206265206265745f8201527f7765656e203120616e6420313000000000000000000000000000000000000000602082015250565b5f611a7a602d83610f1b565b9150611a8582611a20565b604082019050919050565b5f6020820190508181035f830152611aa781611a6e565b9050919050565b5f604082019050611ac15f830185611255565b8181036020830152611ad38184610f63565b90509392505050565b5f611ae6826111b3565b915060ff8203611af957611af86114d8565b5b60018201905091905056fea2646970667358221220530ae6e1d88bd26e94ded8abc0d52174f2110ae731df533394d74c23509bf68464736f6c63430008140033",
			"opcodes": "PUSH1 0x80 PUSH1 0x40 MSTORE CALLVALUE DUP1 ISZERO PUSH2 0xF JUMPI PUSH0 DUP1 REVERT JUMPDEST POP PUSH2 0x1B3A DUP1 PUSH2 0x1D PUSH0 CODECOPY PUSH0 RETURN INVALID PUSH1 0x80 PUSH1 0x40 MSTORE CALLVALUE DUP1 ISZERO PUSH2 0xF JUMPI PUSH0 DUP1 REVERT JUMPDEST POP PUSH1 0x4 CALLDATASIZE LT PUSH2 0xA7 JUMPI PUSH0 CALLDATALOAD PUSH1 0xE0 SHR DUP1 PUSH4 0x46FE2BD2 GT PUSH2 0x6F JUMPI DUP1 PUSH4 0x46FE2BD2 EQ PUSH2 0x152 JUMPI DUP1 PUSH4 0x48852F08 EQ PUSH2 0x16E JUMPI DUP1 PUSH4 0x5B55DD17 EQ PUSH2 0x19F JUMPI DUP1 PUSH4 0x5CEDB6DC EQ PUSH2 0x1BB JUMPI DUP1 PUSH4 0x6F864A62 EQ PUSH2 0x1EB JUMPI DUP1 PUSH4 0x959068EA EQ PUSH2 0x222 JUMPI PUSH2 0xA7 JUMP JUMPDEST DUP1 PUSH4 0x10BB5E05 EQ PUSH2 0xAB JUMPI DUP1 PUSH4 0x13531F7D EQ PUSH2 0xB5 JUMPI DUP1 PUSH4 0x1749F05F EQ PUSH2 0xE5 JUMPI DUP1 PUSH4 0x3064318C EQ PUSH2 0x103 JUMPI DUP1 PUSH4 0x365422EC EQ PUSH2 0x11F JUMPI JUMPDEST PUSH0 DUP1 REVERT JUMPDEST PUSH2 0xB3 PUSH2 0x252 JUMP JUMPDEST STOP JUMPDEST PUSH2 0xCF PUSH1 0x4 DUP1 CALLDATASIZE SUB DUP2 ADD SWAP1 PUSH2 0xCA SWAP2 SWAP1 PUSH2 0xDEC JUMP JUMPDEST PUSH2 0x378 JUMP JUMPDEST PUSH1 0x40 MLOAD PUSH2 0xDC SWAP2 SWAP1 PUSH2 0xE56 JUMP JUMPDEST PUSH1 0x40 MLOAD DUP1 SWAP2 SUB SWAP1 RETURN JUMPDEST PUSH2 0xED PUSH2 0x3B1 JUMP JUMPDEST PUSH1 0x40 MLOAD PUSH2 0xFA SWAP2 SWAP1 PUSH2 0xE7E JUMP JUMPDEST PUSH1 0x40 MLOAD DUP1 SWAP2 SUB SWAP1 RETURN JUMPDEST PUSH2 0x11D PUSH1 0x4 DUP1 CALLDATASIZE SUB DUP2 ADD SWAP1 PUSH2 0x118 SWAP2 SWAP1 PUSH2 0xEC1 JUMP JUMPDEST PUSH2 0x3B7 JUMP JUMPDEST STOP JUMPDEST PUSH2 0x139 PUSH1 0x4 DUP1 CALLDATASIZE SUB DUP2 ADD SWAP1 PUSH2 0x134 SWAP2 SWAP1 PUSH2 0xDEC JUMP JUMPDEST PUSH2 0x562 JUMP JUMPDEST PUSH1 0x40 MLOAD PUSH2 0x149 SWAP5 SWAP4 SWAP3 SWAP2 SWAP1 PUSH2 0xFB5 JUMP JUMPDEST PUSH1 0x40 MLOAD DUP1 SWAP2 SUB SWAP1 RETURN JUMPDEST PUSH2 0x16C PUSH1 0x4 DUP1 CALLDATASIZE SUB DUP2 ADD SWAP1 PUSH2 0x167 SWAP2 SWAP1 PUSH2 0x112B JUMP JUMPDEST PUSH2 0x652 JUMP JUMPDEST STOP JUMPDEST PUSH2 0x188 PUSH1 0x4 DUP1 CALLDATASIZE SUB DUP2 ADD SWAP1 PUSH2 0x183 SWAP2 SWAP1 PUSH2 0xDEC JUMP JUMPDEST PUSH2 0x7A1 JUMP JUMPDEST PUSH1 0x40 MLOAD PUSH2 0x196 SWAP3 SWAP2 SWAP1 PUSH2 0x1185 JUMP JUMPDEST PUSH1 0x40 MLOAD DUP1 SWAP2 SUB SWAP1 RETURN JUMPDEST PUSH2 0x1B9 PUSH1 0x4 DUP1 CALLDATASIZE SUB DUP2 ADD SWAP1 PUSH2 0x1B4 SWAP2 SWAP1 PUSH2 0x11E9 JUMP JUMPDEST PUSH2 0x861 JUMP JUMPDEST STOP JUMPDEST PUSH2 0x1D5 PUSH1 0x4 DUP1 CALLDATASIZE SUB DUP2 ADD SWAP1 PUSH2 0x1D0 SWAP2 SWAP1 PUSH2 0xDEC JUMP JUMPDEST PUSH2 0xB91 JUMP JUMPDEST PUSH1 0x40 MLOAD PUSH2 0x1E2 SWAP2 SWAP1 PUSH2 0xE56 JUMP JUMPDEST PUSH1 0x40 MLOAD DUP1 SWAP2 SUB SWAP1 RETURN JUMPDEST PUSH2 0x205 PUSH1 0x4 DUP1 CALLDATASIZE SUB DUP2 ADD SWAP1 PUSH2 0x200 SWAP2 SWAP1 PUSH2 0xDEC JUMP JUMPDEST PUSH2 0xBC1 JUMP JUMPDEST PUSH1 0x40 MLOAD PUSH2 0x219 SWAP9 SWAP8 SWAP7 SWAP6 SWAP5 SWAP4 SWAP3 SWAP2 SWAP1 PUSH2 0x1264 JUMP JUMPDEST PUSH1 0x40 MLOAD DUP1 SWAP2 SUB SWAP1 RETURN JUMPDEST PUSH2 0x23C PUSH1 0x4 DUP1 CALLDATASIZE SUB DUP2 ADD SWAP1 PUSH2 0x237 SWAP2 SWAP1 PUSH2 0x12EE JUMP JUMPDEST PUSH2 0xD54 JUMP JUMPDEST PUSH1 0x40 MLOAD PUSH2 0x249 SWAP2 SWAP1 PUSH2 0x1319 JUMP JUMPDEST PUSH1 0x40 MLOAD DUP1 SWAP2 SUB SWAP1 RETURN JUMPDEST PUSH0 DUP1 CALLER PUSH20 0xFFFFFFFFFFFFFFFFFFFFFFFFFFFFFFFFFFFFFFFF AND PUSH20 0xFFFFFFFFFFFFFFFFFFFFFFFFFFFFFFFFFFFFFFFF AND DUP2 MSTORE PUSH1 0x20 ADD SWAP1 DUP2 MSTORE PUSH1 0x20 ADD PUSH0 KECCAK256 PUSH0 ADD PUSH0 SWAP1 SLOAD SWAP1 PUSH2 0x100 EXP SWAP1 DIV PUSH1 0xFF AND ISZERO PUSH2 0x2DD JUMPI PUSH1 0x40 MLOAD PUSH32 0x8C379A000000000000000000000000000000000000000000000000000000000 DUP2 MSTORE PUSH1 0x4 ADD PUSH2 0x2D4 SWAP1 PUSH2 0x13A2 JUMP JUMPDEST PUSH1 0x40 MLOAD DUP1 SWAP2 SUB SWAP1 REVERT JUMPDEST PUSH1 0x1 PUSH0 DUP1 CALLER PUSH20 0xFFFFFFFFFFFFFFFFFFFFFFFFFFFFFFFFFFFFFFFF AND PUSH20 0xFFFFFFFFFFFFFFFFFFFFFFFFFFFFFFFFFFFFFFFF AND DUP2 MSTORE PUSH1 0x20 ADD SWAP1 DUP2 MSTORE PUSH1 0x20 ADD PUSH0 KECCAK256 PUSH0 ADD PUSH0 PUSH2 0x100 EXP DUP2 SLOAD DUP2 PUSH1 0xFF MUL NOT AND SWAP1 DUP4 ISZERO ISZERO MUL OR SWAP1 SSTORE POP CALLER PUSH20 0xFFFFFFFFFFFFFFFFFFFFFFFFFFFFFFFFFFFFFFFF AND PUSH32 0xE57694BE0E3C8F1DAC61E75DF3942362C6F7CCDCF9B69B623A6A86F0BEFD4D0D PUSH1 0x40 MLOAD PUSH1 0x40 MLOAD DUP1 SWAP2 SUB SWAP1 LOG2 JUMP JUMPDEST PUSH0 PUSH1 0x2 PUSH0 DUP4 DUP2 MSTORE PUSH1 0x20 ADD SWAP1 DUP2 MSTORE PUSH1 0x20 ADD PUSH0 KECCAK256 PUSH0 SWAP1 SLOAD SWAP1 PUSH2 0x100 EXP SWAP1 DIV PUSH20 0xFFFFFFFFFFFFFFFFFFFFFFFFFFFFFFFFFFFFFFFF AND SWAP1 POP SWAP2 SWAP1 POP JUMP JUMPDEST PUSH1 0x3 SLOAD DUP2 JUMP JUMPDEST PUSH0 PUSH1 0x1 PUSH0 DUP6 DUP2 MSTORE PUSH1 0x20 ADD SWAP1 DUP2 MSTORE PUSH1 0x20 ADD PUSH0 KECCAK256 SWAP1 POP DUP1 PUSH1 0x3 ADD PUSH0 SWAP1 SLOAD SWAP1 PUSH2 0x100 EXP SWAP1 DIV PUSH1 0xFF AND PUSH2 0x41B JUMPI PUSH1 0x40 MLOAD PUSH32 0x8C379A000000000000000000000000000000000000000000000000000000000 DUP2 MSTORE PUSH1 0x4 ADD PUSH2 0x412 SWAP1 PUSH2 0x1430 JUMP JUMPDEST PUSH1 0x40 MLOAD DUP1 SWAP2 SUB SWAP1 REVERT JUMPDEST PUSH0 DUP3 SWAP1 POP DUP1 PUSH20 0xFFFFFFFFFFFFFFFFFFFFFFFFFFFFFFFFFFFFFFFF AND PUSH4 0x23B872DD CALLER ADDRESS DUP8 PUSH1 0x40 MLOAD DUP5 PUSH4 0xFFFFFFFF AND PUSH1 0xE0 SHL DUP2 MSTORE PUSH1 0x4 ADD PUSH2 0x45C SWAP4 SWAP3 SWAP2 SWAP1 PUSH2 0x144E JUMP JUMPDEST PUSH1 0x20 PUSH1 0x40 MLOAD DUP1 DUP4 SUB DUP2 PUSH0 DUP8 GAS CALL ISZERO DUP1 ISZERO PUSH2 0x478 JUMPI RETURNDATASIZE PUSH0 DUP1 RETURNDATACOPY RETURNDATASIZE PUSH0 REVERT JUMPDEST POP POP POP POP PUSH1 0x40 MLOAD RETURNDATASIZE PUSH1 0x1F NOT PUSH1 0x1F DUP3 ADD AND DUP3 ADD DUP1 PUSH1 0x40 MSTORE POP DUP2 ADD SWAP1 PUSH2 0x49C SWAP2 SWAP1 PUSH2 0x14AD JUMP JUMPDEST POP DUP4 DUP3 PUSH1 0x4 ADD PUSH0 DUP3 DUP3 SLOAD PUSH2 0x4B0 SWAP2 SWAP1 PUSH2 0x1505 JUMP JUMPDEST SWAP3 POP POP DUP2 SWAP1 SSTORE POP DUP4 DUP3 PUSH1 0x5 ADD PUSH0 CALLER PUSH20 0xFFFFFFFFFFFFFFFFFFFFFFFFFFFFFFFFFFFFFFFF AND PUSH20 0xFFFFFFFFFFFFFFFFFFFFFFFFFFFFFFFFFFFFFFFF AND DUP2 MSTORE PUSH1 0x20 ADD SWAP1 DUP2 MSTORE PUSH1 0x20 ADD PUSH0 KECCAK256 PUSH0 DUP3 DUP3 SLOAD PUSH2 0x505 SWAP2 SWAP1 PUSH2 0x1505 JUMP JUMPDEST SWAP3 POP POP DUP2 SWAP1 SSTORE POP CALLER PUSH20 0xFFFFFFFFFFFFFFFFFFFFFFFFFFFFFFFFFFFFFFFF AND DUP6 PUSH32 0x1042E389F29A6FB798BD1EC7081CBA60E637147668B6700C50E32E95EBAC5D9 DUP7 PUSH1 0x40 MLOAD PUSH2 0x553 SWAP2 SWAP1 PUSH2 0xE7E JUMP JUMPDEST PUSH1 0x40 MLOAD DUP1 SWAP2 SUB SWAP1 LOG3 POP POP POP POP POP JUMP JUMPDEST PUSH0 PUSH1 0x60 PUSH0 DUP1 PUSH0 PUSH1 0x1 PUSH0 DUP8 DUP2 MSTORE PUSH1 0x20 ADD SWAP1 DUP2 MSTORE PUSH1 0x20 ADD PUSH0 KECCAK256 SWAP1 POP DUP1 PUSH0 ADD PUSH0 SWAP1 SLOAD SWAP1 PUSH2 0x100 EXP SWAP1 DIV PUSH20 0xFFFFFFFFFFFFFFFFFFFFFFFFFFFFFFFFFFFFFFFF AND DUP2 PUSH1 0x1 ADD DUP3 PUSH1 0x2 ADD SLOAD DUP4 PUSH1 0x3 ADD PUSH0 SWAP1 SLOAD SWAP1 PUSH2 0x100 EXP SWAP1 DIV PUSH1 0xFF AND DUP3 DUP1 SLOAD PUSH2 0x5C4 SWAP1 PUSH2 0x1565 JUMP JUMPDEST DUP1 PUSH1 0x1F ADD PUSH1 0x20 DUP1 SWAP2 DIV MUL PUSH1 0x20 ADD PUSH1 0x40 MLOAD SWAP1 DUP2 ADD PUSH1 0x40 MSTORE DUP1 SWAP3 SWAP2 SWAP1 DUP2 DUP2 MSTORE PUSH1 0x20 ADD DUP3 DUP1 SLOAD PUSH2 0x5F0 SWAP1 PUSH2 0x1565 JUMP JUMPDEST DUP1 ISZERO PUSH2 0x63B JUMPI DUP1 PUSH1 0x1F LT PUSH2 0x612 JUMPI PUSH2 0x100 DUP1 DUP4 SLOAD DIV MUL DUP4 MSTORE SWAP2 PUSH1 0x20 ADD SWAP2 PUSH2 0x63B JUMP JUMPDEST DUP3 ADD SWAP2 SWAP1 PUSH0 MSTORE PUSH1 0x20 PUSH0 KECCAK256 SWAP1 JUMPDEST DUP2 SLOAD DUP2 MSTORE SWAP1 PUSH1 0x1 ADD SWAP1 PUSH1 0x20 ADD DUP1 DUP4 GT PUSH2 0x61E JUMPI DUP3 SWAP1 SUB PUSH1 0x1F AND DUP3 ADD SWAP2 JUMPDEST POP POP POP POP POP SWAP3 POP SWAP5 POP SWAP5 POP SWAP5 POP SWAP5 POP POP SWAP2 SWAP4 POP SWAP2 SWAP4 JUMP JUMPDEST PUSH1 0x3 PUSH0 DUP2 SLOAD DUP1 SWAP3 SWAP2 SWAP1 PUSH2 0x664 SWAP1 PUSH2 0x1595 JUMP JUMPDEST SWAP2 SWAP1 POP SSTORE POP PUSH0 PUSH1 0x3 SLOAD SWAP1 POP PUSH0 PUSH1 0x1 PUSH0 DUP4 DUP2 MSTORE PUSH1 0x20 ADD SWAP1 DUP2 MSTORE PUSH1 0x20 ADD PUSH0 KECCAK256 SWAP1 POP CALLER DUP2 PUSH0 ADD PUSH0 PUSH2 0x100 EXP DUP2 SLOAD DUP2 PUSH20 0xFFFFFFFFFFFFFFFFFFFFFFFFFFFFFFFFFFFFFFFF MUL NOT AND SWAP1 DUP4 PUSH20 0xFFFFFFFFFFFFFFFFFFFFFFFFFFFFFFFFFFFFFFFF AND MUL OR SWAP1 SSTORE POP DUP4 DUP2 PUSH1 0x1 ADD SWAP1 DUP2 PUSH2 0x6D5 SWAP2 SWAP1 PUSH2 0x1779 JUMP JUMPDEST POP DUP3 DUP2 PUSH1 0x2 ADD DUP2 SWAP1 SSTORE POP PUSH1 0x1 DUP2 PUSH1 0x3 ADD PUSH0 PUSH2 0x100 EXP DUP2 SLOAD DUP2 PUSH1 0xFF MUL NOT AND SWAP1 DUP4 ISZERO ISZERO MUL OR SWAP1 SSTORE POP CALLER PUSH1 0x2 PUSH0 DUP5 DUP2 MSTORE PUSH1 0x20 ADD SWAP1 DUP2 MSTORE PUSH1 0x20 ADD PUSH0 KECCAK256 PUSH0 PUSH2 0x100 EXP DUP2 SLOAD DUP2 PUSH20 0xFFFFFFFFFFFFFFFFFFFFFFFFFFFFFFFFFFFFFFFF MUL NOT AND SWAP1 DUP4 PUSH20 0xFFFFFFFFFFFFFFFFFFFFFFFFFFFFFFFFFFFFFFFF AND MUL OR SWAP1 SSTORE POP CALLER PUSH20 0xFFFFFFFFFFFFFFFFFFFFFFFFFFFFFFFFFFFFFFFF AND DUP3 PUSH32 0x19DFB219126B7CC7326C4B0341B4A969A51B422D1E059EF9D335A53B55748A06 DUP7 DUP7 PUSH1 0x40 MLOAD PUSH2 0x793 SWAP3 SWAP2 SWAP1 PUSH2 0x1848 JUMP JUMPDEST PUSH1 0x40 MLOAD DUP1 SWAP2 SUB SWAP1 LOG3 POP POP POP POP JUMP JUMPDEST PUSH0 PUSH1 0x60 PUSH0 PUSH1 0x1 PUSH0 DUP6 DUP2 MSTORE PUSH1 0x20 ADD SWAP1 DUP2 MSTORE PUSH1 0x20 ADD PUSH0 KECCAK256 SWAP1 POP DUP1 PUSH1 0x6 ADD PUSH0 SWAP1 SLOAD SWAP1 PUSH2 0x100 EXP SWAP1 DIV PUSH1 0xFF AND DUP2 PUSH1 0x8 ADD DUP1 DUP1 SLOAD PUSH2 0x7D9 SWAP1 PUSH2 0x1565 JUMP JUMPDEST DUP1 PUSH1 0x1F ADD PUSH1 0x20 DUP1 SWAP2 DIV MUL PUSH1 0x20 ADD PUSH1 0x40 MLOAD SWAP1 DUP2 ADD PUSH1 0x40 MSTORE DUP1 SWAP3 SWAP2 SWAP1 DUP2 DUP2 MSTORE PUSH1 0x20 ADD DUP3 DUP1 SLOAD PUSH2 0x805 SWAP1 PUSH2 0x1565 JUMP JUMPDEST DUP1 ISZERO PUSH2 0x850 JUMPI DUP1 PUSH1 0x1F LT PUSH2 0x827 JUMPI PUSH2 0x100 DUP1 DUP4 SLOAD DIV MUL DUP4 MSTORE SWAP2 PUSH1 0x20 ADD SWAP2 PUSH2 0x850 JUMP JUMPDEST DUP3 ADD SWAP2 SWAP1 PUSH0 MSTORE PUSH1 0x20 PUSH0 KECCAK256 SWAP1 JUMPDEST DUP2 SLOAD DUP2 MSTORE SWAP1 PUSH1 0x1 ADD SWAP1 PUSH1 0x20 ADD DUP1 DUP4 GT PUSH2 0x833 JUMPI DUP3 SWAP1 SUB PUSH1 0x1F AND DUP3 ADD SWAP2 JUMPDEST POP POP POP POP POP SWAP1 POP SWAP3 POP SWAP3 POP POP SWAP2 POP SWAP2 JUMP JUMPDEST PUSH0 DUP1 CALLER PUSH20 0xFFFFFFFFFFFFFFFFFFFFFFFFFFFFFFFFFFFFFFFF AND PUSH20 0xFFFFFFFFFFFFFFFFFFFFFFFFFFFFFFFFFFFFFFFF AND DUP2 MSTORE PUSH1 0x20 ADD SWAP1 DUP2 MSTORE PUSH1 0x20 ADD PUSH0 KECCAK256 PUSH0 ADD PUSH0 SWAP1 SLOAD SWAP1 PUSH2 0x100 EXP SWAP1 DIV PUSH1 0xFF AND PUSH2 0x8EB JUMPI PUSH1 0x40 MLOAD PUSH32 0x8C379A000000000000000000000000000000000000000000000000000000000 DUP2 MSTORE PUSH1 0x4 ADD PUSH2 0x8E2 SWAP1 PUSH2 0x18E6 JUMP JUMPDEST PUSH1 0x40 MLOAD DUP1 SWAP2 SUB SWAP1 REVERT JUMPDEST PUSH0 PUSH1 0x1 PUSH0 DUP6 DUP2 MSTORE PUSH1 0x20 ADD SWAP1 DUP2 MSTORE PUSH1 0x20 ADD PUSH0 KECCAK256 SWAP1 POP DUP1 PUSH1 0x6 ADD PUSH0 SWAP1 SLOAD SWAP1 PUSH2 0x100 EXP SWAP1 DIV PUSH1 0xFF AND ISZERO PUSH2 0x950 JUMPI PUSH1 0x40 MLOAD PUSH32 0x8C379A000000000000000000000000000000000000000000000000000000000 DUP2 MSTORE PUSH1 0x4 ADD PUSH2 0x947 SWAP1 PUSH2 0x1974 JUMP JUMPDEST PUSH1 0x40 MLOAD DUP1 SWAP2 SUB SWAP1 REVERT JUMPDEST CALLER PUSH20 0xFFFFFFFFFFFFFFFFFFFFFFFFFFFFFFFFFFFFFFFF AND PUSH1 0x2 PUSH0 DUP7 DUP2 MSTORE PUSH1 0x20 ADD SWAP1 DUP2 MSTORE PUSH1 0x20 ADD PUSH0 KECCAK256 PUSH0 SWAP1 SLOAD SWAP1 PUSH2 0x100 EXP SWAP1 DIV PUSH20 0xFFFFFFFFFFFFFFFFFFFFFFFFFFFFFFFFFFFFFFFF AND PUSH20 0xFFFFFFFFFFFFFFFFFFFFFFFFFFFFFFFFFFFFFFFF AND SUB PUSH2 0x9EE JUMPI PUSH1 0x40 MLOAD PUSH32 0x8C379A000000000000000000000000000000000000000000000000000000000 DUP2 MSTORE PUSH1 0x4 ADD PUSH2 0x9E5 SWAP1 PUSH2 0x1A02 JUMP JUMPDEST PUSH1 0x40 MLOAD DUP1 SWAP2 SUB SWAP1 REVERT JUMPDEST PUSH1 0x1 DUP4 PUSH1 0xFF AND LT ISZERO DUP1 ISZERO PUSH2 0xA06 JUMPI POP PUSH1 0xA DUP4 PUSH1 0xFF AND GT ISZERO JUMPDEST PUSH2 0xA45 JUMPI PUSH1 0x40 MLOAD PUSH32 0x8C379A000000000000000000000000000000000000000000000000000000000 DUP2 MSTORE PUSH1 0x4 ADD PUSH2 0xA3C SWAP1 PUSH2 0x1A90 JUMP JUMPDEST PUSH1 0x40 MLOAD DUP1 SWAP2 SUB SWAP1 REVERT JUMPDEST DUP3 DUP2 PUSH1 0x7 ADD PUSH0 CALLER PUSH20 0xFFFFFFFFFFFFFFFFFFFFFFFFFFFFFFFFFFFFFFFF AND PUSH20 0xFFFFFFFFFFFFFFFFFFFFFFFFFFFFFFFFFFFFFFFF AND DUP2 MSTORE PUSH1 0x20 ADD SWAP1 DUP2 MSTORE PUSH1 0x20 ADD PUSH0 KECCAK256 PUSH0 PUSH2 0x100 EXP DUP2 SLOAD DUP2 PUSH1 0xFF MUL NOT AND SWAP1 DUP4 PUSH1 0xFF AND MUL OR SWAP1 SSTORE POP DUP2 DUP2 PUSH1 0x8 ADD SWAP1 DUP2 PUSH2 0xAAD SWAP2 SWAP1 PUSH2 0x1779 JUMP JUMPDEST POP CALLER PUSH20 0xFFFFFFFFFFFFFFFFFFFFFFFFFFFFFFFFFFFFFFFF AND DUP5 PUSH32 0x42917649F70D2CF58D178B638566295BAA56001AA117AD383D4EA18F0D5721AD DUP6 DUP6 PUSH1 0x40 MLOAD PUSH2 0xAF7 SWAP3 SWAP2 SWAP1 PUSH2 0x1AAE JUMP JUMPDEST PUSH1 0x40 MLOAD DUP1 SWAP2 SUB SWAP1 LOG3 DUP1 PUSH1 0x9 ADD PUSH0 DUP2 DUP2 SWAP1 SLOAD SWAP1 PUSH2 0x100 EXP SWAP1 DIV PUSH1 0xFF AND DUP1 SWAP3 SWAP2 SWAP1 PUSH2 0xB1F SWAP1 PUSH2 0x1ADC JUMP JUMPDEST SWAP2 SWAP1 PUSH2 0x100 EXP DUP2 SLOAD DUP2 PUSH1 0xFF MUL NOT AND SWAP1 DUP4 PUSH1 0xFF AND MUL OR SWAP1 SSTORE POP POP PUSH1 0xA DUP2 PUSH1 0x9 ADD PUSH0 SWAP1 SLOAD SWAP1 PUSH2 0x100 EXP SWAP1 DIV PUSH1 0xFF AND PUSH1 0xFF AND LT PUSH2 0xB8B JUMPI PUSH2 0xB5D DUP5 PUSH0 PUSH2 0xD79 JUMP JUMPDEST DUP4 PUSH32 0x619B6D262BF796867B496768F7A6EDE6F8AA3180EF1BF466DE521B662FCFCE99 PUSH1 0x40 MLOAD PUSH1 0x40 MLOAD DUP1 SWAP2 SUB SWAP1 LOG2 JUMPDEST POP POP POP POP JUMP JUMPDEST PUSH1 0x2 PUSH1 0x20 MSTORE DUP1 PUSH0 MSTORE PUSH1 0x40 PUSH0 KECCAK256 PUSH0 SWAP2 POP SLOAD SWAP1 PUSH2 0x100 EXP SWAP1 DIV PUSH20 0xFFFFFFFFFFFFFFFFFFFFFFFFFFFFFFFFFFFFFFFF AND DUP2 JUMP JUMPDEST PUSH1 0x1 PUSH1 0x20 MSTORE DUP1 PUSH0 MSTORE PUSH1 0x40 PUSH0 KECCAK256 PUSH0 SWAP2 POP SWAP1 POP DUP1 PUSH0 ADD PUSH0 SWAP1 SLOAD SWAP1 PUSH2 0x100 EXP SWAP1 DIV PUSH20 0xFFFFFFFFFFFFFFFFFFFFFFFFFFFFFFFFFFFFFFFF AND SWAP1 DUP1 PUSH1 0x1 ADD DUP1 SLOAD PUSH2 0xC05 SWAP1 PUSH2 0x1565 JUMP JUMPDEST DUP1 PUSH1 0x1F ADD PUSH1 0x20 DUP1 SWAP2 DIV MUL PUSH1 0x20 ADD PUSH1 0x40 MLOAD SWAP1 DUP2 ADD PUSH1 0x40 MSTORE DUP1 SWAP3 SWAP2 SWAP1 DUP2 DUP2 MSTORE PUSH1 0x20 ADD DUP3 DUP1 SLOAD PUSH2 0xC31 SWAP1 PUSH2 0x1565 JUMP JUMPDEST DUP1 ISZERO PUSH2 0xC7C JUMPI DUP1 PUSH1 0x1F LT PUSH2 0xC53 JUMPI PUSH2 0x100 DUP1 DUP4 SLOAD DIV MUL DUP4 MSTORE SWAP2 PUSH1 0x20 ADD SWAP2 PUSH2 0xC7C JUMP JUMPDEST DUP3 ADD SWAP2 SWAP1 PUSH0 MSTORE PUSH1 0x20 PUSH0 KECCAK256 SWAP1 JUMPDEST DUP2 SLOAD DUP2 MSTORE SWAP1 PUSH1 0x1 ADD SWAP1 PUSH1 0x20 ADD DUP1 DUP4 GT PUSH2 0xC5F JUMPI DUP3 SWAP1 SUB PUSH1 0x1F AND DUP3 ADD SWAP2 JUMPDEST POP POP POP POP POP SWAP1 DUP1 PUSH1 0x2 ADD SLOAD SWAP1 DUP1 PUSH1 0x3 ADD PUSH0 SWAP1 SLOAD SWAP1 PUSH2 0x100 EXP SWAP1 DIV PUSH1 0xFF AND SWAP1 DUP1 PUSH1 0x4 ADD SLOAD SWAP1 DUP1 PUSH1 0x6 ADD PUSH0 SWAP1 SLOAD SWAP1 PUSH2 0x100 EXP SWAP1 DIV PUSH1 0xFF AND SWAP1 DUP1 PUSH1 0x8 ADD DUP1 SLOAD PUSH2 0xCC1 SWAP1 PUSH2 0x1565 JUMP JUMPDEST DUP1 PUSH1 0x1F ADD PUSH1 0x20 DUP1 SWAP2 DIV MUL PUSH1 0x20 ADD PUSH1 0x40 MLOAD SWAP1 DUP2 ADD PUSH1 0x40 MSTORE DUP1 SWAP3 SWAP2 SWAP1 DUP2 DUP2 MSTORE PUSH1 0x20 ADD DUP3 DUP1 SLOAD PUSH2 0xCED SWAP1 PUSH2 0x1565 JUMP JUMPDEST DUP1 ISZERO PUSH2 0xD38 JUMPI DUP1 PUSH1 0x1F LT PUSH2 0xD0F JUMPI PUSH2 0x100 DUP1 DUP4 SLOAD DIV MUL DUP4 MSTORE SWAP2 PUSH1 0x20 ADD SWAP2 PUSH2 0xD38 JUMP JUMPDEST DUP3 ADD SWAP2 SWAP1 PUSH0 MSTORE PUSH1 0x20 PUSH0 KECCAK256 SWAP1 JUMPDEST DUP2 SLOAD DUP2 MSTORE SWAP1 PUSH1 0x1 ADD SWAP1 PUSH1 0x20 ADD DUP1 DUP4 GT PUSH2 0xD1B JUMPI DUP3 SWAP1 SUB PUSH1 0x1F AND DUP3 ADD SWAP2 JUMPDEST POP POP POP POP POP SWAP1 DUP1 PUSH1 0x9 ADD PUSH0 SWAP1 SLOAD SWAP1 PUSH2 0x100 EXP SWAP1 DIV PUSH1 0xFF AND SWAP1 POP DUP9 JUMP JUMPDEST PUSH0 PUSH1 0x20 MSTORE DUP1 PUSH0 MSTORE PUSH1 0x40 PUSH0 KECCAK256 PUSH0 SWAP2 POP SWAP1 POP DUP1 PUSH0 ADD PUSH0 SWAP1 SLOAD SWAP1 PUSH2 0x100 EXP SWAP1 DIV PUSH1 0xFF AND SWAP1 POP DUP2 JUMP JUMPDEST DUP1 PUSH1 0x1 PUSH0 DUP5 DUP2 MSTORE PUSH1 0x20 ADD SWAP1 DUP2 MSTORE PUSH1 0x20 ADD PUSH0 KECCAK256 PUSH1 0x3 ADD PUSH0 PUSH2 0x100 EXP DUP2 SLOAD DUP2 PUSH1 0xFF MUL NOT AND SWAP1 DUP4 ISZERO ISZERO MUL OR SWAP1 SSTORE POP POP POP JUMP JUMPDEST PUSH0 PUSH1 0x40 MLOAD SWAP1 POP SWAP1 JUMP JUMPDEST PUSH0 DUP1 REVERT JUMPDEST PUSH0 DUP1 REVERT JUMPDEST PUSH0 DUP2 SWAP1 POP SWAP2 SWAP1 POP JUMP JUMPDEST PUSH2 0xDCB DUP2 PUSH2 0xDB9 JUMP JUMPDEST DUP2 EQ PUSH2 0xDD5 JUMPI PUSH0 DUP1 REVERT JUMPDEST POP JUMP JUMPDEST PUSH0 DUP2 CALLDATALOAD SWAP1 POP PUSH2 0xDE6 DUP2 PUSH2 0xDC2 JUMP JUMPDEST SWAP3 SWAP2 POP POP JUMP JUMPDEST PUSH0 PUSH1 0x20 DUP3 DUP5 SUB SLT ISZERO PUSH2 0xE01 JUMPI PUSH2 0xE00 PUSH2 0xDB1 JUMP JUMPDEST JUMPDEST PUSH0 PUSH2 0xE0E DUP5 DUP3 DUP6 ADD PUSH2 0xDD8 JUMP JUMPDEST SWAP2 POP POP SWAP3 SWAP2 POP POP JUMP JUMPDEST PUSH0 PUSH20 0xFFFFFFFFFFFFFFFFFFFFFFFFFFFFFFFFFFFFFFFF DUP3 AND SWAP1 POP SWAP2 SWAP1 POP JUMP JUMPDEST PUSH0 PUSH2 0xE40 DUP3 PUSH2 0xE17 JUMP JUMPDEST SWAP1 POP SWAP2 SWAP1 POP JUMP JUMPDEST PUSH2 0xE50 DUP2 PUSH2 0xE36 JUMP JUMPDEST DUP3 MSTORE POP POP JUMP JUMPDEST PUSH0 PUSH1 0x20 DUP3 ADD SWAP1 POP PUSH2 0xE69 PUSH0 DUP4 ADD DUP5 PUSH2 0xE47 JUMP JUMPDEST SWAP3 SWAP2 POP POP JUMP JUMPDEST PUSH2 0xE78 DUP2 PUSH2 0xDB9 JUMP JUMPDEST DUP3 MSTORE POP POP JUMP JUMPDEST PUSH0 PUSH1 0x20 DUP3 ADD SWAP1 POP PUSH2 0xE91 PUSH0 DUP4 ADD DUP5 PUSH2 0xE6F JUMP JUMPDEST SWAP3 SWAP2 POP POP JUMP JUMPDEST PUSH2 0xEA0 DUP2 PUSH2 0xE36 JUMP JUMPDEST DUP2 EQ PUSH2 0xEAA JUMPI PUSH0 DUP1 REVERT JUMPDEST POP JUMP JUMPDEST PUSH0 DUP2 CALLDATALOAD SWAP1 POP PUSH2 0xEBB DUP2 PUSH2 0xE97 JUMP JUMPDEST SWAP3 SWAP2 POP POP JUMP JUMPDEST PUSH0 DUP1 PUSH0 PUSH1 0x60 DUP5 DUP7 SUB SLT ISZERO PUSH2 0xED8 JUMPI PUSH2 0xED7 PUSH2 0xDB1 JUMP JUMPDEST JUMPDEST PUSH0 PUSH2 0xEE5 DUP7 DUP3 DUP8 ADD PUSH2 0xDD8 JUMP JUMPDEST SWAP4 POP POP PUSH1 0x20 PUSH2 0xEF6 DUP7 DUP3 DUP8 ADD PUSH2 0xDD8 JUMP JUMPDEST SWAP3 POP POP PUSH1 0x40 PUSH2 0xF07 DUP7 DUP3 DUP8 ADD PUSH2 0xEAD JUMP JUMPDEST SWAP2 POP POP SWAP3 POP SWAP3 POP SWAP3 JUMP JUMPDEST PUSH0 DUP2 MLOAD SWAP1 POP SWAP2 SWAP1 POP JUMP JUMPDEST PUSH0 DUP3 DUP3 MSTORE PUSH1 0x20 DUP3 ADD SWAP1 POP SWAP3 SWAP2 POP POP JUMP JUMPDEST PUSH0 JUMPDEST DUP4 DUP2 LT ISZERO PUSH2 0xF48 JUMPI DUP1 DUP3 ADD MLOAD DUP2 DUP5 ADD MSTORE PUSH1 0x20 DUP2 ADD SWAP1 POP PUSH2 0xF2D JUMP JUMPDEST PUSH0 DUP5 DUP5 ADD MSTORE POP POP POP POP JUMP JUMPDEST PUSH0 PUSH1 0x1F NOT PUSH1 0x1F DUP4 ADD AND SWAP1 POP SWAP2 SWAP1 POP JUMP JUMPDEST PUSH0 PUSH2 0xF6D DUP3 PUSH2 0xF11 JUMP JUMPDEST PUSH2 0xF77 DUP2 DUP6 PUSH2 0xF1B JUMP JUMPDEST SWAP4 POP PUSH2 0xF87 DUP2 DUP6 PUSH1 0x20 DUP7 ADD PUSH2 0xF2B JUMP JUMPDEST PUSH2 0xF90 DUP2 PUSH2 0xF53 JUMP JUMPDEST DUP5 ADD SWAP2 POP POP SWAP3 SWAP2 POP POP JUMP JUMPDEST PUSH0 DUP2 ISZERO ISZERO SWAP1 POP SWAP2 SWAP1 POP JUMP JUMPDEST PUSH2 0xFAF DUP2 PUSH2 0xF9B JUMP JUMPDEST DUP3 MSTORE POP POP JUMP JUMPDEST PUSH0 PUSH1 0x80 DUP3 ADD SWAP1 POP PUSH2 0xFC8 PUSH0 DUP4 ADD DUP8 PUSH2 0xE47 JUMP JUMPDEST DUP2 DUP2 SUB PUSH1 0x20 DUP4 ADD MSTORE PUSH2 0xFDA DUP2 DUP7 PUSH2 0xF63 JUMP JUMPDEST SWAP1 POP PUSH2 0xFE9 PUSH1 0x40 DUP4 ADD DUP6 PUSH2 0xE6F JUMP JUMPDEST PUSH2 0xFF6 PUSH1 0x60 DUP4 ADD DUP5 PUSH2 0xFA6 JUMP JUMPDEST SWAP6 SWAP5 POP POP POP POP POP JUMP JUMPDEST PUSH0 DUP1 REVERT JUMPDEST PUSH0 DUP1 REVERT JUMPDEST PUSH32 0x4E487B7100000000000000000000000000000000000000000000000000000000 PUSH0 MSTORE PUSH1 0x41 PUSH1 0x4 MSTORE PUSH1 0x24 PUSH0 REVERT JUMPDEST PUSH2 0x103D DUP3 PUSH2 0xF53 JUMP JUMPDEST DUP2 ADD DUP2 DUP2 LT PUSH8 0xFFFFFFFFFFFFFFFF DUP3 GT OR ISZERO PUSH2 0x105C JUMPI PUSH2 0x105B PUSH2 0x1007 JUMP JUMPDEST JUMPDEST DUP1 PUSH1 0x40 MSTORE POP POP POP JUMP JUMPDEST PUSH0 PUSH2 0x106E PUSH2 0xDA8 JUMP JUMPDEST SWAP1 POP PUSH2 0x107A DUP3 DUP3 PUSH2 0x1034 JUMP JUMPDEST SWAP2 SWAP1 POP JUMP JUMPDEST PUSH0 PUSH8 0xFFFFFFFFFFFFFFFF DUP3 GT ISZERO PUSH2 0x1099 JUMPI PUSH2 0x1098 PUSH2 0x1007 JUMP JUMPDEST JUMPDEST PUSH2 0x10A2 DUP3 PUSH2 0xF53 JUMP JUMPDEST SWAP1 POP PUSH1 0x20 DUP2 ADD SWAP1 POP SWAP2 SWAP1 POP JUMP JUMPDEST DUP3 DUP2 DUP4 CALLDATACOPY PUSH0 DUP4 DUP4 ADD MSTORE POP POP POP JUMP JUMPDEST PUSH0 PUSH2 0x10CF PUSH2 0x10CA DUP5 PUSH2 0x107F JUMP JUMPDEST PUSH2 0x1065 JUMP JUMPDEST SWAP1 POP DUP3 DUP2 MSTORE PUSH1 0x20 DUP2 ADD DUP5 DUP5 DUP5 ADD GT ISZERO PUSH2 0x10EB JUMPI PUSH2 0x10EA PUSH2 0x1003 JUMP JUMPDEST JUMPDEST PUSH2 0x10F6 DUP5 DUP3 DUP6 PUSH2 0x10AF JUMP JUMPDEST POP SWAP4 SWAP3 POP POP POP JUMP JUMPDEST PUSH0 DUP3 PUSH1 0x1F DUP4 ADD SLT PUSH2 0x1112 JUMPI PUSH2 0x1111 PUSH2 0xFFF JUMP JUMPDEST JUMPDEST DUP2 CALLDATALOAD PUSH2 0x1122 DUP5 DUP3 PUSH1 0x20 DUP7 ADD PUSH2 0x10BD JUMP JUMPDEST SWAP2 POP POP SWAP3 SWAP2 POP POP JUMP JUMPDEST PUSH0 DUP1 PUSH1 0x40 DUP4 DUP6 SUB SLT ISZERO PUSH2 0x1141 JUMPI PUSH2 0x1140 PUSH2 0xDB1 JUMP JUMPDEST JUMPDEST PUSH0 DUP4 ADD CALLDATALOAD PUSH8 0xFFFFFFFFFFFFFFFF DUP2 GT ISZERO PUSH2 0x115E JUMPI PUSH2 0x115D PUSH2 0xDB5 JUMP JUMPDEST JUMPDEST PUSH2 0x116A DUP6 DUP3 DUP7 ADD PUSH2 0x10FE JUMP JUMPDEST SWAP3 POP POP PUSH1 0x20 PUSH2 0x117B DUP6 DUP3 DUP7 ADD PUSH2 0xDD8 JUMP JUMPDEST SWAP2 POP POP SWAP3 POP SWAP3 SWAP1 POP JUMP JUMPDEST PUSH0 PUSH1 0x40 DUP3 ADD SWAP1 POP PUSH2 0x1198 PUSH0 DUP4 ADD DUP6 PUSH2 0xFA6 JUMP JUMPDEST DUP2 DUP2 SUB PUSH1 0x20 DUP4 ADD MSTORE PUSH2 0x11AA DUP2 DUP5 PUSH2 0xF63 JUMP JUMPDEST SWAP1 POP SWAP4 SWAP3 POP POP POP JUMP JUMPDEST PUSH0 PUSH1 0xFF DUP3 AND SWAP1 POP SWAP2 SWAP1 POP JUMP JUMPDEST PUSH2 0x11C8 DUP2 PUSH2 0x11B3 JUMP JUMPDEST DUP2 EQ PUSH2 0x11D2 JUMPI PUSH0 DUP1 REVERT JUMPDEST POP JUMP JUMPDEST PUSH0 DUP2 CALLDATALOAD SWAP1 POP PUSH2 0x11E3 DUP2 PUSH2 0x11BF JUMP JUMPDEST SWAP3 SWAP2 POP POP JUMP JUMPDEST PUSH0 DUP1 PUSH0 PUSH1 0x60 DUP5 DUP7 SUB SLT ISZERO PUSH2 0x1200 JUMPI PUSH2 0x11FF PUSH2 0xDB1 JUMP JUMPDEST JUMPDEST PUSH0 PUSH2 0x120D DUP7 DUP3 DUP8 ADD PUSH2 0xDD8 JUMP JUMPDEST SWAP4 POP POP PUSH1 0x20 PUSH2 0x121E DUP7 DUP3 DUP8 ADD PUSH2 0x11D5 JUMP JUMPDEST SWAP3 POP POP PUSH1 0x40 DUP5 ADD CALLDATALOAD PUSH8 0xFFFFFFFFFFFFFFFF DUP2 GT ISZERO PUSH2 0x123F JUMPI PUSH2 0x123E PUSH2 0xDB5 JUMP JUMPDEST JUMPDEST PUSH2 0x124B DUP7 DUP3 DUP8 ADD PUSH2 0x10FE JUMP JUMPDEST SWAP2 POP POP SWAP3 POP SWAP3 POP SWAP3 JUMP JUMPDEST PUSH2 0x125E DUP2 PUSH2 0x11B3 JUMP JUMPDEST DUP3 MSTORE POP POP JUMP JUMPDEST PUSH0 PUSH2 0x100 DUP3 ADD SWAP1 POP PUSH2 0x1278 PUSH0 DUP4 ADD DUP12 PUSH2 0xE47 JUMP JUMPDEST DUP2 DUP2 SUB PUSH1 0x20 DUP4 ADD MSTORE PUSH2 0x128A DUP2 DUP11 PUSH2 0xF63 JUMP JUMPDEST SWAP1 POP PUSH2 0x1299 PUSH1 0x40 DUP4 ADD DUP10 PUSH2 0xE6F JUMP JUMPDEST PUSH2 0x12A6 PUSH1 0x60 DUP4 ADD DUP9 PUSH2 0xFA6 JUMP JUMPDEST PUSH2 0x12B3 PUSH1 0x80 DUP4 ADD DUP8 PUSH2 0xE6F JUMP JUMPDEST PUSH2 0x12C0 PUSH1 0xA0 DUP4 ADD DUP7 PUSH2 0xFA6 JUMP JUMPDEST DUP2 DUP2 SUB PUSH1 0xC0 DUP4 ADD MSTORE PUSH2 0x12D2 DUP2 DUP6 PUSH2 0xF63 JUMP JUMPDEST SWAP1 POP PUSH2 0x12E1 PUSH1 0xE0 DUP4 ADD DUP5 PUSH2 0x1255 JUMP JUMPDEST SWAP10 SWAP9 POP POP POP POP POP POP POP POP POP JUMP JUMPDEST PUSH0 PUSH1 0x20 DUP3 DUP5 SUB SLT ISZERO PUSH2 0x1303 JUMPI PUSH2 0x1302 PUSH2 0xDB1 JUMP JUMPDEST JUMPDEST PUSH0 PUSH2 0x1310 DUP5 DUP3 DUP6 ADD PUSH2 0xEAD JUMP JUMPDEST SWAP2 POP POP SWAP3 SWAP2 POP POP JUMP JUMPDEST PUSH0 PUSH1 0x20 DUP3 ADD SWAP1 POP PUSH2 0x132C PUSH0 DUP4 ADD DUP5 PUSH2 0xFA6 JUMP JUMPDEST SWAP3 SWAP2 POP POP JUMP JUMPDEST PUSH32 0x416C7265616479207265676973746572656420617320612044414F206D656D62 PUSH0 DUP3 ADD MSTORE PUSH32 0x6572000000000000000000000000000000000000000000000000000000000000 PUSH1 0x20 DUP3 ADD MSTORE POP JUMP JUMPDEST PUSH0 PUSH2 0x138C PUSH1 0x22 DUP4 PUSH2 0xF1B JUMP JUMPDEST SWAP2 POP PUSH2 0x1397 DUP3 PUSH2 0x1332 JUMP JUMPDEST PUSH1 0x40 DUP3 ADD SWAP1 POP SWAP2 SWAP1 POP JUMP JUMPDEST PUSH0 PUSH1 0x20 DUP3 ADD SWAP1 POP DUP2 DUP2 SUB PUSH0 DUP4 ADD MSTORE PUSH2 0x13B9 DUP2 PUSH2 0x1380 JUMP JUMPDEST SWAP1 POP SWAP2 SWAP1 POP JUMP JUMPDEST PUSH32 0x5265736561726368207061706572206973206E6F7420617661696C61626C6520 PUSH0 DUP3 ADD MSTORE PUSH32 0x666F722066756E64696E67000000000000000000000000000000000000000000 PUSH1 0x20 DUP3 ADD MSTORE POP JUMP JUMPDEST PUSH0 PUSH2 0x141A PUSH1 0x2B DUP4 PUSH2 0xF1B JUMP JUMPDEST SWAP2 POP PUSH2 0x1425 DUP3 PUSH2 0x13C0 JUMP JUMPDEST PUSH1 0x40 DUP3 ADD SWAP1 POP SWAP2 SWAP1 POP JUMP JUMPDEST PUSH0 PUSH1 0x20 DUP3 ADD SWAP1 POP DUP2 DUP2 SUB PUSH0 DUP4 ADD MSTORE PUSH2 0x1447 DUP2 PUSH2 0x140E JUMP JUMPDEST SWAP1 POP SWAP2 SWAP1 POP JUMP JUMPDEST PUSH0 PUSH1 0x60 DUP3 ADD SWAP1 POP PUSH2 0x1461 PUSH0 DUP4 ADD DUP7 PUSH2 0xE47 JUMP JUMPDEST PUSH2 0x146E PUSH1 0x20 DUP4 ADD DUP6 PUSH2 0xE47 JUMP JUMPDEST PUSH2 0x147B PUSH1 0x40 DUP4 ADD DUP5 PUSH2 0xE6F JUMP JUMPDEST SWAP5 SWAP4 POP POP POP POP JUMP JUMPDEST PUSH2 0x148C DUP2 PUSH2 0xF9B JUMP JUMPDEST DUP2 EQ PUSH2 0x1496 JUMPI PUSH0 DUP1 REVERT JUMPDEST POP JUMP JUMPDEST PUSH0 DUP2 MLOAD SWAP1 POP PUSH2 0x14A7 DUP2 PUSH2 0x1483 JUMP JUMPDEST SWAP3 SWAP2 POP POP JUMP JUMPDEST PUSH0 PUSH1 0x20 DUP3 DUP5 SUB SLT ISZERO PUSH2 0x14C2 JUMPI PUSH2 0x14C1 PUSH2 0xDB1 JUMP JUMPDEST JUMPDEST PUSH0 PUSH2 0x14CF DUP5 DUP3 DUP6 ADD PUSH2 0x1499 JUMP JUMPDEST SWAP2 POP POP SWAP3 SWAP2 POP POP JUMP JUMPDEST PUSH32 0x4E487B7100000000000000000000000000000000000000000000000000000000 PUSH0 MSTORE PUSH1 0x11 PUSH1 0x4 MSTORE PUSH1 0x24 PUSH0 REVERT JUMPDEST PUSH0 PUSH2 0x150F DUP3 PUSH2 0xDB9 JUMP JUMPDEST SWAP2 POP PUSH2 0x151A DUP4 PUSH2 0xDB9 JUMP JUMPDEST SWAP3 POP DUP3 DUP3 ADD SWAP1 POP DUP1 DUP3 GT ISZERO PUSH2 0x1532 JUMPI PUSH2 0x1531 PUSH2 0x14D8 JUMP JUMPDEST JUMPDEST SWAP3 SWAP2 POP POP JUMP JUMPDEST PUSH32 0x4E487B7100000000000000000000000000000000000000000000000000000000 PUSH0 MSTORE PUSH1 0x22 PUSH1 0x4 MSTORE PUSH1 0x24 PUSH0 REVERT JUMPDEST PUSH0 PUSH1 0x2 DUP3 DIV SWAP1 POP PUSH1 0x1 DUP3 AND DUP1 PUSH2 0x157C JUMPI PUSH1 0x7F DUP3 AND SWAP2 POP JUMPDEST PUSH1 0x20 DUP3 LT DUP2 SUB PUSH2 0x158F JUMPI PUSH2 0x158E PUSH2 0x1538 JUMP JUMPDEST JUMPDEST POP SWAP2 SWAP1 POP JUMP JUMPDEST PUSH0 PUSH2 0x159F DUP3 PUSH2 0xDB9 JUMP JUMPDEST SWAP2 POP PUSH32 0xFFFFFFFFFFFFFFFFFFFFFFFFFFFFFFFFFFFFFFFFFFFFFFFFFFFFFFFFFFFFFFFF DUP3 SUB PUSH2 0x15D1 JUMPI PUSH2 0x15D0 PUSH2 0x14D8 JUMP JUMPDEST JUMPDEST PUSH1 0x1 DUP3 ADD SWAP1 POP SWAP2 SWAP1 POP JUMP JUMPDEST PUSH0 DUP2 SWAP1 POP DUP2 PUSH0 MSTORE PUSH1 0x20 PUSH0 KECCAK256 SWAP1 POP SWAP2 SWAP1 POP JUMP JUMPDEST PUSH0 PUSH1 0x20 PUSH1 0x1F DUP4 ADD DIV SWAP1 POP SWAP2 SWAP1 POP JUMP JUMPDEST PUSH0 DUP3 DUP3 SHL SWAP1 POP SWAP3 SWAP2 POP POP JUMP JUMPDEST PUSH0 PUSH1 0x8 DUP4 MUL PUSH2 0x1638 PUSH32 0xFFFFFFFFFFFFFFFFFFFFFFFFFFFFFFFFFFFFFFFFFFFFFFFFFFFFFFFFFFFFFFFF DUP3 PUSH2 0x15FD JUMP JUMPDEST PUSH2 0x1642 DUP7 DUP4 PUSH2 0x15FD JUMP JUMPDEST SWAP6 POP DUP1 NOT DUP5 AND SWAP4 POP DUP1 DUP7 AND DUP5 OR SWAP3 POP POP POP SWAP4 SWAP3 POP POP POP JUMP JUMPDEST PUSH0 DUP2 SWAP1 POP SWAP2 SWAP1 POP JUMP JUMPDEST PUSH0 PUSH2 0x167D PUSH2 0x1678 PUSH2 0x1673 DUP5 PUSH2 0xDB9 JUMP JUMPDEST PUSH2 0x165A JUMP JUMPDEST PUSH2 0xDB9 JUMP JUMPDEST SWAP1 POP SWAP2 SWAP1 POP JUMP JUMPDEST PUSH0 DUP2 SWAP1 POP SWAP2 SWAP1 POP JUMP JUMPDEST PUSH2 0x1696 DUP4 PUSH2 0x1663 JUMP JUMPDEST PUSH2 0x16AA PUSH2 0x16A2 DUP3 PUSH2 0x1684 JUMP JUMPDEST DUP5 DUP5 SLOAD PUSH2 0x1609 JUMP JUMPDEST DUP3 SSTORE POP POP POP POP JUMP JUMPDEST PUSH0 SWAP1 JUMP JUMPDEST PUSH2 0x16BE PUSH2 0x16B2 JUMP JUMPDEST PUSH2 0x16C9 DUP2 DUP5 DUP5 PUSH2 0x168D JUMP JUMPDEST POP POP POP JUMP JUMPDEST JUMPDEST DUP2 DUP2 LT ISZERO PUSH2 0x16EC JUMPI PUSH2 0x16E1 PUSH0 DUP3 PUSH2 0x16B6 JUMP JUMPDEST PUSH1 0x1 DUP2 ADD SWAP1 POP PUSH2 0x16CF JUMP JUMPDEST POP POP JUMP JUMPDEST PUSH1 0x1F DUP3 GT ISZERO PUSH2 0x1731 JUMPI PUSH2 0x1702 DUP2 PUSH2 0x15DC JUMP JUMPDEST PUSH2 0x170B DUP5 PUSH2 0x15EE JUMP JUMPDEST DUP2 ADD PUSH1 0x20 DUP6 LT ISZERO PUSH2 0x171A JUMPI DUP2 SWAP1 POP JUMPDEST PUSH2 0x172E PUSH2 0x1726 DUP6 PUSH2 0x15EE JUMP JUMPDEST DUP4 ADD DUP3 PUSH2 0x16CE JUMP JUMPDEST POP POP JUMPDEST POP POP POP JUMP JUMPDEST PUSH0 DUP3 DUP3 SHR SWAP1 POP SWAP3 SWAP2 POP POP JUMP JUMPDEST PUSH0 PUSH2 0x1751 PUSH0 NOT DUP5 PUSH1 0x8 MUL PUSH2 0x1736 JUMP JUMPDEST NOT DUP1 DUP4 AND SWAP2 POP POP SWAP3 SWAP2 POP POP JUMP JUMPDEST PUSH0 PUSH2 0x1769 DUP4 DUP4 PUSH2 0x1742 JUMP JUMPDEST SWAP2 POP DUP3 PUSH1 0x2 MUL DUP3 OR SWAP1 POP SWAP3 SWAP2 POP POP JUMP JUMPDEST PUSH2 0x1782 DUP3 PUSH2 0xF11 JUMP JUMPDEST PUSH8 0xFFFFFFFFFFFFFFFF DUP2 GT ISZERO PUSH2 0x179B JUMPI PUSH2 0x179A PUSH2 0x1007 JUMP JUMPDEST JUMPDEST PUSH2 0x17A5 DUP3 SLOAD PUSH2 0x1565 JUMP JUMPDEST PUSH2 0x17B0 DUP3 DUP3 DUP6 PUSH2 0x16F0 JUMP JUMPDEST PUSH0 PUSH1 0x20 SWAP1 POP PUSH1 0x1F DUP4 GT PUSH1 0x1 DUP2 EQ PUSH2 0x17E1 JUMPI PUSH0 DUP5 ISZERO PUSH2 0x17CF JUMPI DUP3 DUP8 ADD MLOAD SWAP1 POP JUMPDEST PUSH2 0x17D9 DUP6 DUP3 PUSH2 0x175E JUMP JUMPDEST DUP7 SSTORE POP PUSH2 0x1840 JUMP JUMPDEST PUSH1 0x1F NOT DUP5 AND PUSH2 0x17EF DUP7 PUSH2 0x15DC JUMP JUMPDEST PUSH0 JUMPDEST DUP3 DUP2 LT ISZERO PUSH2 0x1816 JUMPI DUP5 DUP10 ADD MLOAD DUP3 SSTORE PUSH1 0x1 DUP3 ADD SWAP2 POP PUSH1 0x20 DUP6 ADD SWAP5 POP PUSH1 0x20 DUP2 ADD SWAP1 POP PUSH2 0x17F1 JUMP JUMPDEST DUP7 DUP4 LT ISZERO PUSH2 0x1833 JUMPI DUP5 DUP10 ADD MLOAD PUSH2 0x182F PUSH1 0x1F DUP10 AND DUP3 PUSH2 0x1742 JUMP JUMPDEST DUP4 SSTORE POP JUMPDEST PUSH1 0x1 PUSH1 0x2 DUP9 MUL ADD DUP9 SSTORE POP POP POP JUMPDEST POP POP POP POP POP POP JUMP JUMPDEST PUSH0 PUSH1 0x40 DUP3 ADD SWAP1 POP DUP2 DUP2 SUB PUSH0 DUP4 ADD MSTORE PUSH2 0x1860 DUP2 DUP6 PUSH2 0xF63 JUMP JUMPDEST SWAP1 POP PUSH2 0x186F PUSH1 0x20 DUP4 ADD DUP5 PUSH2 0xE6F JUMP JUMPDEST SWAP4 SWAP3 POP POP POP JUMP JUMPDEST PUSH32 0x596F75206D757374206265206120726567697374657265642044414F206D656D PUSH0 DUP3 ADD MSTORE PUSH32 0x6265720000000000000000000000000000000000000000000000000000000000 PUSH1 0x20 DUP3 ADD MSTORE POP JUMP JUMPDEST PUSH0 PUSH2 0x18D0 PUSH1 0x23 DUP4 PUSH2 0xF1B JUMP JUMPDEST SWAP2 POP PUSH2 0x18DB DUP3 PUSH2 0x1876 JUMP JUMPDEST PUSH1 0x40 DUP3 ADD SWAP1 POP SWAP2 SWAP1 POP JUMP JUMPDEST PUSH0 PUSH1 0x20 DUP3 ADD SWAP1 POP DUP2 DUP2 SUB PUSH0 DUP4 ADD MSTORE PUSH2 0x18FD DUP2 PUSH2 0x18C4 JUMP JUMPDEST SWAP1 POP SWAP2 SWAP1 POP JUMP JUMPDEST PUSH32 0x52657365617263682070617065722068617320616C7265616479206265656E20 PUSH0 DUP3 ADD MSTORE PUSH32 0x706565722D726576696577656400000000000000000000000000000000000000 PUSH1 0x20 DUP3 ADD MSTORE POP JUMP JUMPDEST PUSH0 PUSH2 0x195E PUSH1 0x2D DUP4 PUSH2 0xF1B JUMP JUMPDEST SWAP2 POP PUSH2 0x1969 DUP3 PUSH2 0x1904 JUMP JUMPDEST PUSH1 0x40 DUP3 ADD SWAP1 POP SWAP2 SWAP1 POP JUMP JUMPDEST PUSH0 PUSH1 0x20 DUP3 ADD SWAP1 POP DUP2 DUP2 SUB PUSH0 DUP4 ADD MSTORE PUSH2 0x198B DUP2 PUSH2 0x1952 JUMP JUMPDEST SWAP1 POP SWAP2 SWAP1 POP JUMP JUMPDEST PUSH32 0x5061706572206F776E65722063616E6E6F742072657669657720746865697220 PUSH0 DUP3 ADD MSTORE PUSH32 0x6F776E2070617065720000000000000000000000000000000000000000000000 PUSH1 0x20 DUP3 ADD MSTORE POP JUMP JUMPDEST PUSH0 PUSH2 0x19EC PUSH1 0x29 DUP4 PUSH2 0xF1B JUMP JUMPDEST SWAP2 POP PUSH2 0x19F7 DUP3 PUSH2 0x1992 JUMP JUMPDEST PUSH1 0x40 DUP3 ADD SWAP1 POP SWAP2 SWAP1 POP JUMP JUMPDEST PUSH0 PUSH1 0x20 DUP3 ADD SWAP1 POP DUP2 DUP2 SUB PUSH0 DUP4 ADD MSTORE PUSH2 0x1A19 DUP2 PUSH2 0x19E0 JUMP JUMPDEST SWAP1 POP SWAP2 SWAP1 POP JUMP JUMPDEST PUSH32 0x496E76616C69642073636F72652E2053636F7265206D75737420626520626574 PUSH0 DUP3 ADD MSTORE PUSH32 0x7765656E203120616E6420313000000000000000000000000000000000000000 PUSH1 0x20 DUP3 ADD MSTORE POP JUMP JUMPDEST PUSH0 PUSH2 0x1A7A PUSH1 0x2D DUP4 PUSH2 0xF1B JUMP JUMPDEST SWAP2 POP PUSH2 0x1A85 DUP3 PUSH2 0x1A20 JUMP JUMPDEST PUSH1 0x40 DUP3 ADD SWAP1 POP SWAP2 SWAP1 POP JUMP JUMPDEST PUSH0 PUSH1 0x20 DUP3 ADD SWAP1 POP DUP2 DUP2 SUB PUSH0 DUP4 ADD MSTORE PUSH2 0x1AA7 DUP2 PUSH2 0x1A6E JUMP JUMPDEST SWAP1 POP SWAP2 SWAP1 POP JUMP JUMPDEST PUSH0 PUSH1 0x40 DUP3 ADD SWAP1 POP PUSH2 0x1AC1 PUSH0 DUP4 ADD DUP6 PUSH2 0x1255 JUMP JUMPDEST DUP2 DUP2 SUB PUSH1 0x20 DUP4 ADD MSTORE PUSH2 0x1AD3 DUP2 DUP5 PUSH2 0xF63 JUMP JUMPDEST SWAP1 POP SWAP4 SWAP3 POP POP POP JUMP JUMPDEST PUSH0 PUSH2 0x1AE6 DUP3 PUSH2 0x11B3 JUMP JUMPDEST SWAP2 POP PUSH1 0xFF DUP3 SUB PUSH2 0x1AF9 JUMPI PUSH2 0x1AF8 PUSH2 0x14D8 JUMP JUMPDEST JUMPDEST PUSH1 0x1 DUP3 ADD SWAP1 POP SWAP2 SWAP1 POP JUMP INVALID LOG2 PUSH5 0x6970667358 0x22 SLT KECCAK256 MSTORE8 EXP 0xE6 0xE1 0xD8 DUP12 0xD2 PUSH15 0x94DED8ABC0D52174F2110AE731DF53 CALLER SWAP5 0xD7 0x4C 0x23 POP SWAP12 0xF6 DUP5 PUSH5 0x736F6C6343 STOP ADDMOD EQ STOP CALLER "
		},
		"gasEstimates": {
			"creation": {
				"codeDepositCost": "1394000",
				"executionCost": "1449",
				"totalCost": "1395449"
			},
			"external": {
				"daoMembers(address)": "2965",
				"fundResearchPaper(uint256,uint256,address)": "infinite",
				"getPeerReviewInfo(uint256)": "infinite",
				"getResearchPaperDetails(uint256)": "infinite",
				"getResearchPaperOwnership(uint256)": "2875",
				"paperCounter()": "2470",
				"paperOwners(uint256)": "2893",
				"peerReviewResearchPaper(uint256,uint8,string)": "infinite",
				"registerScientist()": "27909",
				"researchPapers(uint256)": "infinite",
				"uploadResearchPaper(string,uint256)": "infinite"
			},
			"internal": {
				"toggleLockStatus(uint256,bool)": "24367"
			}
		},
		"methodIdentifiers": {
			"daoMembers(address)": "959068ea",
			"fundResearchPaper(uint256,uint256,address)": "3064318c",
			"getPeerReviewInfo(uint256)": "48852f08",
			"getResearchPaperDetails(uint256)": "365422ec",
			"getResearchPaperOwnership(uint256)": "13531f7d",
			"paperCounter()": "1749f05f",
			"paperOwners(uint256)": "5cedb6dc",
			"peerReviewResearchPaper(uint256,uint8,string)": "5b55dd17",
			"registerScientist()": "10bb5e05",
			"researchPapers(uint256)": "6f864a62",
			"uploadResearchPaper(string,uint256)": "46fe2bd2"
		}
	},
	"abi": [
		{
			"anonymous": false,
			"inputs": [
				{
					"indexed": true,
					"internalType": "uint256",
					"name": "paperId",
					"type": "uint256"
				},
				{
					"indexed": true,
					"internalType": "address",
					"name": "investor",
					"type": "address"
				},
				{
					"indexed": false,
					"internalType": "uint256",
					"name": "amount",
					"type": "uint256"
				}
			],
			"name": "ResearchPaperFunded",
			"type": "event"
		},
		{
			"anonymous": false,
			"inputs": [
				{
					"indexed": true,
					"internalType": "uint256",
					"name": "paperId",
					"type": "uint256"
				},
				{
					"indexed": true,
					"internalType": "address",
					"name": "reviewer",
					"type": "address"
				},
				{
					"indexed": false,
					"internalType": "uint8",
					"name": "score",
					"type": "uint8"
				},
				{
					"indexed": false,
					"internalType": "string",
					"name": "feedback",
					"type": "string"
				}
			],
			"name": "ResearchPaperPeerReviewed",
			"type": "event"
		},
		{
			"anonymous": false,
			"inputs": [
				{
					"indexed": true,
					"internalType": "uint256",
					"name": "paperId",
					"type": "uint256"
				}
			],
			"name": "ResearchPaperPublished",
			"type": "event"
		},
		{
			"anonymous": false,
			"inputs": [
				{
					"indexed": true,
					"internalType": "uint256",
					"name": "paperId",
					"type": "uint256"
				},
				{
					"indexed": true,
					"internalType": "address",
					"name": "buyer",
					"type": "address"
				}
			],
			"name": "ResearchPaperPurchased",
			"type": "event"
		},
		{
			"anonymous": false,
			"inputs": [
				{
					"indexed": true,
					"internalType": "uint256",
					"name": "paperId",
					"type": "uint256"
				},
				{
					"indexed": true,
					"internalType": "address",
					"name": "uploader",
					"type": "address"
				},
				{
					"indexed": false,
					"internalType": "string",
					"name": "ipfsHash",
					"type": "string"
				},
				{
					"indexed": false,
					"internalType": "uint256",
					"name": "price",
					"type": "uint256"
				}
			],
			"name": "ResearchPaperUploaded",
			"type": "event"
		},
		{
			"anonymous": false,
			"inputs": [
				{
					"indexed": true,
					"internalType": "address",
					"name": "scientist",
					"type": "address"
				}
			],
			"name": "ScientistRegistered",
			"type": "event"
		},
		{
			"inputs": [
				{
					"internalType": "address",
					"name": "",
					"type": "address"
				}
			],
			"name": "daoMembers",
			"outputs": [
				{
					"internalType": "bool",
					"name": "isRegistered",
					"type": "bool"
				}
			],
			"stateMutability": "view",
			"type": "function"
		},
		{
			"inputs": [
				{
					"internalType": "uint256",
					"name": "paperId",
					"type": "uint256"
				},
				{
					"internalType": "uint256",
					"name": "amount",
					"type": "uint256"
				},
				{
					"internalType": "address",
					"name": "tokenAddress",
					"type": "address"
				}
			],
			"name": "fundResearchPaper",
			"outputs": [],
			"stateMutability": "nonpayable",
			"type": "function"
		},
		{
			"inputs": [
				{
					"internalType": "uint256",
					"name": "paperId",
					"type": "uint256"
				}
			],
			"name": "getPeerReviewInfo",
			"outputs": [
				{
					"internalType": "bool",
					"name": "isPeerReviewed",
					"type": "bool"
				},
				{
					"internalType": "string",
					"name": "feedback",
					"type": "string"
				}
			],
			"stateMutability": "view",
			"type": "function"
		},
		{
			"inputs": [
				{
					"internalType": "uint256",
					"name": "paperId",
					"type": "uint256"
				}
			],
			"name": "getResearchPaperDetails",
			"outputs": [
				{
					"internalType": "address",
					"name": "uploader",
					"type": "address"
				},
				{
					"internalType": "string",
					"name": "ipfsHash",
					"type": "string"
				},
				{
					"internalType": "uint256",
					"name": "price",
					"type": "uint256"
				},
				{
					"internalType": "bool",
					"name": "isLocked",
					"type": "bool"
				}
			],
			"stateMutability": "view",
			"type": "function"
		},
		{
			"inputs": [
				{
					"internalType": "uint256",
					"name": "paperId",
					"type": "uint256"
				}
			],
			"name": "getResearchPaperOwnership",
			"outputs": [
				{
					"internalType": "address",
					"name": "",
					"type": "address"
				}
			],
			"stateMutability": "view",
			"type": "function"
		},
		{
			"inputs": [],
			"name": "paperCounter",
			"outputs": [
				{
					"internalType": "uint256",
					"name": "",
					"type": "uint256"
				}
			],
			"stateMutability": "view",
			"type": "function"
		},
		{
			"inputs": [
				{
					"internalType": "uint256",
					"name": "",
					"type": "uint256"
				}
			],
			"name": "paperOwners",
			"outputs": [
				{
					"internalType": "address",
					"name": "",
					"type": "address"
				}
			],
			"stateMutability": "view",
			"type": "function"
		},
		{
			"inputs": [
				{
					"internalType": "uint256",
					"name": "paperId",
					"type": "uint256"
				},
				{
					"internalType": "uint8",
					"name": "score",
					"type": "uint8"
				},
				{
					"internalType": "string",
					"name": "_feedback",
					"type": "string"
				}
			],
			"name": "peerReviewResearchPaper",
			"outputs": [],
			"stateMutability": "nonpayable",
			"type": "function"
		},
		{
			"inputs": [],
			"name": "registerScientist",
			"outputs": [],
			"stateMutability": "nonpayable",
			"type": "function"
		},
		{
			"inputs": [
				{
					"internalType": "uint256",
					"name": "",
					"type": "uint256"
				}
			],
			"name": "researchPapers",
			"outputs": [
				{
					"internalType": "address",
					"name": "uploader",
					"type": "address"
				},
				{
					"internalType": "string",
					"name": "ipfsHash",
					"type": "string"
				},
				{
					"internalType": "uint256",
					"name": "price",
					"type": "uint256"
				},
				{
					"internalType": "bool",
					"name": "isLocked",
					"type": "bool"
				},
				{
					"internalType": "uint256",
					"name": "totalFunding",
					"type": "uint256"
				},
				{
					"internalType": "bool",
					"name": "isPeerReviewed",
					"type": "bool"
				},
				{
					"internalType": "string",
					"name": "feedback",
					"type": "string"
				},
				{
					"internalType": "uint8",
					"name": "peerReviewCount",
					"type": "uint8"
				}
			],
			"stateMutability": "view",
			"type": "function"
		},
		{
			"inputs": [
				{
					"internalType": "string",
					"name": "_ipfsHash",
					"type": "string"
				},
				{
					"internalType": "uint256",
					"name": "_price",
					"type": "uint256"
				}
			],
			"name": "uploadResearchPaper",
			"outputs": [],
			"stateMutability": "nonpayable",
			"type": "function"
		}
	]
}